{
  "contractName": "JobApplicationManagement",
  "abi": [
    {
      "inputs": [
        {
          "internalType": "address",
          "name": "jobListingsContractAddress",
          "type": "address"
        },
        {
          "internalType": "address",
          "name": "tokenAddress",
          "type": "address"
        },
        {
          "internalType": "address",
          "name": "jobListingsManagementAddress",
          "type": "address"
        }
      ],
      "stateMutability": "nonpayable",
      "type": "constructor"
    },
    {
      "anonymous": false,
      "inputs": [
        {
          "indexed": true,
          "internalType": "uint256",
          "name": "tokenId",
          "type": "uint256"
        },
        {
          "indexed": true,
          "internalType": "uint256",
          "name": "applicationId",
          "type": "uint256"
        }
      ],
      "name": "CandidateHired",
      "type": "event"
    },
    {
      "anonymous": false,
      "inputs": [
        {
          "indexed": true,
          "internalType": "uint256",
          "name": "tokenId",
          "type": "uint256"
        },
        {
          "indexed": true,
          "internalType": "uint256",
          "name": "applicationId",
          "type": "uint256"
        }
      ],
      "name": "CandidateRejected",
      "type": "event"
    },
    {
      "anonymous": false,
      "inputs": [
        {
          "indexed": true,
          "internalType": "uint256",
          "name": "id",
          "type": "uint256"
        },
        {
          "indexed": true,
          "internalType": "uint256",
          "name": "userId",
          "type": "uint256"
        },
        {
          "indexed": false,
          "internalType": "string",
          "name": "institution",
          "type": "string"
        },
        {
          "indexed": false,
          "internalType": "string",
          "name": "title",
          "type": "string"
        },
        {
          "indexed": false,
          "internalType": "string",
          "name": "year",
          "type": "string"
        },
        {
          "indexed": false,
          "internalType": "string",
          "name": "status",
          "type": "string"
        }
      ],
      "name": "DegreeCreated",
      "type": "event"
    },
    {
      "anonymous": false,
      "inputs": [
        {
          "indexed": true,
          "internalType": "uint256",
          "name": "id",
          "type": "uint256"
        }
      ],
      "name": "DegreeRejected",
      "type": "event"
    },
    {
      "anonymous": false,
      "inputs": [
        {
          "indexed": true,
          "internalType": "uint256",
          "name": "id",
          "type": "uint256"
        }
      ],
      "name": "DegreeVerified",
      "type": "event"
    },
    {
      "anonymous": false,
      "inputs": [
        {
          "indexed": true,
          "internalType": "uint256",
          "name": "id",
          "type": "uint256"
        },
        {
          "indexed": true,
          "internalType": "uint256",
          "name": "userId",
          "type": "uint256"
        },
        {
          "indexed": false,
          "internalType": "string",
          "name": "companyName",
          "type": "string"
        },
        {
          "indexed": false,
          "internalType": "string",
          "name": "position",
          "type": "string"
        },
        {
          "indexed": false,
          "internalType": "string",
          "name": "beginDate",
          "type": "string"
        },
        {
          "indexed": false,
          "internalType": "string",
          "name": "endDate",
          "type": "string"
        },
        {
          "indexed": false,
          "internalType": "string",
          "name": "description",
          "type": "string"
        },
        {
          "indexed": false,
          "internalType": "string",
          "name": "status",
          "type": "string"
        }
      ],
      "name": "ExperienceCreated",
      "type": "event"
    },
    {
      "anonymous": false,
      "inputs": [
        {
          "indexed": true,
          "internalType": "uint256",
          "name": "id",
          "type": "uint256"
        }
      ],
      "name": "ExperienceRejected",
      "type": "event"
    },
    {
      "anonymous": false,
      "inputs": [
        {
          "indexed": true,
          "internalType": "uint256",
          "name": "id",
          "type": "uint256"
        }
      ],
      "name": "ExperienceVerified",
      "type": "event"
    },
    {
      "anonymous": false,
      "inputs": [
        {
          "indexed": true,
          "internalType": "uint256",
          "name": "applicationId",
          "type": "uint256"
        },
        {
          "indexed": true,
          "internalType": "uint256",
          "name": "tokenId",
          "type": "uint256"
        },
        {
          "indexed": true,
          "internalType": "address",
          "name": "candidate",
          "type": "address"
        }
      ],
      "name": "JobApplicationCreated",
      "type": "event"
    },
    {
      "anonymous": false,
      "inputs": [
        {
          "indexed": true,
          "internalType": "address",
          "name": "previousOwner",
          "type": "address"
        },
        {
          "indexed": true,
          "internalType": "address",
          "name": "newOwner",
          "type": "address"
        }
      ],
      "name": "OwnershipTransferred",
      "type": "event"
    },
    {
      "anonymous": false,
      "inputs": [
        {
          "indexed": true,
          "internalType": "uint256",
          "name": "id",
          "type": "uint256"
        },
        {
          "indexed": false,
          "internalType": "enum UserManagement.UserType",
          "name": "userType",
          "type": "uint8"
        },
        {
          "indexed": false,
          "internalType": "string",
          "name": "name",
          "type": "string"
        },
        {
          "indexed": false,
          "internalType": "string",
          "name": "email",
          "type": "string"
        }
      ],
      "name": "UserCreated",
      "type": "event"
    },
    {
      "anonymous": false,
      "inputs": [
        {
          "indexed": false,
          "internalType": "address",
          "name": "msgSender",
          "type": "address"
        },
        {
          "indexed": false,
          "internalType": "address",
          "name": "walletAddress",
          "type": "address"
        },
        {
          "indexed": false,
          "internalType": "uint256",
          "name": "tokenId",
          "type": "uint256"
        }
      ],
      "name": "eventTest",
      "type": "event"
    },
    {
      "anonymous": false,
      "inputs": [
        {
          "indexed": false,
          "internalType": "address",
          "name": "sender",
          "type": "address"
        },
        {
          "indexed": false,
          "internalType": "address",
          "name": "walletAddress",
          "type": "address"
        },
        {
          "indexed": false,
          "internalType": "uint256",
          "name": "tokenId",
          "type": "uint256"
        }
      ],
      "name": "nftTransfert",
      "type": "event"
    },
    {
      "inputs": [],
      "name": "PENDING_STATUS",
      "outputs": [
        {
          "internalType": "string",
          "name": "",
          "type": "string"
        }
      ],
      "stateMutability": "view",
      "type": "function",
      "constant": true
    },
    {
      "inputs": [],
      "name": "REJECTED_STATUS",
      "outputs": [
        {
          "internalType": "string",
          "name": "",
          "type": "string"
        }
      ],
      "stateMutability": "view",
      "type": "function",
      "constant": true
    },
    {
      "inputs": [],
      "name": "VALID_STATUS",
      "outputs": [
        {
          "internalType": "string",
          "name": "",
          "type": "string"
        }
      ],
      "stateMutability": "view",
      "type": "function",
      "constant": true
    },
    {
      "inputs": [
        {
          "internalType": "string",
          "name": "_institution",
          "type": "string"
        },
        {
          "internalType": "string",
          "name": "_title",
          "type": "string"
        },
        {
          "internalType": "string",
          "name": "_year",
          "type": "string"
        }
      ],
      "name": "createDegree",
      "outputs": [],
      "stateMutability": "nonpayable",
      "type": "function"
    },
    {
      "inputs": [
        {
          "internalType": "string",
          "name": "_companyName",
          "type": "string"
        },
        {
          "internalType": "string",
          "name": "_position",
          "type": "string"
        },
        {
          "internalType": "string",
          "name": "_beginDate",
          "type": "string"
        },
        {
          "internalType": "string",
          "name": "_endDate",
          "type": "string"
        },
        {
          "internalType": "string",
          "name": "_description",
          "type": "string"
        }
      ],
      "name": "createExperience",
      "outputs": [],
      "stateMutability": "nonpayable",
      "type": "function"
    },
    {
      "inputs": [
        {
          "internalType": "enum UserManagement.UserType",
          "name": "_userType",
          "type": "uint8"
        },
        {
          "internalType": "string",
          "name": "_name",
          "type": "string"
        },
        {
          "internalType": "string",
          "name": "_email",
          "type": "string"
        },
        {
          "internalType": "string",
          "name": "_companyName",
          "type": "string"
        },
        {
          "internalType": "string",
          "name": "_kyc",
          "type": "string"
        },
        {
          "internalType": "string",
          "name": "_candidateInfo",
          "type": "string"
        }
      ],
      "name": "createUser",
      "outputs": [
        {
          "internalType": "uint256",
          "name": "",
          "type": "uint256"
        }
      ],
      "stateMutability": "nonpayable",
      "type": "function"
    },
    {
      "inputs": [],
      "name": "getAllPendingDegrees",
      "outputs": [
        {
          "components": [
            {
              "internalType": "uint256",
              "name": "id",
              "type": "uint256"
            },
            {
              "internalType": "uint256",
              "name": "userId",
              "type": "uint256"
            },
            {
              "internalType": "string",
              "name": "institution",
              "type": "string"
            },
            {
              "internalType": "string",
              "name": "title",
              "type": "string"
            },
            {
              "internalType": "string",
              "name": "year",
              "type": "string"
            },
            {
              "internalType": "string",
              "name": "status",
              "type": "string"
            }
          ],
          "internalType": "struct UserManagement.Degree[]",
          "name": "",
          "type": "tuple[]"
        }
      ],
      "stateMutability": "view",
      "type": "function",
      "constant": true
    },
    {
      "inputs": [],
      "name": "getAllPendingExperiences",
      "outputs": [
        {
          "components": [
            {
              "internalType": "uint256",
              "name": "id",
              "type": "uint256"
            },
            {
              "internalType": "uint256",
              "name": "userId",
              "type": "uint256"
            },
            {
              "internalType": "string",
              "name": "companyName",
              "type": "string"
            },
            {
              "internalType": "string",
              "name": "position",
              "type": "string"
            },
            {
              "internalType": "string",
              "name": "beginDate",
              "type": "string"
            },
            {
              "internalType": "string",
              "name": "endDate",
              "type": "string"
            },
            {
              "internalType": "string",
              "name": "description",
              "type": "string"
            },
            {
              "internalType": "string",
              "name": "status",
              "type": "string"
            }
          ],
          "internalType": "struct UserManagement.Experience[]",
          "name": "",
          "type": "tuple[]"
        }
      ],
      "stateMutability": "view",
      "type": "function",
      "constant": true
    },
    {
      "inputs": [
        {
          "internalType": "address",
          "name": "_address",
          "type": "address"
        }
      ],
      "name": "getUserByAddress",
      "outputs": [
        {
          "components": [
            {
              "internalType": "uint256",
              "name": "id",
              "type": "uint256"
            },
            {
              "internalType": "enum UserManagement.UserType",
              "name": "userType",
              "type": "uint8"
            },
            {
              "internalType": "string",
              "name": "name",
              "type": "string"
            },
            {
              "internalType": "string",
              "name": "email",
              "type": "string"
            },
            {
              "internalType": "string",
              "name": "companyName",
              "type": "string"
            },
            {
              "internalType": "string",
              "name": "kyc",
              "type": "string"
            },
            {
              "internalType": "string",
              "name": "candidateInfo",
              "type": "string"
            },
            {
              "internalType": "bool",
              "name": "isVerified",
              "type": "bool"
            },
            {
              "internalType": "address",
              "name": "walletAddress",
              "type": "address"
            }
          ],
          "internalType": "struct UserManagement.User",
          "name": "",
          "type": "tuple"
        }
      ],
      "stateMutability": "view",
      "type": "function",
      "constant": true
    },
    {
      "inputs": [
        {
          "internalType": "uint256",
          "name": "_id",
          "type": "uint256"
        }
      ],
      "name": "getUserById",
      "outputs": [
        {
          "components": [
            {
              "internalType": "uint256",
              "name": "id",
              "type": "uint256"
            },
            {
              "internalType": "enum UserManagement.UserType",
              "name": "userType",
              "type": "uint8"
            },
            {
              "internalType": "string",
              "name": "name",
              "type": "string"
            },
            {
              "internalType": "string",
              "name": "email",
              "type": "string"
            },
            {
              "internalType": "string",
              "name": "companyName",
              "type": "string"
            },
            {
              "internalType": "string",
              "name": "kyc",
              "type": "string"
            },
            {
              "internalType": "string",
              "name": "candidateInfo",
              "type": "string"
            },
            {
              "internalType": "bool",
              "name": "isVerified",
              "type": "bool"
            },
            {
              "internalType": "address",
              "name": "walletAddress",
              "type": "address"
            }
          ],
          "internalType": "struct UserManagement.User",
          "name": "",
          "type": "tuple"
        }
      ],
      "stateMutability": "view",
      "type": "function",
      "constant": true
    },
    {
      "inputs": [
        {
          "internalType": "uint256",
          "name": "_userId",
          "type": "uint256"
        }
      ],
      "name": "getUserDegrees",
      "outputs": [
        {
          "components": [
            {
              "internalType": "uint256",
              "name": "id",
              "type": "uint256"
            },
            {
              "internalType": "uint256",
              "name": "userId",
              "type": "uint256"
            },
            {
              "internalType": "string",
              "name": "institution",
              "type": "string"
            },
            {
              "internalType": "string",
              "name": "title",
              "type": "string"
            },
            {
              "internalType": "string",
              "name": "year",
              "type": "string"
            },
            {
              "internalType": "string",
              "name": "status",
              "type": "string"
            }
          ],
          "internalType": "struct UserManagement.Degree[]",
          "name": "",
          "type": "tuple[]"
        }
      ],
      "stateMutability": "view",
      "type": "function",
      "constant": true
    },
    {
      "inputs": [
        {
          "internalType": "uint256",
          "name": "_userId",
          "type": "uint256"
        }
      ],
      "name": "getUserExperiences",
      "outputs": [
        {
          "components": [
            {
              "internalType": "uint256",
              "name": "id",
              "type": "uint256"
            },
            {
              "internalType": "uint256",
              "name": "userId",
              "type": "uint256"
            },
            {
              "internalType": "string",
              "name": "companyName",
              "type": "string"
            },
            {
              "internalType": "string",
              "name": "position",
              "type": "string"
            },
            {
              "internalType": "string",
              "name": "beginDate",
              "type": "string"
            },
            {
              "internalType": "string",
              "name": "endDate",
              "type": "string"
            },
            {
              "internalType": "string",
              "name": "description",
              "type": "string"
            },
            {
              "internalType": "string",
              "name": "status",
              "type": "string"
            }
          ],
          "internalType": "struct UserManagement.Experience[]",
          "name": "",
          "type": "tuple[]"
        }
      ],
      "stateMutability": "view",
      "type": "function",
      "constant": true
    },
    {
      "inputs": [
        {
          "internalType": "address",
          "name": "_address",
          "type": "address"
        }
      ],
      "name": "getUserIdByAddress",
      "outputs": [
        {
          "internalType": "uint256",
          "name": "",
          "type": "uint256"
        }
      ],
      "stateMutability": "view",
      "type": "function",
      "constant": true
    },
    {
      "inputs": [],
      "name": "owner",
      "outputs": [
        {
          "internalType": "address",
          "name": "",
          "type": "address"
        }
      ],
      "stateMutability": "view",
      "type": "function",
      "constant": true
    },
    {
      "inputs": [
        {
          "internalType": "uint256",
          "name": "_degreeId",
          "type": "uint256"
        }
      ],
      "name": "rejectDegree",
      "outputs": [],
      "stateMutability": "nonpayable",
      "type": "function"
    },
    {
      "inputs": [
        {
          "internalType": "uint256",
          "name": "_experienceId",
          "type": "uint256"
        }
      ],
      "name": "rejectExperience",
      "outputs": [],
      "stateMutability": "nonpayable",
      "type": "function"
    },
    {
      "inputs": [],
      "name": "renounceOwnership",
      "outputs": [],
      "stateMutability": "nonpayable",
      "type": "function"
    },
    {
      "inputs": [
        {
          "internalType": "address",
          "name": "newOwner",
          "type": "address"
        }
      ],
      "name": "transferOwnership",
      "outputs": [],
      "stateMutability": "nonpayable",
      "type": "function"
    },
    {
      "inputs": [
        {
          "internalType": "uint256",
          "name": "_degreeId",
          "type": "uint256"
        }
      ],
      "name": "verifyDegree",
      "outputs": [],
      "stateMutability": "nonpayable",
      "type": "function"
    },
    {
      "inputs": [
        {
          "internalType": "uint256",
          "name": "_experienceId",
          "type": "uint256"
        }
      ],
      "name": "verifyExperience",
      "outputs": [],
      "stateMutability": "nonpayable",
      "type": "function"
    },
    {
      "inputs": [
        {
          "internalType": "uint256",
          "name": "tokenId",
          "type": "uint256"
        }
      ],
      "name": "getJobListing",
      "outputs": [
        {
          "components": [
            {
              "internalType": "string",
              "name": "title",
              "type": "string"
            },
            {
              "internalType": "string",
              "name": "description",
              "type": "string"
            },
            {
              "internalType": "uint256",
              "name": "salary",
              "type": "uint256"
            },
            {
              "internalType": "address",
              "name": "company",
              "type": "address"
            },
            {
              "internalType": "string",
              "name": "ipfsHash",
              "type": "string"
            },
            {
              "internalType": "uint256",
              "name": "tokenId",
              "type": "uint256"
            }
          ],
          "internalType": "struct JobListings.JobListing",
          "name": "",
          "type": "tuple"
        }
      ],
      "stateMutability": "view",
      "type": "function",
      "constant": true
    },
    {
      "inputs": [
        {
          "internalType": "uint256",
          "name": "tokenId",
          "type": "uint256"
        },
        {
          "internalType": "string",
          "name": "message",
          "type": "string"
        },
        {
          "internalType": "uint256",
          "name": "_userId",
          "type": "uint256"
        }
      ],
      "name": "applyForJob",
      "outputs": [],
      "stateMutability": "nonpayable",
      "type": "function"
    },
    {
      "inputs": [
        {
          "internalType": "uint256",
          "name": "tokenId",
          "type": "uint256"
        }
      ],
      "name": "getJobApplications",
      "outputs": [
        {
          "components": [
            {
              "internalType": "uint256",
              "name": "applicationId",
              "type": "uint256"
            },
            {
              "internalType": "uint256",
              "name": "jobListingId",
              "type": "uint256"
            },
            {
              "internalType": "uint256",
              "name": "candidateId",
              "type": "uint256"
            },
            {
              "internalType": "string",
              "name": "message",
              "type": "string"
            },
            {
              "internalType": "bool",
              "name": "isHired",
              "type": "bool"
            },
            {
              "internalType": "bool",
              "name": "isRejected",
              "type": "bool"
            }
          ],
          "internalType": "struct JobApplicationManagement.JobApplication[]",
          "name": "",
          "type": "tuple[]"
        }
      ],
      "stateMutability": "view",
      "type": "function",
      "constant": true
    },
    {
      "inputs": [
        {
          "internalType": "uint256",
          "name": "tokenId",
          "type": "uint256"
        },
        {
          "internalType": "uint256",
          "name": "applicationId",
          "type": "uint256"
        },
        {
          "internalType": "address",
          "name": "walletAddress",
          "type": "address"
        }
      ],
      "name": "hireCandidate",
      "outputs": [],
      "stateMutability": "nonpayable",
      "type": "function"
    },
    {
      "inputs": [
        {
          "internalType": "uint256",
          "name": "tokenId",
          "type": "uint256"
        },
        {
          "internalType": "uint256",
          "name": "applicationId",
          "type": "uint256"
        }
      ],
      "name": "rejectCandidate",
      "outputs": [],
      "stateMutability": "nonpayable",
      "type": "function"
    }
  ],
  "bytecode": "0x60806040523480156200001157600080fd5b5060405162005dbe38038062005dbe83398181016040528101906200003791906200026b565b620000696200005462000135640100000000026401000000009004565b6200013d640100000000026401000000009004565b82600d60006101000a81548173ffffffffffffffffffffffffffffffffffffffff021916908373ffffffffffffffffffffffffffffffffffffffff16021790555081600c60006101000a81548173ffffffffffffffffffffffffffffffffffffffff021916908373ffffffffffffffffffffffffffffffffffffffff16021790555080600e60006101000a81548173ffffffffffffffffffffffffffffffffffffffff021916908373ffffffffffffffffffffffffffffffffffffffff160217905550505050620002c7565b600033905090565b60008060009054906101000a900473ffffffffffffffffffffffffffffffffffffffff169050816000806101000a81548173ffffffffffffffffffffffffffffffffffffffff021916908373ffffffffffffffffffffffffffffffffffffffff1602179055508173ffffffffffffffffffffffffffffffffffffffff168173ffffffffffffffffffffffffffffffffffffffff167f8be0079c531659141344cd1fd0a4f28419497f9722a3daafe3b4186f6b6457e060405160405180910390a35050565b600080fd5b600073ffffffffffffffffffffffffffffffffffffffff82169050919050565b6000620002338262000206565b9050919050565b620002458162000226565b81146200025157600080fd5b50565b60008151905062000265816200023a565b92915050565b60008060006060848603121562000287576200028662000201565b5b6000620002978682870162000254565b9350506020620002aa8682870162000254565b9250506040620002bd8682870162000254565b9150509250925092565b615ae780620002d76000396000f3fe608060405234801561001057600080fd5b5060043610610190576000357c010000000000000000000000000000000000000000000000000000000090048063715018a6116100fb578063ca3a626f116100b4578063e89141c31161008e578063e89141c314610451578063ec49077614610481578063f2fde38b146104b1578063f5444b73146104cd57610190565b8063ca3a626f146103fd578063d1a6283814610419578063d9755b551461043557610190565b8063715018a61461033b578063747143b91461034557806375ee4f7714610375578063810f8c89146103915780638da5cb5b146103c15780639b380b96146103df57610190565b806341cf9d3b1161014d57806341cf9d3b14610253578063478a1b7014610271578063556c4118146102a157806356403776146102bd57806369c212f6146102db5780636ed6da9e1461030b57610190565b8063045a20d81461019557806309bef887146101b15780631c1e474e146101cd57806320f722a3146101eb5780632b3603f614610207578063385399f914610223575b600080fd5b6101af60048036038101906101aa9190613e6f565b6104eb565b005b6101cb60048036038101906101c69190613e6f565b6106e4565b005b6101d56108dd565b6040516101e29190613f2c565b60405180910390f35b61020560048036038101906102009190613e6f565b610916565b005b610221600480360381019061021c9190613fac565b610b0f565b005b61023d60048036038101906102389190613fff565b610eaf565b60405161024a919061403b565b60405180910390f35b61025b610efb565b6040516102689190614244565b60405180910390f35b61028b60048036038101906102869190613e6f565b61146b565b6040516102989190614244565b60405180910390f35b6102bb60048036038101906102b6919061439b565b61185e565b005b6102c5611b82565b6040516102d29190613f2c565b60405180910390f35b6102f560048036038101906102f09190613fff565b611bbb565b6040516103029190614624565b60405180910390f35b61032560048036038101906103209190613e6f565b611fa5565b6040516103329190614624565b60405180910390f35b610343612363565b005b61035f600480360381019061035a9190613e6f565b612377565b60405161036c9190614791565b60405180910390f35b61038f600480360381019061038a91906147b3565b6124cf565b005b6103ab60048036038101906103a69190613e6f565b6127bf565b6040516103b891906149ba565b60405180910390f35b6103c9612a8d565b6040516103d691906149eb565b60405180910390f35b6103e7612ab6565b6040516103f49190613f2c565b60405180910390f35b61041760048036038101906104129190614a06565b612aef565b005b610433600480360381019061042e9190614a46565b612e53565b005b61044f600480360381019061044a9190613e6f565b612fa1565b005b61046b60048036038101906104669190613e6f565b61319a565b6040516104789190614b4c565b60405180910390f35b61049b60048036038101906104969190614b93565b613266565b6040516104a8919061403b565b60405180910390f35b6104cb60048036038101906104c69190613fff565b61364f565b005b6104d56136d2565b6040516104e291906149ba565b60405180910390f35b6104f3613b1d565b60085481111580156105055750600081115b610544576040517f08c379a000000000000000000000000000000000000000000000000000000000815260040161053b90614cf8565b60405180910390fd5b6040518060400160405280600881526020017f52656a656374656400000000000000000000000000000000000000000000000081525060036000838152602001908152602001600020600501908161059c9190614f2a565b5060006003600083815260200190815260200160002090506000816001015490506000805b6005600084815260200190815260200160002080549050811015610637578460056000858152602001908152602001600020828154811061060557610604614ffc565b5b9060005260206000209060060201600001540361062457809150610637565b808061062f9061505a565b9150506105c1565b506040518060400160405280600881526020017f52656a656374656400000000000000000000000000000000000000000000000081525060056000848152602001908152602001600020828154811061069357610692614ffc565b5b906000526020600020906006020160050190816106b09190614f2a565b50837f25cc291d0296cc66f0944b3e3e3ddff3823dfa8cdcf23c185030bed44bebaf7760405160405180910390a250505050565b6106ec613b1d565b60095481111580156106fe5750600081115b61073d576040517f08c379a0000000000000000000000000000000000000000000000000000000008152600401610734906150ee565b60405180910390fd5b6040518060400160405280600681526020017f56616c69646500000000000000000000000000000000000000000000000000008152506004600083815260200190815260200160002060070190816107959190614f2a565b5060006004600083815260200190815260200160002090506000816001015490506000805b600660008481526020019081526020016000208054905081101561083057846006600085815260200190815260200160002082815481106107fe576107fd614ffc565b5b9060005260206000209060080201600001540361081d57809150610830565b80806108289061505a565b9150506107ba565b506040518060400160405280600681526020017f56616c696465000000000000000000000000000000000000000000000000000081525060066000848152602001908152602001600020828154811061088c5761088b614ffc565b5b906000526020600020906008020160070190816108a99190614f2a565b50837f84bc173a9ab45fcc0ef44ad2533cd243d3d736b332385d26315c54c4103aae5660405160405180910390a250505050565b6040518060400160405280600781526020017f50656e64696e670000000000000000000000000000000000000000000000000081525081565b61091e613b1d565b60085481111580156109305750600081115b61096f576040517f08c379a000000000000000000000000000000000000000000000000000000000815260040161096690614cf8565b60405180910390fd5b6040518060400160405280600681526020017f56616c69646500000000000000000000000000000000000000000000000000008152506003600083815260200190815260200160002060050190816109c79190614f2a565b5060006003600083815260200190815260200160002090506000816001015490506000805b6005600084815260200190815260200160002080549050811015610a625784600560008581526020019081526020016000208281548110610a3057610a2f614ffc565b5b90600052602060002090600602016000015403610a4f57809150610a62565b8080610a5a9061505a565b9150506109ec565b506040518060400160405280600681526020017f56616c6964650000000000000000000000000000000000000000000000000000815250600560008481526020019081526020016000208281548110610abe57610abd614ffc565b5b90600052602060002090600602016005019081610adb9190614f2a565b50837fc8eb74c192bcb4e8424553b878c92b7ffb7c982c0823dbf8603eb9bece44eea660405160405180910390a250505050565b6000600b6000858152602001908152602001600020600184610b31919061510e565b81548110610b4257610b41614ffc565b5b906000526020600020906005020190506000610b5d8561319a565b90503373ffffffffffffffffffffffffffffffffffffffff16816060015173ffffffffffffffffffffffffffffffffffffffff1614610bd1576040517f08c379a0000000000000000000000000000000000000000000000000000000008152600401610bc8906151b4565b60405180910390fd5b8160040160009054906101000a900460ff16158015610bff57508160040160019054906101000a900460ff16155b610c3e576040517f08c379a0000000000000000000000000000000000000000000000000000000008152600401610c3590615246565b60405180910390fd5b60018260040160006101000a81548160ff0219169083151502179055506000600b60008781526020019081526020016000208054905090506000600186610c85919061510e565b90505b600182610c95919061510e565b811015610db157600b6000888152602001908152602001600020600182610cbc9190615266565b81548110610ccd57610ccc614ffc565b5b9060005260206000209060050201600b60008981526020019081526020016000208281548110610d0057610cff614ffc565b5b906000526020600020906005020160008201548160000155600182015481600101556002820154816002015560038201816003019081610d4091906152b0565b506004820160009054906101000a900460ff168160040160006101000a81548160ff0219169083151502179055506004820160019054906101000a900460ff168160040160016101000a81548160ff0219169083151502179055509050508080610da99061505a565b915050610c88565b50600b6000878152602001908152602001600020805480610dd557610dd4615398565b5b600190038181906000526020600020906005020160008082016000905560018201600090556002820160009055600382016000610e129190613c8b565b6004820160006101000a81549060ff02191690556004820160016101000a81549060ff0219169055505090557f55b0985cced0195d7be31f1fe63ebe29fc2d398ee3d78578e4b458e1d624372b338588604051610e71939291906153c7565b60405180910390a184867faab531832690b89d89d813214a4ab5a57ab1593edc6729b1da3c68c10623a95f60405160405180910390a3505050505050565b6000600160008373ffffffffffffffffffffffffffffffffffffffff1673ffffffffffffffffffffffffffffffffffffffff168152602001908152602001600020600001549050919050565b6060610f05613b1d565b60006009549050600080600190505b828111610faa576040518060400160405280600781526020017f50656e64696e67000000000000000000000000000000000000000000000000008152508051906020012060046000838152602001908152602001600020600701604051610f7b91906154a1565b604051809103902003610f97578180610f939061505a565b9250505b8080610fa29061505a565b915050610f14565b5060008167ffffffffffffffff811115610fc757610fc6614270565b5b60405190808252806020026020018201604052801561100057816020015b610fed613ccb565b815260200190600190039081610fe55790505b509050600091506000600190505b838111611461576040518060400160405280600781526020017f50656e64696e6700000000000000000000000000000000000000000000000000815250805190602001206004600083815260200190815260200160002060070160405161107591906154a1565b60405180910390200361144e57600460008281526020019081526020016000206040518061010001604052908160008201548152602001600182015481526020016002820180546110c590614d47565b80601f01602080910402602001604051908101604052809291908181526020018280546110f190614d47565b801561113e5780601f106111135761010080835404028352916020019161113e565b820191906000526020600020905b81548152906001019060200180831161112157829003601f168201915b5050505050815260200160038201805461115790614d47565b80601f016020809104026020016040519081016040528092919081815260200182805461118390614d47565b80156111d05780601f106111a5576101008083540402835291602001916111d0565b820191906000526020600020905b8154815290600101906020018083116111b357829003601f168201915b505050505081526020016004820180546111e990614d47565b80601f016020809104026020016040519081016040528092919081815260200182805461121590614d47565b80156112625780601f1061123757610100808354040283529160200191611262565b820191906000526020600020905b81548152906001019060200180831161124557829003601f168201915b5050505050815260200160058201805461127b90614d47565b80601f01602080910402602001604051908101604052809291908181526020018280546112a790614d47565b80156112f45780601f106112c9576101008083540402835291602001916112f4565b820191906000526020600020905b8154815290600101906020018083116112d757829003601f168201915b5050505050815260200160068201805461130d90614d47565b80601f016020809104026020016040519081016040528092919081815260200182805461133990614d47565b80156113865780601f1061135b57610100808354040283529160200191611386565b820191906000526020600020905b81548152906001019060200180831161136957829003601f168201915b5050505050815260200160078201805461139f90614d47565b80601f01602080910402602001604051908101604052809291908181526020018280546113cb90614d47565b80156114185780601f106113ed57610100808354040283529160200191611418565b820191906000526020600020905b8154815290600101906020018083116113fb57829003601f168201915b50505050508152505082848151811061143457611433614ffc565b5b6020026020010181905250828061144a9061505a565b9350505b80806114599061505a565b91505061100e565b5080935050505090565b606060066000838152602001908152602001600020805480602002602001604051908101604052809291908181526020016000905b8282101561185357838290600052602060002090600802016040518061010001604052908160008201548152602001600182015481526020016002820180546114e890614d47565b80601f016020809104026020016040519081016040528092919081815260200182805461151490614d47565b80156115615780601f1061153657610100808354040283529160200191611561565b820191906000526020600020905b81548152906001019060200180831161154457829003601f168201915b5050505050815260200160038201805461157a90614d47565b80601f01602080910402602001604051908101604052809291908181526020018280546115a690614d47565b80156115f35780601f106115c8576101008083540402835291602001916115f3565b820191906000526020600020905b8154815290600101906020018083116115d657829003601f168201915b5050505050815260200160048201805461160c90614d47565b80601f016020809104026020016040519081016040528092919081815260200182805461163890614d47565b80156116855780601f1061165a57610100808354040283529160200191611685565b820191906000526020600020905b81548152906001019060200180831161166857829003601f168201915b5050505050815260200160058201805461169e90614d47565b80601f01602080910402602001604051908101604052809291908181526020018280546116ca90614d47565b80156117175780601f106116ec57610100808354040283529160200191611717565b820191906000526020600020905b8154815290600101906020018083116116fa57829003601f168201915b5050505050815260200160068201805461173090614d47565b80601f016020809104026020016040519081016040528092919081815260200182805461175c90614d47565b80156117a95780601f1061177e576101008083540402835291602001916117a9565b820191906000526020600020905b81548152906001019060200180831161178c57829003601f168201915b505050505081526020016007820180546117c290614d47565b80601f01602080910402602001604051908101604052809291908181526020018280546117ee90614d47565b801561183b5780601f106118105761010080835404028352916020019161183b565b820191906000526020600020905b81548152906001019060200180831161181e57829003601f168201915b505050505081525050815260200190600101906114a0565b505050509050919050565b60006001811115611872576118716144a2565b5b600160003373ffffffffffffffffffffffffffffffffffffffff1673ffffffffffffffffffffffffffffffffffffffff16815260200190815260200160002060010160009054906101000a900460ff1660018111156118d4576118d36144a2565b5b14611914576040517f08c379a000000000000000000000000000000000000000000000000000000000815260040161190b9061552a565b60405180910390fd5b600061191f33610eaf565b9050600960008154809291906119349061505a565b9190505550600060405180610100016040528060095481526020018381526020018881526020018781526020018681526020018581526020018481526020016040518060400160405280600781526020017f50656e64696e670000000000000000000000000000000000000000000000000081525081525090506006600083815260200190815260200160002081908060018154018082558091505060019003906000526020600020906008020160009091909190915060008201518160000155602082015181600101556040820151816002019081611a149190614f2a565b506060820151816003019081611a2a9190614f2a565b506080820151816004019081611a409190614f2a565b5060a0820151816005019081611a569190614f2a565b5060c0820151816006019081611a6c9190614f2a565b5060e0820151816007019081611a829190614f2a565b5050508060046000600954815260200190815260200160002060008201518160000155602082015181600101556040820151816002019081611ac49190614f2a565b506060820151816003019081611ada9190614f2a565b506080820151816004019081611af09190614f2a565b5060a0820151816005019081611b069190614f2a565b5060c0820151816006019081611b1c9190614f2a565b5060e0820151816007019081611b329190614f2a565b50905050816009547f4b1d4822484f42713e133dfaf55c75a174328ee4016fea7d0da90a5616c113008989898989604051611b71959493929190615596565b60405180910390a350505050505050565b6040518060400160405280600681526020017f56616c696465000000000000000000000000000000000000000000000000000081525081565b611bc3613d10565b600160008373ffffffffffffffffffffffffffffffffffffffff1673ffffffffffffffffffffffffffffffffffffffff16815260200190815260200160002060405180610120016040529081600082015481526020016001820160009054906101000a900460ff166001811115611c3d57611c3c6144a2565b5b6001811115611c4f57611c4e6144a2565b5b8152602001600282018054611c6390614d47565b80601f0160208091040260200160405190810160405280929190818152602001828054611c8f90614d47565b8015611cdc5780601f10611cb157610100808354040283529160200191611cdc565b820191906000526020600020905b815481529060010190602001808311611cbf57829003601f168201915b50505050508152602001600382018054611cf590614d47565b80601f0160208091040260200160405190810160405280929190818152602001828054611d2190614d47565b8015611d6e5780601f10611d4357610100808354040283529160200191611d6e565b820191906000526020600020905b815481529060010190602001808311611d5157829003601f168201915b50505050508152602001600482018054611d8790614d47565b80601f0160208091040260200160405190810160405280929190818152602001828054611db390614d47565b8015611e005780601f10611dd557610100808354040283529160200191611e00565b820191906000526020600020905b815481529060010190602001808311611de357829003601f168201915b50505050508152602001600582018054611e1990614d47565b80601f0160208091040260200160405190810160405280929190818152602001828054611e4590614d47565b8015611e925780601f10611e6757610100808354040283529160200191611e92565b820191906000526020600020905b815481529060010190602001808311611e7557829003601f168201915b50505050508152602001600682018054611eab90614d47565b80601f0160208091040260200160405190810160405280929190818152602001828054611ed790614d47565b8015611f245780601f10611ef957610100808354040283529160200191611f24565b820191906000526020600020905b815481529060010190602001808311611f0757829003601f168201915b505050505081526020016007820160009054906101000a900460ff161515151581526020016007820160019054906101000a900473ffffffffffffffffffffffffffffffffffffffff1673ffffffffffffffffffffffffffffffffffffffff1673ffffffffffffffffffffffffffffffffffffffff16815250509050919050565b611fad613d10565b6002600083815260200190815260200160002060405180610120016040529081600082015481526020016001820160009054906101000a900460ff166001811115611ffb57611ffa6144a2565b5b600181111561200d5761200c6144a2565b5b815260200160028201805461202190614d47565b80601f016020809104026020016040519081016040528092919081815260200182805461204d90614d47565b801561209a5780601f1061206f5761010080835404028352916020019161209a565b820191906000526020600020905b81548152906001019060200180831161207d57829003601f168201915b505050505081526020016003820180546120b390614d47565b80601f01602080910402602001604051908101604052809291908181526020018280546120df90614d47565b801561212c5780601f106121015761010080835404028352916020019161212c565b820191906000526020600020905b81548152906001019060200180831161210f57829003601f168201915b5050505050815260200160048201805461214590614d47565b80601f016020809104026020016040519081016040528092919081815260200182805461217190614d47565b80156121be5780601f10612193576101008083540402835291602001916121be565b820191906000526020600020905b8154815290600101906020018083116121a157829003601f168201915b505050505081526020016005820180546121d790614d47565b80601f016020809104026020016040519081016040528092919081815260200182805461220390614d47565b80156122505780601f1061222557610100808354040283529160200191612250565b820191906000526020600020905b81548152906001019060200180831161223357829003601f168201915b5050505050815260200160068201805461226990614d47565b80601f016020809104026020016040519081016040528092919081815260200182805461229590614d47565b80156122e25780601f106122b7576101008083540402835291602001916122e2565b820191906000526020600020905b8154815290600101906020018083116122c557829003601f168201915b505050505081526020016007820160009054906101000a900460ff161515151581526020016007820160019054906101000a900473ffffffffffffffffffffffffffffffffffffffff1673ffffffffffffffffffffffffffffffffffffffff1673ffffffffffffffffffffffffffffffffffffffff16815250509050919050565b61236b613b1d565b6123756000613b9b565b565b6060600b6000838152602001908152602001600020805480602002602001604051908101604052809291908181526020016000905b828210156124c457838290600052602060002090600502016040518060c00160405290816000820154815260200160018201548152602001600282015481526020016003820180546123fd90614d47565b80601f016020809104026020016040519081016040528092919081815260200182805461242990614d47565b80156124765780601f1061244b57610100808354040283529160200191612476565b820191906000526020600020905b81548152906001019060200180831161245957829003601f168201915b505050505081526020016004820160009054906101000a900460ff161515151581526020016004820160019054906101000a900460ff161515151581525050815260200190600101906123ac565b505050509050919050565b600060018111156124e3576124e26144a2565b5b600160003373ffffffffffffffffffffffffffffffffffffffff1673ffffffffffffffffffffffffffffffffffffffff16815260200190815260200160002060010160009054906101000a900460ff166001811115612545576125446144a2565b5b14612585576040517f08c379a000000000000000000000000000000000000000000000000000000000815260040161257c9061552a565b60405180910390fd5b600061259033610eaf565b9050600860008154809291906125a59061505a565b919050555060006040518060c0016040528060085481526020018381526020018681526020018581526020018481526020016040518060400160405280600781526020017f50656e64696e6700000000000000000000000000000000000000000000000000815250815250905060056000838152602001908152602001600020819080600181540180825580915050600190039060005260206000209060060201600090919091909150600082015181600001556020820151816001015560408201518160020190816126789190614f2a565b50606082015181600301908161268e9190614f2a565b5060808201518160040190816126a49190614f2a565b5060a08201518160050190816126ba9190614f2a565b50505080600360006008548152602001908152602001600020600082015181600001556020820151816001015560408201518160020190816126fc9190614f2a565b5060608201518160030190816127129190614f2a565b5060808201518160040190816127289190614f2a565b5060a082015181600501908161273e9190614f2a565b50905050816008547f47975248a192187947a7f318ae6e12b1604ef4c15fcefc67d9418e2f124c8e308787876040518060400160405280600781526020017f50656e64696e67000000000000000000000000000000000000000000000000008152506040516127b0949392919061561f565b60405180910390a35050505050565b606060056000838152602001908152602001600020805480602002602001604051908101604052809291908181526020016000905b82821015612a8257838290600052602060002090600602016040518060c0016040529081600082015481526020016001820154815260200160028201805461283b90614d47565b80601f016020809104026020016040519081016040528092919081815260200182805461286790614d47565b80156128b45780601f10612889576101008083540402835291602001916128b4565b820191906000526020600020905b81548152906001019060200180831161289757829003601f168201915b505050505081526020016003820180546128cd90614d47565b80601f01602080910402602001604051908101604052809291908181526020018280546128f990614d47565b80156129465780601f1061291b57610100808354040283529160200191612946565b820191906000526020600020905b81548152906001019060200180831161292957829003601f168201915b5050505050815260200160048201805461295f90614d47565b80601f016020809104026020016040519081016040528092919081815260200182805461298b90614d47565b80156129d85780601f106129ad576101008083540402835291602001916129d8565b820191906000526020600020905b8154815290600101906020018083116129bb57829003601f168201915b505050505081526020016005820180546129f190614d47565b80601f0160208091040260200160405190810160405280929190818152602001828054612a1d90614d47565b8015612a6a5780601f10612a3f57610100808354040283529160200191612a6a565b820191906000526020600020905b815481529060010190602001808311612a4d57829003601f168201915b505050505081525050815260200190600101906127f4565b505050509050919050565b60008060009054906101000a900473ffffffffffffffffffffffffffffffffffffffff16905090565b6040518060400160405280600881526020017f52656a656374656400000000000000000000000000000000000000000000000081525081565b6000600b6000848152602001908152602001600020600183612b11919061510e565b81548110612b2257612b21614ffc565b5b906000526020600020906005020190506000612b3d8461319a565b90503373ffffffffffffffffffffffffffffffffffffffff16816060015173ffffffffffffffffffffffffffffffffffffffff1614612bb1576040517f08c379a0000000000000000000000000000000000000000000000000000000008152600401612ba8906156f2565b60405180910390fd5b8160040160009054906101000a900460ff16158015612bdf57508160040160019054906101000a900460ff16155b612c1e576040517f08c379a0000000000000000000000000000000000000000000000000000000008152600401612c1590615246565b60405180910390fd5b60018260040160016101000a81548160ff0219169083151502179055506000600b60008681526020019081526020016000208054905090506000600185612c65919061510e565b90505b600182612c75919061510e565b811015612d9157600b6000878152602001908152602001600020600182612c9c9190615266565b81548110612cad57612cac614ffc565b5b9060005260206000209060050201600b60008881526020019081526020016000208281548110612ce057612cdf614ffc565b5b906000526020600020906005020160008201548160000155600182015481600101556002820154816002015560038201816003019081612d2091906152b0565b506004820160009054906101000a900460ff168160040160006101000a81548160ff0219169083151502179055506004820160019054906101000a900460ff168160040160016101000a81548160ff0219169083151502179055509050508080612d899061505a565b915050612c68565b50600b6000868152602001908152602001600020805480612db557612db4615398565b5b600190038181906000526020600020906005020160008082016000905560018201600090556002820160009055600382016000612df29190613c8b565b6004820160006101000a81549060ff02191690556004820160016101000a81549060ff02191690555050905583857f3a86f4526308fdf31df507eb6ff2d8f8b0cd082d6481086c0d74fecdb8e25fbd60405160405180910390a35050505050565b6000600b60008581526020019081526020016000209050612e74600a613c5f565b6000612e80600a613c75565b9050816040518060c001604052808381526020018781526020018581526020018681526020016000151581526020016000151581525090806001815401808255809150506001900390600052602060002090600502016000909190919091506000820151816000015560208201518160010155604082015181600201556060820151816003019081612f129190614f2a565b5060808201518160040160006101000a81548160ff02191690831515021790555060a08201518160040160016101000a81548160ff02191690831515021790555050503373ffffffffffffffffffffffffffffffffffffffff1685827f9ca4984c3198c7f7cee40728c939749687ac9a1cf8867920bd4aef9500d18b2560405160405180910390a45050505050565b612fa9613b1d565b6009548111158015612fbb5750600081115b612ffa576040517f08c379a0000000000000000000000000000000000000000000000000000000008152600401612ff1906150ee565b60405180910390fd5b6040518060400160405280600881526020017f52656a65637465640000000000000000000000000000000000000000000000008152506004600083815260200190815260200160002060070190816130529190614f2a565b5060006004600083815260200190815260200160002090506000816001015490506000805b60066000848152602001908152602001600020805490508110156130ed57846006600085815260200190815260200160002082815481106130bb576130ba614ffc565b5b906000526020600020906008020160000154036130da578091506130ed565b80806130e59061505a565b915050613077565b506040518060400160405280600881526020017f52656a656374656400000000000000000000000000000000000000000000000081525060066000848152602001908152602001600020828154811061314957613148614ffc565b5b906000526020600020906008020160070190816131669190614f2a565b50837fde2fd065ee33d326c3a3a85a65bbb1d65cb5c0af1cd6c4ea859c9c87338e1a0e60405160405180910390a250505050565b6131a2613d86565b600d60009054906101000a900473ffffffffffffffffffffffffffffffffffffffff1673ffffffffffffffffffffffffffffffffffffffff1663107a274a836040518263ffffffff167c0100000000000000000000000000000000000000000000000000000000028152600401613219919061403b565b600060405180830381865afa158015613236573d6000803e3d6000fd5b505050506040513d6000823e3d601f19601f8201168201806040525081019061325f91906158aa565b9050919050565b600080600181111561327b5761327a6144a2565b5b87600181111561328e5761328d6144a2565b5b14806132bd57506001808111156132a8576132a76144a2565b5b8760018111156132bb576132ba6144a2565b5b145b6132fc576040517f08c379a00000000000000000000000000000000000000000000000000000000081526004016132f39061593f565b60405180910390fd5b6007600081548092919061330f9061505a565b91905055506000604051806101200160405280600754815260200189600181111561333d5761333c6144a2565b5b81526020018881526020018781526020018681526020018581526020018481526020016000151581526020013373ffffffffffffffffffffffffffffffffffffffff16815250905080600160003373ffffffffffffffffffffffffffffffffffffffff1673ffffffffffffffffffffffffffffffffffffffff1681526020019081526020016000206000820151816000015560208201518160010160006101000a81548160ff021916908360018111156133fa576133f96144a2565b5b021790555060408201518160020190816134149190614f2a565b50606082015181600301908161342a9190614f2a565b5060808201518160040190816134409190614f2a565b5060a08201518160050190816134569190614f2a565b5060c082015181600601908161346c9190614f2a565b5060e08201518160070160006101000a81548160ff0219169083151502179055506101008201518160070160016101000a81548173ffffffffffffffffffffffffffffffffffffffff021916908373ffffffffffffffffffffffffffffffffffffffff160217905550905050806002600060075481526020019081526020016000206000820151816000015560208201518160010160006101000a81548160ff02191690836001811115613523576135226144a2565b5b0217905550604082015181600201908161353d9190614f2a565b5060608201518160030190816135539190614f2a565b5060808201518160040190816135699190614f2a565b5060a082015181600501908161357f9190614f2a565b5060c08201518160060190816135959190614f2a565b5060e08201518160070160006101000a81548160ff0219169083151502179055506101008201518160070160016101000a81548173ffffffffffffffffffffffffffffffffffffffff021916908373ffffffffffffffffffffffffffffffffffffffff1602179055509050506007547fe35820dc5e36f5504ecfae47734c266624fd7660b95f15c4882e440e1741b39d8989896040516136379392919061596e565b60405180910390a26007549150509695505050505050565b613657613b1d565b600073ffffffffffffffffffffffffffffffffffffffff168173ffffffffffffffffffffffffffffffffffffffff16036136c6576040517f08c379a00000000000000000000000000000000000000000000000000000000081526004016136bd90615a25565b60405180910390fd5b6136cf81613b9b565b50565b60606136dc613b1d565b60006008549050600080600190505b828111613781576040518060400160405280600781526020017f50656e64696e6700000000000000000000000000000000000000000000000000815250805190602001206003600083815260200190815260200160002060050160405161375291906154a1565b60405180910390200361376e57818061376a9061505a565b9250505b80806137799061505a565b9150506136eb565b5060008167ffffffffffffffff81111561379e5761379d614270565b5b6040519080825280602002602001820160405280156137d757816020015b6137c4613dd2565b8152602001906001900390816137bc5790505b509050600091506000600190505b838111613b13576040518060400160405280600781526020017f50656e64696e6700000000000000000000000000000000000000000000000000815250805190602001206003600083815260200190815260200160002060050160405161384c91906154a1565b604051809103902003613b0057600360008281526020019081526020016000206040518060c0016040529081600082015481526020016001820154815260200160028201805461389b90614d47565b80601f01602080910402602001604051908101604052809291908181526020018280546138c790614d47565b80156139145780601f106138e957610100808354040283529160200191613914565b820191906000526020600020905b8154815290600101906020018083116138f757829003601f168201915b5050505050815260200160038201805461392d90614d47565b80601f016020809104026020016040519081016040528092919081815260200182805461395990614d47565b80156139a65780601f1061397b576101008083540402835291602001916139a6565b820191906000526020600020905b81548152906001019060200180831161398957829003601f168201915b505050505081526020016004820180546139bf90614d47565b80601f01602080910402602001604051908101604052809291908181526020018280546139eb90614d47565b8015613a385780601f10613a0d57610100808354040283529160200191613a38565b820191906000526020600020905b815481529060010190602001808311613a1b57829003601f168201915b50505050508152602001600582018054613a5190614d47565b80601f0160208091040260200160405190810160405280929190818152602001828054613a7d90614d47565b8015613aca5780601f10613a9f57610100808354040283529160200191613aca565b820191906000526020600020905b815481529060010190602001808311613aad57829003601f168201915b505050505081525050828481518110613ae657613ae5614ffc565b5b60200260200101819052508280613afc9061505a565b9350505b8080613b0b9061505a565b9150506137e5565b5080935050505090565b613b25613c83565b73ffffffffffffffffffffffffffffffffffffffff16613b43612a8d565b73ffffffffffffffffffffffffffffffffffffffff1614613b99576040517f08c379a0000000000000000000000000000000000000000000000000000000008152600401613b9090615a91565b60405180910390fd5b565b60008060009054906101000a900473ffffffffffffffffffffffffffffffffffffffff169050816000806101000a81548173ffffffffffffffffffffffffffffffffffffffff021916908373ffffffffffffffffffffffffffffffffffffffff1602179055508173ffffffffffffffffffffffffffffffffffffffff168173ffffffffffffffffffffffffffffffffffffffff167f8be0079c531659141344cd1fd0a4f28419497f9722a3daafe3b4186f6b6457e060405160405180910390a35050565b6001816000016000828254019250508190555050565b600081600001549050919050565b600033905090565b508054613c9790614d47565b6000825580601f10613ca95750613cc8565b601f016020900490600052602060002090810190613cc79190613e08565b5b50565b60405180610100016040528060008152602001600081526020016060815260200160608152602001606081526020016060815260200160608152602001606081525090565b6040518061012001604052806000815260200160006001811115613d3757613d366144a2565b5b81526020016060815260200160608152602001606081526020016060815260200160608152602001600015158152602001600073ffffffffffffffffffffffffffffffffffffffff1681525090565b6040518060c00160405280606081526020016060815260200160008152602001600073ffffffffffffffffffffffffffffffffffffffff16815260200160608152602001600081525090565b6040518060c001604052806000815260200160008152602001606081526020016060815260200160608152602001606081525090565b5b80821115613e21576000816000905550600101613e09565b5090565b6000604051905090565b600080fd5b600080fd5b6000819050919050565b613e4c81613e39565b8114613e5757600080fd5b50565b600081359050613e6981613e43565b92915050565b600060208284031215613e8557613e84613e2f565b5b6000613e9384828501613e5a565b91505092915050565b600081519050919050565b600082825260208201905092915050565b60005b83811015613ed6578082015181840152602081019050613ebb565b60008484015250505050565b6000601f19601f8301169050919050565b6000613efe82613e9c565b613f088185613ea7565b9350613f18818560208601613eb8565b613f2181613ee2565b840191505092915050565b60006020820190508181036000830152613f468184613ef3565b905092915050565b600073ffffffffffffffffffffffffffffffffffffffff82169050919050565b6000613f7982613f4e565b9050919050565b613f8981613f6e565b8114613f9457600080fd5b50565b600081359050613fa681613f80565b92915050565b600080600060608486031215613fc557613fc4613e2f565b5b6000613fd386828701613e5a565b9350506020613fe486828701613e5a565b9250506040613ff586828701613f97565b9150509250925092565b60006020828403121561401557614014613e2f565b5b600061402384828501613f97565b91505092915050565b61403581613e39565b82525050565b6000602082019050614050600083018461402c565b92915050565b600081519050919050565b600082825260208201905092915050565b6000819050602082019050919050565b61408b81613e39565b82525050565b600082825260208201905092915050565b60006140ad82613e9c565b6140b78185614091565b93506140c7818560208601613eb8565b6140d081613ee2565b840191505092915050565b6000610100830160008301516140f46000860182614082565b5060208301516141076020860182614082565b506040830151848203604086015261411f82826140a2565b9150506060830151848203606086015261413982826140a2565b9150506080830151848203608086015261415382826140a2565b91505060a083015184820360a086015261416d82826140a2565b91505060c083015184820360c086015261418782826140a2565b91505060e083015184820360e08601526141a182826140a2565b9150508091505092915050565b60006141ba83836140db565b905092915050565b6000602082019050919050565b60006141da82614056565b6141e48185614061565b9350836020820285016141f685614072565b8060005b85811015614232578484038952815161421385826141ae565b945061421e836141c2565b925060208a019950506001810190506141fa565b50829750879550505050505092915050565b6000602082019050818103600083015261425e81846141cf565b905092915050565b600080fd5b600080fd5b7f4e487b7100000000000000000000000000000000000000000000000000000000600052604160045260246000fd5b6142a882613ee2565b810181811067ffffffffffffffff821117156142c7576142c6614270565b5b80604052505050565b60006142da613e25565b90506142e6828261429f565b919050565b600067ffffffffffffffff82111561430657614305614270565b5b61430f82613ee2565b9050602081019050919050565b82818337600083830152505050565b600061433e614339846142eb565b6142d0565b90508281526020810184848401111561435a5761435961426b565b5b61436584828561431c565b509392505050565b600082601f83011261438257614381614266565b5b813561439284826020860161432b565b91505092915050565b600080600080600060a086880312156143b7576143b6613e2f565b5b600086013567ffffffffffffffff8111156143d5576143d4613e34565b5b6143e18882890161436d565b955050602086013567ffffffffffffffff81111561440257614401613e34565b5b61440e8882890161436d565b945050604086013567ffffffffffffffff81111561442f5761442e613e34565b5b61443b8882890161436d565b935050606086013567ffffffffffffffff81111561445c5761445b613e34565b5b6144688882890161436d565b925050608086013567ffffffffffffffff81111561448957614488613e34565b5b6144958882890161436d565b9150509295509295909350565b7f4e487b7100000000000000000000000000000000000000000000000000000000600052602160045260246000fd5b600281106144e2576144e16144a2565b5b50565b60008190506144f3826144d1565b919050565b6000614503826144e5565b9050919050565b614513816144f8565b82525050565b60008115159050919050565b61452e81614519565b82525050565b61453d81613f6e565b82525050565b60006101208301600083015161455c6000860182614082565b50602083015161456f602086018261450a565b506040830151848203604086015261458782826140a2565b915050606083015184820360608601526145a182826140a2565b915050608083015184820360808601526145bb82826140a2565b91505060a083015184820360a08601526145d582826140a2565b91505060c083015184820360c08601526145ef82826140a2565b91505060e083015161460460e0860182614525565b50610100830151614619610100860182614534565b508091505092915050565b6000602082019050818103600083015261463e8184614543565b905092915050565b600081519050919050565b600082825260208201905092915050565b6000819050602082019050919050565b600060c08301600083015161468a6000860182614082565b50602083015161469d6020860182614082565b5060408301516146b06040860182614082565b50606083015184820360608601526146c882826140a2565b91505060808301516146dd6080860182614525565b5060a08301516146f060a0860182614525565b508091505092915050565b60006147078383614672565b905092915050565b6000602082019050919050565b600061472782614646565b6147318185614651565b93508360208202850161474385614662565b8060005b8581101561477f578484038952815161476085826146fb565b945061476b8361470f565b925060208a01995050600181019050614747565b50829750879550505050505092915050565b600060208201905081810360008301526147ab818461471c565b905092915050565b6000806000606084860312156147cc576147cb613e2f565b5b600084013567ffffffffffffffff8111156147ea576147e9613e34565b5b6147f68682870161436d565b935050602084013567ffffffffffffffff81111561481757614816613e34565b5b6148238682870161436d565b925050604084013567ffffffffffffffff81111561484457614843613e34565b5b6148508682870161436d565b9150509250925092565b600081519050919050565b600082825260208201905092915050565b6000819050602082019050919050565b600060c08301600083015161489e6000860182614082565b5060208301516148b16020860182614082565b50604083015184820360408601526148c982826140a2565b915050606083015184820360608601526148e382826140a2565b915050608083015184820360808601526148fd82826140a2565b91505060a083015184820360a086015261491782826140a2565b9150508091505092915050565b60006149308383614886565b905092915050565b6000602082019050919050565b60006149508261485a565b61495a8185614865565b93508360208202850161496c85614876565b8060005b858110156149a857848403895281516149898582614924565b945061499483614938565b925060208a01995050600181019050614970565b50829750879550505050505092915050565b600060208201905081810360008301526149d48184614945565b905092915050565b6149e581613f6e565b82525050565b6000602082019050614a0060008301846149dc565b92915050565b60008060408385031215614a1d57614a1c613e2f565b5b6000614a2b85828601613e5a565b9250506020614a3c85828601613e5a565b9150509250929050565b600080600060608486031215614a5f57614a5e613e2f565b5b6000614a6d86828701613e5a565b935050602084013567ffffffffffffffff811115614a8e57614a8d613e34565b5b614a9a8682870161436d565b9250506040614aab86828701613e5a565b9150509250925092565b600060c0830160008301518482036000860152614ad282826140a2565b91505060208301518482036020860152614aec82826140a2565b9150506040830151614b016040860182614082565b506060830151614b146060860182614534565b5060808301518482036080860152614b2c82826140a2565b91505060a0830151614b4160a0860182614082565b508091505092915050565b60006020820190508181036000830152614b668184614ab5565b905092915050565b60028110614b7b57600080fd5b50565b600081359050614b8d81614b6e565b92915050565b60008060008060008060c08789031215614bb057614baf613e2f565b5b6000614bbe89828a01614b7e565b965050602087013567ffffffffffffffff811115614bdf57614bde613e34565b5b614beb89828a0161436d565b955050604087013567ffffffffffffffff811115614c0c57614c0b613e34565b5b614c1889828a0161436d565b945050606087013567ffffffffffffffff811115614c3957614c38613e34565b5b614c4589828a0161436d565b935050608087013567ffffffffffffffff811115614c6657614c65613e34565b5b614c7289828a0161436d565b92505060a087013567ffffffffffffffff811115614c9357614c92613e34565b5b614c9f89828a0161436d565b9150509295509295509295565b7f44656772656520494420646f6573206e6f742065786973740000000000000000600082015250565b6000614ce2601883613ea7565b9150614ced82614cac565b602082019050919050565b60006020820190508181036000830152614d1181614cd5565b9050919050565b7f4e487b7100000000000000000000000000000000000000000000000000000000600052602260045260246000fd5b60006002820490506001821680614d5f57607f821691505b602082108103614d7257614d71614d18565b5b50919050565b60008190508160005260206000209050919050565b60006020601f8301049050919050565b60008160020a8302905092915050565b600060088302614ddd7fffffffffffffffffffffffffffffffffffffffffffffffffffffffffffffffff82614d9d565b614de78683614d9d565b95508019841693508086168417925050509392505050565b6000819050919050565b6000614e24614e1f614e1a84613e39565b614dff565b613e39565b9050919050565b6000819050919050565b614e3e83614e09565b614e52614e4a82614e2b565b848454614dad565b825550505050565b600090565b614e67614e5a565b614e72818484614e35565b505050565b5b81811015614e9657614e8b600082614e5f565b600181019050614e78565b5050565b601f821115614edb57614eac81614d78565b614eb584614d8d565b81016020851015614ec4578190505b614ed8614ed085614d8d565b830182614e77565b50505b505050565b60008160020a8304905092915050565b6000614f0160001984600802614ee0565b1980831691505092915050565b6000614f1a8383614ef0565b9150826002028217905092915050565b614f3382613e9c565b67ffffffffffffffff811115614f4c57614f4b614270565b5b614f568254614d47565b614f61828285614e9a565b600060209050601f831160018114614f945760008415614f82578287015190505b614f8c8582614f0e565b865550614ff4565b601f198416614fa286614d78565b60005b82811015614fca57848901518255600182019150602085019450602081019050614fa5565b86831015614fe75784890151614fe3601f891682614ef0565b8355505b6001600288020188555050505b505050505050565b7f4e487b7100000000000000000000000000000000000000000000000000000000600052603260045260246000fd5b7f4e487b7100000000000000000000000000000000000000000000000000000000600052601160045260246000fd5b600061506582613e39565b91507fffffffffffffffffffffffffffffffffffffffffffffffffffffffffffffffff82036150975761509661502b565b5b600182019050919050565b7f457870657269656e636520494420646f6573206e6f7420657869737400000000600082015250565b60006150d8601c83613ea7565b91506150e3826150a2565b602082019050919050565b60006020820190508181036000830152615107816150cb565b9050919050565b600061511982613e39565b915061512483613e39565b925082820390508181111561513c5761513b61502b565b5b92915050565b7f4f6e6c7920636f6d70616e6965732063616e20686972652063616e646964617460008201527f6573000000000000000000000000000000000000000000000000000000000000602082015250565b600061519e602283613ea7565b91506151a982615142565b604082019050919050565b600060208201905081810360008301526151cd81615191565b9050919050565b7f43616e6469646174652068617320616c7265616479206265656e20686972656460008201527f206f722072656a65637465640000000000000000000000000000000000000000602082015250565b6000615230602c83613ea7565b915061523b826151d4565b604082019050919050565b6000602082019050818103600083015261525f81615223565b9050919050565b600061527182613e39565b915061527c83613e39565b92508282019050808211156152945761529361502b565b5b92915050565b6000815490506152a981614d47565b9050919050565b8181036152be575050615396565b6152c78261529a565b67ffffffffffffffff8111156152e0576152df614270565b5b6152ea8254614d47565b6152f5828285614e9a565b6000601f8311600181146153245760008415615312578287015490505b61531c8582614f0e565b86555061538f565b601f19841661533287614d78565b965061533d86614d78565b60005b8281101561536557848901548255600182019150600185019450602081019050615340565b86831015615382578489015461537e601f891682614ef0565b8355505b6001600288020188555050505b5050505050505b565b7f4e487b7100000000000000000000000000000000000000000000000000000000600052603160045260246000fd5b60006060820190506153dc60008301866149dc565b6153e960208301856149dc565b6153f6604083018461402c565b949350505050565b600081905092915050565b60008190508160005260206000209050919050565b6000815461542b81614d47565b61543581866153fe565b94506001821660008114615450576001811461546557615498565b60ff1983168652811515820286019350615498565b61546e85615409565b60005b8381101561549057815481890152600182019150602081019050615471565b838801955050505b50505092915050565b60006154ad828461541e565b915081905092915050565b7f4f6e6c79204a6f625365656b6572732063616e2061636365737320746869732060008201527f66756e6374696f6e616c69747900000000000000000000000000000000000000602082015250565b6000615514602d83613ea7565b915061551f826154b8565b604082019050919050565b6000602082019050818103600083015261554381615507565b9050919050565b7f50656e64696e6700000000000000000000000000000000000000000000000000600082015250565b6000615580600783613ea7565b915061558b8261554a565b602082019050919050565b600060c08201905081810360008301526155b08188613ef3565b905081810360208301526155c48187613ef3565b905081810360408301526155d88186613ef3565b905081810360608301526155ec8185613ef3565b905081810360808301526156008184613ef3565b905081810360a083015261561381615573565b90509695505050505050565b600060808201905081810360008301526156398187613ef3565b9050818103602083015261564d8186613ef3565b905081810360408301526156618185613ef3565b905081810360608301526156758184613ef3565b905095945050505050565b7f4f6e6c7920636f6d70616e6965732063616e2072656a6563742063616e64696460008201527f6174657300000000000000000000000000000000000000000000000000000000602082015250565b60006156dc602483613ea7565b91506156e782615680565b604082019050919050565b6000602082019050818103600083015261570b816156cf565b9050919050565b600080fd5b600080fd5b600061572f61572a846142eb565b6142d0565b90508281526020810184848401111561574b5761574a61426b565b5b615756848285613eb8565b509392505050565b600082601f83011261577357615772614266565b5b815161578384826020860161571c565b91505092915050565b60008151905061579b81613e43565b92915050565b6000815190506157b081613f80565b92915050565b600060c082840312156157cc576157cb615712565b5b6157d660c06142d0565b9050600082015167ffffffffffffffff8111156157f6576157f5615717565b5b6158028482850161575e565b600083015250602082015167ffffffffffffffff81111561582657615825615717565b5b6158328482850161575e565b60208301525060406158468482850161578c565b604083015250606061585a848285016157a1565b606083015250608082015167ffffffffffffffff81111561587e5761587d615717565b5b61588a8482850161575e565b60808301525060a061589e8482850161578c565b60a08301525092915050565b6000602082840312156158c0576158bf613e2f565b5b600082015167ffffffffffffffff8111156158de576158dd613e34565b5b6158ea848285016157b6565b91505092915050565b7f496e76616c696420757365722074797065000000000000000000000000000000600082015250565b6000615929601183613ea7565b9150615934826158f3565b602082019050919050565b600060208201905081810360008301526159588161591c565b9050919050565b615968816144f8565b82525050565b6000606082019050615983600083018661595f565b81810360208301526159958185613ef3565b905081810360408301526159a98184613ef3565b9050949350505050565b7f4f776e61626c653a206e6577206f776e657220697320746865207a65726f206160008201527f6464726573730000000000000000000000000000000000000000000000000000602082015250565b6000615a0f602683613ea7565b9150615a1a826159b3565b604082019050919050565b60006020820190508181036000830152615a3e81615a02565b9050919050565b7f4f776e61626c653a2063616c6c6572206973206e6f7420746865206f776e6572600082015250565b6000615a7b602083613ea7565b9150615a8682615a45565b602082019050919050565b60006020820190508181036000830152615aaa81615a6e565b905091905056fea264697066735822122029cdf3ae3e21ca481a4440c79de2a3650f872f8e64a8c4c4418a24ecd67cccf164736f6c63430008130033",
  "immutableReferences": {},
  "source": "// SPDX-License-Identifier: MIT\npragma solidity 0.8.19;\n\nimport \"./UserManagement.sol\";\nimport \"./JobListings.sol\";\nimport \"../node_modules/@openzeppelin/contracts/token/ERC20/IERC20.sol\";\nimport \"../node_modules/@openzeppelin/contracts/token/ERC721/IERC721.sol\";\n\ncontract JobApplicationManagement is UserManagement {\n    using Counters for Counters.Counter;\n    Counters.Counter private _applicationId;\n    struct JobApplication {\n        uint256 applicationId;\n        uint256 jobListingId;\n        uint256 candidateId;\n        string message;\n        bool isHired;\n        bool isRejected;\n    }\n\n    mapping(uint256 => JobApplication[]) private _jobApplications;\n    event nftTransfert(address sender, address walletAddress, uint256 tokenId);\n    IERC20 private _token;\n    JobListings private _jobListings;\n    IERC721 private _jobListingsManagement;\n\n    event JobApplicationCreated(\n        uint256 indexed applicationId,\n        uint256 indexed tokenId,\n        address indexed candidate\n    );\n\n    event CandidateHired(\n        uint256 indexed tokenId,\n        uint256 indexed applicationId\n    );\n\n    event CandidateRejected(\n        uint256 indexed tokenId,\n        uint256 indexed applicationId\n    );\n\n    event eventTest(address msgSender, address walletAddress, uint256 tokenId);\n\n    constructor(\n        address jobListingsContractAddress,\n        address tokenAddress,\n        address jobListingsManagementAddress\n    ) {\n        _jobListings = JobListings(jobListingsContractAddress);\n        _token = IERC20(tokenAddress);\n        _jobListingsManagement = IERC721(jobListingsManagementAddress);\n    }\n\n    function getJobListing(\n        uint256 tokenId\n    ) public view returns (JobListings.JobListing memory) {\n        return _jobListings.getListing(tokenId);\n    }\n\n    function applyForJob(\n        uint256 tokenId,\n        string memory message,\n        uint256 _userId\n    ) public {\n        JobApplication[] storage applications = _jobApplications[tokenId];\n        _applicationId.increment();\n        uint256 applicationId = _applicationId.current();\n\n        applications.push(\n            JobApplication(\n                applicationId,\n                tokenId,\n                _userId,\n                message,\n                false,\n                false\n            )\n        );\n\n        emit JobApplicationCreated(applicationId, tokenId, msg.sender);\n    }\n\n    function getJobApplications(\n        uint256 tokenId\n    ) public view returns (JobApplication[] memory) {\n        return _jobApplications[tokenId];\n    }\n\n    function hireCandidate(\n        uint256 tokenId,\n        uint256 applicationId,\n        address walletAddress\n    ) public {\n        JobApplication storage application = _jobApplications[tokenId][\n            applicationId - 1\n        ];\n\n        JobListings.JobListing memory listing = getJobListing(tokenId);\n        require(\n            listing.company == msg.sender,\n            \"Only companies can hire candidates\"\n        );\n\n        require(\n            !application.isHired && !application.isRejected,\n            \"Candidate has already been hired or rejected\"\n        );\n\n        application.isHired = true;\n\n        // Retirer le candidat accept de la liste des candidats\n        uint256 applicationsLength = _jobApplications[tokenId].length;\n        for (uint256 i = applicationId - 1; i < applicationsLength - 1; i++) {\n            _jobApplications[tokenId][i] = _jobApplications[tokenId][i + 1];\n        }\n        _jobApplications[tokenId].pop();\n\n        // Transfrer le NFT au candidat embauch\n        emit eventTest(msg.sender, walletAddress, tokenId);\n        // _jobListingsManagement.transferFrom(msg.sender, walletAddress, tokenId);\n\n        emit CandidateHired(tokenId, applicationId);\n    }\n\n    function rejectCandidate(uint256 tokenId, uint256 applicationId) public {\n        JobApplication storage application = _jobApplications[tokenId][\n            applicationId - 1\n        ];\n\n        JobListings.JobListing memory listing = getJobListing(tokenId);\n        require(\n            listing.company == msg.sender,\n            \"Only companies can reject candidates\"\n        );\n\n        require(\n            !application.isHired && !application.isRejected,\n            \"Candidate has already been hired or rejected\"\n        );\n\n        application.isRejected = true;\n\n        // Retirer le candidat accept de la liste des candidats\n        uint256 applicationsLength = _jobApplications[tokenId].length;\n        for (uint256 i = applicationId - 1; i < applicationsLength - 1; i++) {\n            _jobApplications[tokenId][i] = _jobApplications[tokenId][i + 1];\n        }\n        _jobApplications[tokenId].pop();\n\n        emit CandidateRejected(tokenId, applicationId);\n    }\n}\n",
  "sourcePath": "/home/arnaud/Alyra/jobInChain/truffle/contracts/JobApplicationManagement.sol",
  "compiler": {
    "name": "solc",
    "version": "0.8.19+commit.7dd6d404.Emscripten.clang"
  },
  "schemaVersion": "3.4.11",
  "updatedAt": "2023-04-09T15:58:24.942Z",
  "networkType": "ethereum",
  "devdoc": {
    "kind": "dev",
    "methods": {
      "owner()": {
        "details": "Returns the address of the current owner."
      },
      "renounceOwnership()": {
        "details": "Leaves the contract without owner. It will not be possible to call `onlyOwner` functions anymore. Can only be called by the current owner. NOTE: Renouncing ownership will leave the contract without an owner, thereby removing any functionality that is only available to the owner."
      },
      "transferOwnership(address)": {
        "details": "Transfers ownership of the contract to a new account (`newOwner`). Can only be called by the current owner."
      }
    },
    "version": 1
  },
  "userdoc": {
    "kind": "user",
    "methods": {},
    "version": 1
  }
}