{
  "contractName": "JobInChainTokenSale",
  "abi": [
    {
      "inputs": [
        {
          "internalType": "contract JobInChainToken",
          "name": "_token",
          "type": "address"
        },
        {
          "internalType": "uint256",
          "name": "_rate",
          "type": "uint256"
        },
        {
          "internalType": "uint256",
          "name": "_initialSupply",
          "type": "uint256"
        }
      ],
      "stateMutability": "nonpayable",
      "type": "constructor"
    },
    {
      "anonymous": false,
      "inputs": [
        {
          "indexed": true,
          "internalType": "uint256",
          "name": "id",
          "type": "uint256"
        },
        {
          "indexed": true,
          "internalType": "uint256",
          "name": "userId",
          "type": "uint256"
        },
        {
          "indexed": false,
          "internalType": "string",
          "name": "institution",
          "type": "string"
        },
        {
          "indexed": false,
          "internalType": "string",
          "name": "title",
          "type": "string"
        },
        {
          "indexed": false,
          "internalType": "string",
          "name": "year",
          "type": "string"
        },
        {
          "indexed": false,
          "internalType": "string",
          "name": "status",
          "type": "string"
        }
      ],
      "name": "DegreeCreated",
      "type": "event"
    },
    {
      "anonymous": false,
      "inputs": [
        {
          "indexed": true,
          "internalType": "uint256",
          "name": "id",
          "type": "uint256"
        }
      ],
      "name": "DegreeRejected",
      "type": "event"
    },
    {
      "anonymous": false,
      "inputs": [
        {
          "indexed": true,
          "internalType": "uint256",
          "name": "id",
          "type": "uint256"
        }
      ],
      "name": "DegreeVerified",
      "type": "event"
    },
    {
      "anonymous": false,
      "inputs": [
        {
          "indexed": true,
          "internalType": "uint256",
          "name": "id",
          "type": "uint256"
        },
        {
          "indexed": true,
          "internalType": "uint256",
          "name": "userId",
          "type": "uint256"
        },
        {
          "indexed": false,
          "internalType": "string",
          "name": "companyName",
          "type": "string"
        },
        {
          "indexed": false,
          "internalType": "string",
          "name": "position",
          "type": "string"
        },
        {
          "indexed": false,
          "internalType": "string",
          "name": "beginDate",
          "type": "string"
        },
        {
          "indexed": false,
          "internalType": "string",
          "name": "endDate",
          "type": "string"
        },
        {
          "indexed": false,
          "internalType": "string",
          "name": "description",
          "type": "string"
        },
        {
          "indexed": false,
          "internalType": "string",
          "name": "status",
          "type": "string"
        }
      ],
      "name": "ExperienceCreated",
      "type": "event"
    },
    {
      "anonymous": false,
      "inputs": [
        {
          "indexed": true,
          "internalType": "uint256",
          "name": "id",
          "type": "uint256"
        }
      ],
      "name": "ExperienceRejected",
      "type": "event"
    },
    {
      "anonymous": false,
      "inputs": [
        {
          "indexed": true,
          "internalType": "uint256",
          "name": "id",
          "type": "uint256"
        }
      ],
      "name": "ExperienceVerified",
      "type": "event"
    },
    {
      "anonymous": false,
      "inputs": [
        {
          "indexed": true,
          "internalType": "address",
          "name": "previousOwner",
          "type": "address"
        },
        {
          "indexed": true,
          "internalType": "address",
          "name": "newOwner",
          "type": "address"
        }
      ],
      "name": "OwnershipTransferred",
      "type": "event"
    },
    {
      "anonymous": false,
      "inputs": [
        {
          "indexed": true,
          "internalType": "uint256",
          "name": "id",
          "type": "uint256"
        },
        {
          "indexed": false,
          "internalType": "enum UserManagement.UserType",
          "name": "userType",
          "type": "uint8"
        },
        {
          "indexed": false,
          "internalType": "string",
          "name": "name",
          "type": "string"
        },
        {
          "indexed": false,
          "internalType": "string",
          "name": "email",
          "type": "string"
        }
      ],
      "name": "UserCreated",
      "type": "event"
    },
    {
      "inputs": [],
      "name": "PENDING_STATUS",
      "outputs": [
        {
          "internalType": "string",
          "name": "",
          "type": "string"
        }
      ],
      "stateMutability": "view",
      "type": "function",
      "constant": true
    },
    {
      "inputs": [],
      "name": "REJECTED_STATUS",
      "outputs": [
        {
          "internalType": "string",
          "name": "",
          "type": "string"
        }
      ],
      "stateMutability": "view",
      "type": "function",
      "constant": true
    },
    {
      "inputs": [],
      "name": "VALID_STATUS",
      "outputs": [
        {
          "internalType": "string",
          "name": "",
          "type": "string"
        }
      ],
      "stateMutability": "view",
      "type": "function",
      "constant": true
    },
    {
      "inputs": [
        {
          "internalType": "string",
          "name": "_institution",
          "type": "string"
        },
        {
          "internalType": "string",
          "name": "_title",
          "type": "string"
        },
        {
          "internalType": "string",
          "name": "_year",
          "type": "string"
        }
      ],
      "name": "createDegree",
      "outputs": [],
      "stateMutability": "nonpayable",
      "type": "function"
    },
    {
      "inputs": [
        {
          "internalType": "string",
          "name": "_companyName",
          "type": "string"
        },
        {
          "internalType": "string",
          "name": "_position",
          "type": "string"
        },
        {
          "internalType": "string",
          "name": "_beginDate",
          "type": "string"
        },
        {
          "internalType": "string",
          "name": "_endDate",
          "type": "string"
        },
        {
          "internalType": "string",
          "name": "_description",
          "type": "string"
        }
      ],
      "name": "createExperience",
      "outputs": [],
      "stateMutability": "nonpayable",
      "type": "function"
    },
    {
      "inputs": [
        {
          "internalType": "enum UserManagement.UserType",
          "name": "_userType",
          "type": "uint8"
        },
        {
          "internalType": "string",
          "name": "_name",
          "type": "string"
        },
        {
          "internalType": "string",
          "name": "_email",
          "type": "string"
        },
        {
          "internalType": "string",
          "name": "_companyName",
          "type": "string"
        },
        {
          "internalType": "string",
          "name": "_kyc",
          "type": "string"
        },
        {
          "internalType": "string",
          "name": "_candidateInfo",
          "type": "string"
        }
      ],
      "name": "createUser",
      "outputs": [
        {
          "internalType": "uint256",
          "name": "",
          "type": "uint256"
        }
      ],
      "stateMutability": "nonpayable",
      "type": "function"
    },
    {
      "inputs": [],
      "name": "getAllPendingDegrees",
      "outputs": [
        {
          "components": [
            {
              "internalType": "uint256",
              "name": "id",
              "type": "uint256"
            },
            {
              "internalType": "uint256",
              "name": "userId",
              "type": "uint256"
            },
            {
              "internalType": "string",
              "name": "institution",
              "type": "string"
            },
            {
              "internalType": "string",
              "name": "title",
              "type": "string"
            },
            {
              "internalType": "string",
              "name": "year",
              "type": "string"
            },
            {
              "internalType": "string",
              "name": "status",
              "type": "string"
            }
          ],
          "internalType": "struct UserManagement.Degree[]",
          "name": "",
          "type": "tuple[]"
        }
      ],
      "stateMutability": "view",
      "type": "function",
      "constant": true
    },
    {
      "inputs": [],
      "name": "getAllPendingExperiences",
      "outputs": [
        {
          "components": [
            {
              "internalType": "uint256",
              "name": "id",
              "type": "uint256"
            },
            {
              "internalType": "uint256",
              "name": "userId",
              "type": "uint256"
            },
            {
              "internalType": "string",
              "name": "companyName",
              "type": "string"
            },
            {
              "internalType": "string",
              "name": "position",
              "type": "string"
            },
            {
              "internalType": "string",
              "name": "beginDate",
              "type": "string"
            },
            {
              "internalType": "string",
              "name": "endDate",
              "type": "string"
            },
            {
              "internalType": "string",
              "name": "description",
              "type": "string"
            },
            {
              "internalType": "string",
              "name": "status",
              "type": "string"
            }
          ],
          "internalType": "struct UserManagement.Experience[]",
          "name": "",
          "type": "tuple[]"
        }
      ],
      "stateMutability": "view",
      "type": "function",
      "constant": true
    },
    {
      "inputs": [
        {
          "internalType": "address",
          "name": "_address",
          "type": "address"
        }
      ],
      "name": "getUserByAddress",
      "outputs": [
        {
          "components": [
            {
              "internalType": "uint256",
              "name": "id",
              "type": "uint256"
            },
            {
              "internalType": "enum UserManagement.UserType",
              "name": "userType",
              "type": "uint8"
            },
            {
              "internalType": "string",
              "name": "name",
              "type": "string"
            },
            {
              "internalType": "string",
              "name": "email",
              "type": "string"
            },
            {
              "internalType": "string",
              "name": "companyName",
              "type": "string"
            },
            {
              "internalType": "string",
              "name": "kyc",
              "type": "string"
            },
            {
              "internalType": "string",
              "name": "candidateInfo",
              "type": "string"
            },
            {
              "internalType": "bool",
              "name": "isVerified",
              "type": "bool"
            },
            {
              "internalType": "address",
              "name": "walletAddress",
              "type": "address"
            }
          ],
          "internalType": "struct UserManagement.User",
          "name": "",
          "type": "tuple"
        }
      ],
      "stateMutability": "view",
      "type": "function",
      "constant": true
    },
    {
      "inputs": [
        {
          "internalType": "uint256",
          "name": "_id",
          "type": "uint256"
        }
      ],
      "name": "getUserById",
      "outputs": [
        {
          "components": [
            {
              "internalType": "uint256",
              "name": "id",
              "type": "uint256"
            },
            {
              "internalType": "enum UserManagement.UserType",
              "name": "userType",
              "type": "uint8"
            },
            {
              "internalType": "string",
              "name": "name",
              "type": "string"
            },
            {
              "internalType": "string",
              "name": "email",
              "type": "string"
            },
            {
              "internalType": "string",
              "name": "companyName",
              "type": "string"
            },
            {
              "internalType": "string",
              "name": "kyc",
              "type": "string"
            },
            {
              "internalType": "string",
              "name": "candidateInfo",
              "type": "string"
            },
            {
              "internalType": "bool",
              "name": "isVerified",
              "type": "bool"
            },
            {
              "internalType": "address",
              "name": "walletAddress",
              "type": "address"
            }
          ],
          "internalType": "struct UserManagement.User",
          "name": "",
          "type": "tuple"
        }
      ],
      "stateMutability": "view",
      "type": "function",
      "constant": true
    },
    {
      "inputs": [
        {
          "internalType": "uint256",
          "name": "_userId",
          "type": "uint256"
        }
      ],
      "name": "getUserDegrees",
      "outputs": [
        {
          "components": [
            {
              "internalType": "uint256",
              "name": "id",
              "type": "uint256"
            },
            {
              "internalType": "uint256",
              "name": "userId",
              "type": "uint256"
            },
            {
              "internalType": "string",
              "name": "institution",
              "type": "string"
            },
            {
              "internalType": "string",
              "name": "title",
              "type": "string"
            },
            {
              "internalType": "string",
              "name": "year",
              "type": "string"
            },
            {
              "internalType": "string",
              "name": "status",
              "type": "string"
            }
          ],
          "internalType": "struct UserManagement.Degree[]",
          "name": "",
          "type": "tuple[]"
        }
      ],
      "stateMutability": "view",
      "type": "function",
      "constant": true
    },
    {
      "inputs": [
        {
          "internalType": "uint256",
          "name": "_userId",
          "type": "uint256"
        }
      ],
      "name": "getUserExperiences",
      "outputs": [
        {
          "components": [
            {
              "internalType": "uint256",
              "name": "id",
              "type": "uint256"
            },
            {
              "internalType": "uint256",
              "name": "userId",
              "type": "uint256"
            },
            {
              "internalType": "string",
              "name": "companyName",
              "type": "string"
            },
            {
              "internalType": "string",
              "name": "position",
              "type": "string"
            },
            {
              "internalType": "string",
              "name": "beginDate",
              "type": "string"
            },
            {
              "internalType": "string",
              "name": "endDate",
              "type": "string"
            },
            {
              "internalType": "string",
              "name": "description",
              "type": "string"
            },
            {
              "internalType": "string",
              "name": "status",
              "type": "string"
            }
          ],
          "internalType": "struct UserManagement.Experience[]",
          "name": "",
          "type": "tuple[]"
        }
      ],
      "stateMutability": "view",
      "type": "function",
      "constant": true
    },
    {
      "inputs": [
        {
          "internalType": "address",
          "name": "_address",
          "type": "address"
        }
      ],
      "name": "getUserIdByAddress",
      "outputs": [
        {
          "internalType": "uint256",
          "name": "",
          "type": "uint256"
        }
      ],
      "stateMutability": "view",
      "type": "function",
      "constant": true
    },
    {
      "inputs": [],
      "name": "owner",
      "outputs": [
        {
          "internalType": "address",
          "name": "",
          "type": "address"
        }
      ],
      "stateMutability": "view",
      "type": "function",
      "constant": true
    },
    {
      "inputs": [
        {
          "internalType": "uint256",
          "name": "_degreeId",
          "type": "uint256"
        }
      ],
      "name": "rejectDegree",
      "outputs": [],
      "stateMutability": "nonpayable",
      "type": "function"
    },
    {
      "inputs": [
        {
          "internalType": "uint256",
          "name": "_experienceId",
          "type": "uint256"
        }
      ],
      "name": "rejectExperience",
      "outputs": [],
      "stateMutability": "nonpayable",
      "type": "function"
    },
    {
      "inputs": [],
      "name": "renounceOwnership",
      "outputs": [],
      "stateMutability": "nonpayable",
      "type": "function"
    },
    {
      "inputs": [
        {
          "internalType": "address",
          "name": "newOwner",
          "type": "address"
        }
      ],
      "name": "transferOwnership",
      "outputs": [],
      "stateMutability": "nonpayable",
      "type": "function"
    },
    {
      "inputs": [
        {
          "internalType": "uint256",
          "name": "_degreeId",
          "type": "uint256"
        }
      ],
      "name": "verifyDegree",
      "outputs": [],
      "stateMutability": "nonpayable",
      "type": "function"
    },
    {
      "inputs": [
        {
          "internalType": "uint256",
          "name": "_experienceId",
          "type": "uint256"
        }
      ],
      "name": "verifyExperience",
      "outputs": [],
      "stateMutability": "nonpayable",
      "type": "function"
    },
    {
      "inputs": [],
      "name": "buyTokens",
      "outputs": [],
      "stateMutability": "payable",
      "type": "function",
      "payable": true
    },
    {
      "inputs": [
        {
          "internalType": "uint256",
          "name": "_newRate",
          "type": "uint256"
        }
      ],
      "name": "updateRate",
      "outputs": [],
      "stateMutability": "nonpayable",
      "type": "function"
    },
    {
      "inputs": [],
      "name": "withdrawTokens",
      "outputs": [],
      "stateMutability": "nonpayable",
      "type": "function"
    },
    {
      "inputs": [
        {
          "internalType": "address",
          "name": "_employee",
          "type": "address"
        },
        {
          "internalType": "uint256",
          "name": "_amount",
          "type": "uint256"
        }
      ],
      "name": "grantTokens",
      "outputs": [],
      "stateMutability": "nonpayable",
      "type": "function"
    }
  ],
  "bytecode": "0x60806040523480156200001157600080fd5b5060405162007d2a38038062007d2a833981810160405281019062000037919062000387565b6200006962000054620001f4640100000000026401000000009004565b620001fc640100000000026401000000009004565b600073ffffffffffffffffffffffffffffffffffffffff168373ffffffffffffffffffffffffffffffffffffffff1603620000db576040517f08c379a0000000000000000000000000000000000000000000000000000000008152600401620000d29062000444565b60405180910390fd5b6000821162000121576040517f08c379a00000000000000000000000000000000000000000000000000000000081526004016200011890620004b6565b60405180910390fd5b82600a60006101000a81548173ffffffffffffffffffffffffffffffffffffffff021916908373ffffffffffffffffffffffffffffffffffffffff16021790555081600b8190555080600d81905550600d546040516200018190620002c0565b6200018d9190620004e9565b604051809103906000f080158015620001aa573d6000803e3d6000fd5b50600a60006101000a81548173ffffffffffffffffffffffffffffffffffffffff021916908373ffffffffffffffffffffffffffffffffffffffff16021790555050505062000506565b600033905090565b60008060009054906101000a900473ffffffffffffffffffffffffffffffffffffffff169050816000806101000a81548173ffffffffffffffffffffffffffffffffffffffff021916908373ffffffffffffffffffffffffffffffffffffffff1602179055508173ffffffffffffffffffffffffffffffffffffffff168173ffffffffffffffffffffffffffffffffffffffff167f8be0079c531659141344cd1fd0a4f28419497f9722a3daafe3b4186f6b6457e060405160405180910390a35050565b6124df806200584b83390190565b600080fd5b600073ffffffffffffffffffffffffffffffffffffffff82169050919050565b60006200030082620002d3565b9050919050565b60006200031482620002f3565b9050919050565b620003268162000307565b81146200033257600080fd5b50565b60008151905062000346816200031b565b92915050565b6000819050919050565b62000361816200034c565b81146200036d57600080fd5b50565b600081519050620003818162000356565b92915050565b600080600060608486031215620003a357620003a2620002ce565b5b6000620003b38682870162000335565b9350506020620003c68682870162000370565b9250506040620003d98682870162000370565b9150509250925092565b600082825260208201905092915050565b7f546f6b656e2061646472657373206973206e6f742076616c69642e0000000000600082015250565b60006200042c601b83620003e3565b91506200043982620003f4565b602082019050919050565b600060208201905081810360008301526200045f816200041d565b9050919050565b7f526174652073686f756c642062652067726561746572207468616e20302e0000600082015250565b60006200049e601e83620003e3565b9150620004ab8262000466565b602082019050919050565b60006020820190508181036000830152620004d1816200048f565b9050919050565b620004e3816200034c565b82525050565b6000602082019050620005006000830184620004d8565b92915050565b61533580620005166000396000f3fe608060405260043610610168576000357c010000000000000000000000000000000000000000000000000000000090048063715018a6116100d3578063c94e643c1161008c578063c94e643c14610499578063d0febe4c146104c2578063d9755b55146104cc578063ec490776146104f5578063f2fde38b14610532578063f5444b731461055b57610168565b8063715018a6146103af57806375ee4f77146103c6578063810f8c89146103ef5780638d8f2adb1461042c5780638da5cb5b146104435780639b380b961461046e57610168565b8063478a1b7011610125578063478a1b701461027b578063556c4118146102b857806356403776146102e157806369c212f61461030c57806369ea1771146103495780636ed6da9e1461037257610168565b8063045a20d81461016d57806309bef887146101965780631c1e474e146101bf57806320f722a3146101ea578063385399f91461021357806341cf9d3b14610250575b600080fd5b34801561017957600080fd5b50610194600480360381019061018f9190613ac2565b610586565b005b3480156101a257600080fd5b506101bd60048036038101906101b89190613ac2565b61077f565b005b3480156101cb57600080fd5b506101d4610978565b6040516101e19190613b7f565b60405180910390f35b3480156101f657600080fd5b50610211600480360381019061020c9190613ac2565b6109b1565b005b34801561021f57600080fd5b5061023a60048036038101906102359190613bff565b610baa565b6040516102479190613c3b565b60405180910390f35b34801561025c57600080fd5b50610265610bf6565b6040516102729190613e44565b60405180910390f35b34801561028757600080fd5b506102a2600480360381019061029d9190613ac2565b611166565b6040516102af9190613e44565b60405180910390f35b3480156102c457600080fd5b506102df60048036038101906102da9190613f9b565b611559565b005b3480156102ed57600080fd5b506102f661187d565b6040516103039190613b7f565b60405180910390f35b34801561031857600080fd5b50610333600480360381019061032e9190613bff565b6118b6565b6040516103409190614224565b60405180910390f35b34801561035557600080fd5b50610370600480360381019061036b9190613ac2565b611ca0565b005b34801561037e57600080fd5b5061039960048036038101906103949190613ac2565b611cf5565b6040516103a69190614224565b60405180910390f35b3480156103bb57600080fd5b506103c46120b3565b005b3480156103d257600080fd5b506103ed60048036038101906103e89190614246565b6120c7565b005b3480156103fb57600080fd5b5061041660048036038101906104119190613ac2565b6123b7565b604051610423919061444d565b60405180910390f35b34801561043857600080fd5b50610441612685565b005b34801561044f57600080fd5b50610458612853565b604051610465919061447e565b60405180910390f35b34801561047a57600080fd5b5061048361287c565b6040516104909190613b7f565b60405180910390f35b3480156104a557600080fd5b506104c060048036038101906104bb9190614499565b6128b5565b005b6104ca612b30565b005b3480156104d857600080fd5b506104f360048036038101906104ee9190613ac2565b612d8d565b005b34801561050157600080fd5b5061051c600480360381019061051791906144fe565b612f86565b6040516105299190613c3b565b60405180910390f35b34801561053e57600080fd5b5061055960048036038101906105549190613bff565b61336f565b005b34801561056757600080fd5b506105706133f2565b60405161057d919061444d565b60405180910390f35b61058e61383d565b60085481111580156105a05750600081115b6105df576040517f08c379a00000000000000000000000000000000000000000000000000000000081526004016105d690614663565b60405180910390fd5b6040518060400160405280600881526020017f52656a65637465640000000000000000000000000000000000000000000000008152506003600083815260200190815260200160002060050190816106379190614895565b5060006003600083815260200190815260200160002090506000816001015490506000805b60056000848152602001908152602001600020805490508110156106d257846005600085815260200190815260200160002082815481106106a05761069f614967565b5b906000526020600020906006020160000154036106bf578091506106d2565b80806106ca906149c5565b91505061065c565b506040518060400160405280600881526020017f52656a656374656400000000000000000000000000000000000000000000000081525060056000848152602001908152602001600020828154811061072e5761072d614967565b5b9060005260206000209060060201600501908161074b9190614895565b50837f25cc291d0296cc66f0944b3e3e3ddff3823dfa8cdcf23c185030bed44bebaf7760405160405180910390a250505050565b61078761383d565b60095481111580156107995750600081115b6107d8576040517f08c379a00000000000000000000000000000000000000000000000000000000081526004016107cf90614a59565b60405180910390fd5b6040518060400160405280600681526020017f56616c69646500000000000000000000000000000000000000000000000000008152506004600083815260200190815260200160002060070190816108309190614895565b5060006004600083815260200190815260200160002090506000816001015490506000805b60066000848152602001908152602001600020805490508110156108cb578460066000858152602001908152602001600020828154811061089957610898614967565b5b906000526020600020906008020160000154036108b8578091506108cb565b80806108c3906149c5565b915050610855565b506040518060400160405280600681526020017f56616c696465000000000000000000000000000000000000000000000000000081525060066000848152602001908152602001600020828154811061092757610926614967565b5b906000526020600020906008020160070190816109449190614895565b50837f84bc173a9ab45fcc0ef44ad2533cd243d3d736b332385d26315c54c4103aae5660405160405180910390a250505050565b6040518060400160405280600781526020017f50656e64696e670000000000000000000000000000000000000000000000000081525081565b6109b961383d565b60085481111580156109cb5750600081115b610a0a576040517f08c379a0000000000000000000000000000000000000000000000000000000008152600401610a0190614663565b60405180910390fd5b6040518060400160405280600681526020017f56616c6964650000000000000000000000000000000000000000000000000000815250600360008381526020019081526020016000206005019081610a629190614895565b5060006003600083815260200190815260200160002090506000816001015490506000805b6005600084815260200190815260200160002080549050811015610afd5784600560008581526020019081526020016000208281548110610acb57610aca614967565b5b90600052602060002090600602016000015403610aea57809150610afd565b8080610af5906149c5565b915050610a87565b506040518060400160405280600681526020017f56616c6964650000000000000000000000000000000000000000000000000000815250600560008481526020019081526020016000208281548110610b5957610b58614967565b5b90600052602060002090600602016005019081610b769190614895565b50837fc8eb74c192bcb4e8424553b878c92b7ffb7c982c0823dbf8603eb9bece44eea660405160405180910390a250505050565b6000600160008373ffffffffffffffffffffffffffffffffffffffff1673ffffffffffffffffffffffffffffffffffffffff168152602001908152602001600020600001549050919050565b6060610c0061383d565b60006009549050600080600190505b828111610ca5576040518060400160405280600781526020017f50656e64696e67000000000000000000000000000000000000000000000000008152508051906020012060046000838152602001908152602001600020600701604051610c769190614b1c565b604051809103902003610c92578180610c8e906149c5565b9250505b8080610c9d906149c5565b915050610c0f565b5060008167ffffffffffffffff811115610cc257610cc1613e70565b5b604051908082528060200260200182016040528015610cfb57816020015b610ce8613987565b815260200190600190039081610ce05790505b509050600091506000600190505b83811161115c576040518060400160405280600781526020017f50656e64696e67000000000000000000000000000000000000000000000000008152508051906020012060046000838152602001908152602001600020600701604051610d709190614b1c565b6040518091039020036111495760046000828152602001908152602001600020604051806101000160405290816000820154815260200160018201548152602001600282018054610dc0906146b2565b80601f0160208091040260200160405190810160405280929190818152602001828054610dec906146b2565b8015610e395780601f10610e0e57610100808354040283529160200191610e39565b820191906000526020600020905b815481529060010190602001808311610e1c57829003601f168201915b50505050508152602001600382018054610e52906146b2565b80601f0160208091040260200160405190810160405280929190818152602001828054610e7e906146b2565b8015610ecb5780601f10610ea057610100808354040283529160200191610ecb565b820191906000526020600020905b815481529060010190602001808311610eae57829003601f168201915b50505050508152602001600482018054610ee4906146b2565b80601f0160208091040260200160405190810160405280929190818152602001828054610f10906146b2565b8015610f5d5780601f10610f3257610100808354040283529160200191610f5d565b820191906000526020600020905b815481529060010190602001808311610f4057829003601f168201915b50505050508152602001600582018054610f76906146b2565b80601f0160208091040260200160405190810160405280929190818152602001828054610fa2906146b2565b8015610fef5780601f10610fc457610100808354040283529160200191610fef565b820191906000526020600020905b815481529060010190602001808311610fd257829003601f168201915b50505050508152602001600682018054611008906146b2565b80601f0160208091040260200160405190810160405280929190818152602001828054611034906146b2565b80156110815780601f1061105657610100808354040283529160200191611081565b820191906000526020600020905b81548152906001019060200180831161106457829003601f168201915b5050505050815260200160078201805461109a906146b2565b80601f01602080910402602001604051908101604052809291908181526020018280546110c6906146b2565b80156111135780601f106110e857610100808354040283529160200191611113565b820191906000526020600020905b8154815290600101906020018083116110f657829003601f168201915b50505050508152505082848151811061112f5761112e614967565b5b60200260200101819052508280611145906149c5565b9350505b8080611154906149c5565b915050610d09565b5080935050505090565b606060066000838152602001908152602001600020805480602002602001604051908101604052809291908181526020016000905b8282101561154e57838290600052602060002090600802016040518061010001604052908160008201548152602001600182015481526020016002820180546111e3906146b2565b80601f016020809104026020016040519081016040528092919081815260200182805461120f906146b2565b801561125c5780601f106112315761010080835404028352916020019161125c565b820191906000526020600020905b81548152906001019060200180831161123f57829003601f168201915b50505050508152602001600382018054611275906146b2565b80601f01602080910402602001604051908101604052809291908181526020018280546112a1906146b2565b80156112ee5780601f106112c3576101008083540402835291602001916112ee565b820191906000526020600020905b8154815290600101906020018083116112d157829003601f168201915b50505050508152602001600482018054611307906146b2565b80601f0160208091040260200160405190810160405280929190818152602001828054611333906146b2565b80156113805780601f1061135557610100808354040283529160200191611380565b820191906000526020600020905b81548152906001019060200180831161136357829003601f168201915b50505050508152602001600582018054611399906146b2565b80601f01602080910402602001604051908101604052809291908181526020018280546113c5906146b2565b80156114125780601f106113e757610100808354040283529160200191611412565b820191906000526020600020905b8154815290600101906020018083116113f557829003601f168201915b5050505050815260200160068201805461142b906146b2565b80601f0160208091040260200160405190810160405280929190818152602001828054611457906146b2565b80156114a45780601f10611479576101008083540402835291602001916114a4565b820191906000526020600020905b81548152906001019060200180831161148757829003601f168201915b505050505081526020016007820180546114bd906146b2565b80601f01602080910402602001604051908101604052809291908181526020018280546114e9906146b2565b80156115365780601f1061150b57610100808354040283529160200191611536565b820191906000526020600020905b81548152906001019060200180831161151957829003601f168201915b5050505050815250508152602001906001019061119b565b505050509050919050565b6000600181111561156d5761156c6140a2565b5b600160003373ffffffffffffffffffffffffffffffffffffffff1673ffffffffffffffffffffffffffffffffffffffff16815260200190815260200160002060010160009054906101000a900460ff1660018111156115cf576115ce6140a2565b5b1461160f576040517f08c379a000000000000000000000000000000000000000000000000000000000815260040161160690614ba5565b60405180910390fd5b600061161a33610baa565b90506009600081548092919061162f906149c5565b9190505550600060405180610100016040528060095481526020018381526020018881526020018781526020018681526020018581526020018481526020016040518060400160405280600781526020017f50656e64696e67000000000000000000000000000000000000000000000000008152508152509050600660008381526020019081526020016000208190806001815401808255809150506001900390600052602060002090600802016000909190919091506000820151816000015560208201518160010155604082015181600201908161170f9190614895565b5060608201518160030190816117259190614895565b50608082015181600401908161173b9190614895565b5060a08201518160050190816117519190614895565b5060c08201518160060190816117679190614895565b5060e082015181600701908161177d9190614895565b50505080600460006009548152602001908152602001600020600082015181600001556020820151816001015560408201518160020190816117bf9190614895565b5060608201518160030190816117d59190614895565b5060808201518160040190816117eb9190614895565b5060a08201518160050190816118019190614895565b5060c08201518160060190816118179190614895565b5060e082015181600701908161182d9190614895565b50905050816009547f4b1d4822484f42713e133dfaf55c75a174328ee4016fea7d0da90a5616c11300898989898960405161186c959493929190614c11565b60405180910390a350505050505050565b6040518060400160405280600681526020017f56616c696465000000000000000000000000000000000000000000000000000081525081565b6118be6139cc565b600160008373ffffffffffffffffffffffffffffffffffffffff1673ffffffffffffffffffffffffffffffffffffffff16815260200190815260200160002060405180610120016040529081600082015481526020016001820160009054906101000a900460ff166001811115611938576119376140a2565b5b600181111561194a576119496140a2565b5b815260200160028201805461195e906146b2565b80601f016020809104026020016040519081016040528092919081815260200182805461198a906146b2565b80156119d75780601f106119ac576101008083540402835291602001916119d7565b820191906000526020600020905b8154815290600101906020018083116119ba57829003601f168201915b505050505081526020016003820180546119f0906146b2565b80601f0160208091040260200160405190810160405280929190818152602001828054611a1c906146b2565b8015611a695780601f10611a3e57610100808354040283529160200191611a69565b820191906000526020600020905b815481529060010190602001808311611a4c57829003601f168201915b50505050508152602001600482018054611a82906146b2565b80601f0160208091040260200160405190810160405280929190818152602001828054611aae906146b2565b8015611afb5780601f10611ad057610100808354040283529160200191611afb565b820191906000526020600020905b815481529060010190602001808311611ade57829003601f168201915b50505050508152602001600582018054611b14906146b2565b80601f0160208091040260200160405190810160405280929190818152602001828054611b40906146b2565b8015611b8d5780601f10611b6257610100808354040283529160200191611b8d565b820191906000526020600020905b815481529060010190602001808311611b7057829003601f168201915b50505050508152602001600682018054611ba6906146b2565b80601f0160208091040260200160405190810160405280929190818152602001828054611bd2906146b2565b8015611c1f5780601f10611bf457610100808354040283529160200191611c1f565b820191906000526020600020905b815481529060010190602001808311611c0257829003601f168201915b505050505081526020016007820160009054906101000a900460ff161515151581526020016007820160019054906101000a900473ffffffffffffffffffffffffffffffffffffffff1673ffffffffffffffffffffffffffffffffffffffff1673ffffffffffffffffffffffffffffffffffffffff16815250509050919050565b611ca861383d565b60008111611ceb576040517f08c379a0000000000000000000000000000000000000000000000000000000008152600401611ce290614ce6565b60405180910390fd5b80600b8190555050565b611cfd6139cc565b6002600083815260200190815260200160002060405180610120016040529081600082015481526020016001820160009054906101000a900460ff166001811115611d4b57611d4a6140a2565b5b6001811115611d5d57611d5c6140a2565b5b8152602001600282018054611d71906146b2565b80601f0160208091040260200160405190810160405280929190818152602001828054611d9d906146b2565b8015611dea5780601f10611dbf57610100808354040283529160200191611dea565b820191906000526020600020905b815481529060010190602001808311611dcd57829003601f168201915b50505050508152602001600382018054611e03906146b2565b80601f0160208091040260200160405190810160405280929190818152602001828054611e2f906146b2565b8015611e7c5780601f10611e5157610100808354040283529160200191611e7c565b820191906000526020600020905b815481529060010190602001808311611e5f57829003601f168201915b50505050508152602001600482018054611e95906146b2565b80601f0160208091040260200160405190810160405280929190818152602001828054611ec1906146b2565b8015611f0e5780601f10611ee357610100808354040283529160200191611f0e565b820191906000526020600020905b815481529060010190602001808311611ef157829003601f168201915b50505050508152602001600582018054611f27906146b2565b80601f0160208091040260200160405190810160405280929190818152602001828054611f53906146b2565b8015611fa05780601f10611f7557610100808354040283529160200191611fa0565b820191906000526020600020905b815481529060010190602001808311611f8357829003601f168201915b50505050508152602001600682018054611fb9906146b2565b80601f0160208091040260200160405190810160405280929190818152602001828054611fe5906146b2565b80156120325780601f1061200757610100808354040283529160200191612032565b820191906000526020600020905b81548152906001019060200180831161201557829003601f168201915b505050505081526020016007820160009054906101000a900460ff161515151581526020016007820160019054906101000a900473ffffffffffffffffffffffffffffffffffffffff1673ffffffffffffffffffffffffffffffffffffffff1673ffffffffffffffffffffffffffffffffffffffff16815250509050919050565b6120bb61383d565b6120c560006138bb565b565b600060018111156120db576120da6140a2565b5b600160003373ffffffffffffffffffffffffffffffffffffffff1673ffffffffffffffffffffffffffffffffffffffff16815260200190815260200160002060010160009054906101000a900460ff16600181111561213d5761213c6140a2565b5b1461217d576040517f08c379a000000000000000000000000000000000000000000000000000000000815260040161217490614ba5565b60405180910390fd5b600061218833610baa565b90506008600081548092919061219d906149c5565b919050555060006040518060c0016040528060085481526020018381526020018681526020018581526020018481526020016040518060400160405280600781526020017f50656e64696e6700000000000000000000000000000000000000000000000000815250815250905060056000838152602001908152602001600020819080600181540180825580915050600190039060005260206000209060060201600090919091909150600082015181600001556020820151816001015560408201518160020190816122709190614895565b5060608201518160030190816122869190614895565b50608082015181600401908161229c9190614895565b5060a08201518160050190816122b29190614895565b50505080600360006008548152602001908152602001600020600082015181600001556020820151816001015560408201518160020190816122f49190614895565b50606082015181600301908161230a9190614895565b5060808201518160040190816123209190614895565b5060a08201518160050190816123369190614895565b50905050816008547f47975248a192187947a7f318ae6e12b1604ef4c15fcefc67d9418e2f124c8e308787876040518060400160405280600781526020017f50656e64696e67000000000000000000000000000000000000000000000000008152506040516123a89493929190614d06565b60405180910390a35050505050565b606060056000838152602001908152602001600020805480602002602001604051908101604052809291908181526020016000905b8282101561267a57838290600052602060002090600602016040518060c00160405290816000820154815260200160018201548152602001600282018054612433906146b2565b80601f016020809104026020016040519081016040528092919081815260200182805461245f906146b2565b80156124ac5780601f10612481576101008083540402835291602001916124ac565b820191906000526020600020905b81548152906001019060200180831161248f57829003601f168201915b505050505081526020016003820180546124c5906146b2565b80601f01602080910402602001604051908101604052809291908181526020018280546124f1906146b2565b801561253e5780601f106125135761010080835404028352916020019161253e565b820191906000526020600020905b81548152906001019060200180831161252157829003601f168201915b50505050508152602001600482018054612557906146b2565b80601f0160208091040260200160405190810160405280929190818152602001828054612583906146b2565b80156125d05780601f106125a5576101008083540402835291602001916125d0565b820191906000526020600020905b8154815290600101906020018083116125b357829003601f168201915b505050505081526020016005820180546125e9906146b2565b80601f0160208091040260200160405190810160405280929190818152602001828054612615906146b2565b80156126625780601f1061263757610100808354040283529160200191612662565b820191906000526020600020905b81548152906001019060200180831161264557829003601f168201915b505050505081525050815260200190600101906123ec565b505050509050919050565b61268d61383d565b6000600a60009054906101000a900473ffffffffffffffffffffffffffffffffffffffff1673ffffffffffffffffffffffffffffffffffffffff166370a08231306040518263ffffffff167c0100000000000000000000000000000000000000000000000000000000028152600401612706919061447e565b602060405180830381865afa158015612723573d6000803e3d6000fd5b505050506040513d601f19601f820116820180604052508101906127479190614d7c565b90506000811161278c576040517f08c379a000000000000000000000000000000000000000000000000000000000815260040161278390614df5565b60405180910390fd5b600a60009054906101000a900473ffffffffffffffffffffffffffffffffffffffff1673ffffffffffffffffffffffffffffffffffffffff1663a9059cbb6127d2612853565b836040518363ffffffff167c010000000000000000000000000000000000000000000000000000000002815260040161280c929190614e15565b6020604051808303816000875af115801561282b573d6000803e3d6000fd5b505050506040513d601f19601f8201168201806040525081019061284f9190614e6a565b5050565b60008060009054906101000a900473ffffffffffffffffffffffffffffffffffffffff16905090565b6040518060400160405280600881526020017f52656a656374656400000000000000000000000000000000000000000000000081525081565b6128bd61383d565b600073ffffffffffffffffffffffffffffffffffffffff168273ffffffffffffffffffffffffffffffffffffffff160361292c576040517f08c379a000000000000000000000000000000000000000000000000000000000815260040161292390614ee3565b60405180910390fd5b6000811161296f576040517f08c379a000000000000000000000000000000000000000000000000000000000815260040161296690614f4f565b60405180910390fd5b6000600a60009054906101000a900473ffffffffffffffffffffffffffffffffffffffff1673ffffffffffffffffffffffffffffffffffffffff166370a08231306040518263ffffffff167c01000000000000000000000000000000000000000000000000000000000281526004016129e8919061447e565b602060405180830381865afa158015612a05573d6000803e3d6000fd5b505050506040513d601f19601f82011682018060405250810190612a299190614d7c565b905081811015612a6e576040517f08c379a0000000000000000000000000000000000000000000000000000000008152600401612a6590614fbb565b60405180910390fd5b600a60009054906101000a900473ffffffffffffffffffffffffffffffffffffffff1673ffffffffffffffffffffffffffffffffffffffff1663a9059cbb84846040518363ffffffff167c0100000000000000000000000000000000000000000000000000000000028152600401612ae7929190614e15565b6020604051808303816000875af1158015612b06573d6000803e3d6000fd5b505050506040513d601f19601f82011682018060405250810190612b2a9190614e6a565b50505050565b60003411612b73576040517f08c379a0000000000000000000000000000000000000000000000000000000008152600401612b6a9061504d565b60405180910390fd5b6000600b5434612b83919061506d565b905080600a60009054906101000a900473ffffffffffffffffffffffffffffffffffffffff1673ffffffffffffffffffffffffffffffffffffffff166370a08231306040518263ffffffff167c0100000000000000000000000000000000000000000000000000000000028152600401612bfd919061447e565b602060405180830381865afa158015612c1a573d6000803e3d6000fd5b505050506040513d601f19601f82011682018060405250810190612c3e9190614d7c565b1015612c7f576040517f08c379a0000000000000000000000000000000000000000000000000000000008152600401612c7690615121565b60405180910390fd5b600a60009054906101000a900473ffffffffffffffffffffffffffffffffffffffff1673ffffffffffffffffffffffffffffffffffffffff1663a9059cbb33836040518363ffffffff167c0100000000000000000000000000000000000000000000000000000000028152600401612cf8929190614e15565b6020604051808303816000875af1158015612d17573d6000803e3d6000fd5b505050506040513d601f19601f82011682018060405250810190612d3b9190614e6a565b50612d44612853565b73ffffffffffffffffffffffffffffffffffffffff166108fc349081150290604051600060405180830381858888f19350505050158015612d89573d6000803e3d6000fd5b5050565b612d9561383d565b6009548111158015612da75750600081115b612de6576040517f08c379a0000000000000000000000000000000000000000000000000000000008152600401612ddd90614a59565b60405180910390fd5b6040518060400160405280600881526020017f52656a6563746564000000000000000000000000000000000000000000000000815250600460008381526020019081526020016000206007019081612e3e9190614895565b5060006004600083815260200190815260200160002090506000816001015490506000805b6006600084815260200190815260200160002080549050811015612ed95784600660008581526020019081526020016000208281548110612ea757612ea6614967565b5b90600052602060002090600802016000015403612ec657809150612ed9565b8080612ed1906149c5565b915050612e63565b506040518060400160405280600881526020017f52656a6563746564000000000000000000000000000000000000000000000000815250600660008481526020019081526020016000208281548110612f3557612f34614967565b5b90600052602060002090600802016007019081612f529190614895565b50837fde2fd065ee33d326c3a3a85a65bbb1d65cb5c0af1cd6c4ea859c9c87338e1a0e60405160405180910390a250505050565b6000806001811115612f9b57612f9a6140a2565b5b876001811115612fae57612fad6140a2565b5b1480612fdd5750600180811115612fc857612fc76140a2565b5b876001811115612fdb57612fda6140a2565b5b145b61301c576040517f08c379a00000000000000000000000000000000000000000000000000000000081526004016130139061518d565b60405180910390fd5b6007600081548092919061302f906149c5565b91905055506000604051806101200160405280600754815260200189600181111561305d5761305c6140a2565b5b81526020018881526020018781526020018681526020018581526020018481526020016000151581526020013373ffffffffffffffffffffffffffffffffffffffff16815250905080600160003373ffffffffffffffffffffffffffffffffffffffff1673ffffffffffffffffffffffffffffffffffffffff1681526020019081526020016000206000820151816000015560208201518160010160006101000a81548160ff0219169083600181111561311a576131196140a2565b5b021790555060408201518160020190816131349190614895565b50606082015181600301908161314a9190614895565b5060808201518160040190816131609190614895565b5060a08201518160050190816131769190614895565b5060c082015181600601908161318c9190614895565b5060e08201518160070160006101000a81548160ff0219169083151502179055506101008201518160070160016101000a81548173ffffffffffffffffffffffffffffffffffffffff021916908373ffffffffffffffffffffffffffffffffffffffff160217905550905050806002600060075481526020019081526020016000206000820151816000015560208201518160010160006101000a81548160ff02191690836001811115613243576132426140a2565b5b0217905550604082015181600201908161325d9190614895565b5060608201518160030190816132739190614895565b5060808201518160040190816132899190614895565b5060a082015181600501908161329f9190614895565b5060c08201518160060190816132b59190614895565b5060e08201518160070160006101000a81548160ff0219169083151502179055506101008201518160070160016101000a81548173ffffffffffffffffffffffffffffffffffffffff021916908373ffffffffffffffffffffffffffffffffffffffff1602179055509050506007547fe35820dc5e36f5504ecfae47734c266624fd7660b95f15c4882e440e1741b39d898989604051613357939291906151bc565b60405180910390a26007549150509695505050505050565b61337761383d565b600073ffffffffffffffffffffffffffffffffffffffff168173ffffffffffffffffffffffffffffffffffffffff16036133e6576040517f08c379a00000000000000000000000000000000000000000000000000000000081526004016133dd90615273565b60405180910390fd5b6133ef816138bb565b50565b60606133fc61383d565b60006008549050600080600190505b8281116134a1576040518060400160405280600781526020017f50656e64696e670000000000000000000000000000000000000000000000000081525080519060200120600360008381526020019081526020016000206005016040516134729190614b1c565b60405180910390200361348e57818061348a906149c5565b9250505b8080613499906149c5565b91505061340b565b5060008167ffffffffffffffff8111156134be576134bd613e70565b5b6040519080825280602002602001820160405280156134f757816020015b6134e4613a42565b8152602001906001900390816134dc5790505b509050600091506000600190505b838111613833576040518060400160405280600781526020017f50656e64696e6700000000000000000000000000000000000000000000000000815250805190602001206003600083815260200190815260200160002060050160405161356c9190614b1c565b60405180910390200361382057600360008281526020019081526020016000206040518060c001604052908160008201548152602001600182015481526020016002820180546135bb906146b2565b80601f01602080910402602001604051908101604052809291908181526020018280546135e7906146b2565b80156136345780601f1061360957610100808354040283529160200191613634565b820191906000526020600020905b81548152906001019060200180831161361757829003601f168201915b5050505050815260200160038201805461364d906146b2565b80601f0160208091040260200160405190810160405280929190818152602001828054613679906146b2565b80156136c65780601f1061369b576101008083540402835291602001916136c6565b820191906000526020600020905b8154815290600101906020018083116136a957829003601f168201915b505050505081526020016004820180546136df906146b2565b80601f016020809104026020016040519081016040528092919081815260200182805461370b906146b2565b80156137585780601f1061372d57610100808354040283529160200191613758565b820191906000526020600020905b81548152906001019060200180831161373b57829003601f168201915b50505050508152602001600582018054613771906146b2565b80601f016020809104026020016040519081016040528092919081815260200182805461379d906146b2565b80156137ea5780601f106137bf576101008083540402835291602001916137ea565b820191906000526020600020905b8154815290600101906020018083116137cd57829003601f168201915b50505050508152505082848151811061380657613805614967565b5b6020026020010181905250828061381c906149c5565b9350505b808061382b906149c5565b915050613505565b5080935050505090565b61384561397f565b73ffffffffffffffffffffffffffffffffffffffff16613863612853565b73ffffffffffffffffffffffffffffffffffffffff16146138b9576040517f08c379a00000000000000000000000000000000000000000000000000000000081526004016138b0906152df565b60405180910390fd5b565b60008060009054906101000a900473ffffffffffffffffffffffffffffffffffffffff169050816000806101000a81548173ffffffffffffffffffffffffffffffffffffffff021916908373ffffffffffffffffffffffffffffffffffffffff1602179055508173ffffffffffffffffffffffffffffffffffffffff168173ffffffffffffffffffffffffffffffffffffffff167f8be0079c531659141344cd1fd0a4f28419497f9722a3daafe3b4186f6b6457e060405160405180910390a35050565b600033905090565b60405180610100016040528060008152602001600081526020016060815260200160608152602001606081526020016060815260200160608152602001606081525090565b60405180610120016040528060008152602001600060018111156139f3576139f26140a2565b5b81526020016060815260200160608152602001606081526020016060815260200160608152602001600015158152602001600073ffffffffffffffffffffffffffffffffffffffff1681525090565b6040518060c001604052806000815260200160008152602001606081526020016060815260200160608152602001606081525090565b6000604051905090565b600080fd5b600080fd5b6000819050919050565b613a9f81613a8c565b8114613aaa57600080fd5b50565b600081359050613abc81613a96565b92915050565b600060208284031215613ad857613ad7613a82565b5b6000613ae684828501613aad565b91505092915050565b600081519050919050565b600082825260208201905092915050565b60005b83811015613b29578082015181840152602081019050613b0e565b60008484015250505050565b6000601f19601f8301169050919050565b6000613b5182613aef565b613b5b8185613afa565b9350613b6b818560208601613b0b565b613b7481613b35565b840191505092915050565b60006020820190508181036000830152613b998184613b46565b905092915050565b600073ffffffffffffffffffffffffffffffffffffffff82169050919050565b6000613bcc82613ba1565b9050919050565b613bdc81613bc1565b8114613be757600080fd5b50565b600081359050613bf981613bd3565b92915050565b600060208284031215613c1557613c14613a82565b5b6000613c2384828501613bea565b91505092915050565b613c3581613a8c565b82525050565b6000602082019050613c506000830184613c2c565b92915050565b600081519050919050565b600082825260208201905092915050565b6000819050602082019050919050565b613c8b81613a8c565b82525050565b600082825260208201905092915050565b6000613cad82613aef565b613cb78185613c91565b9350613cc7818560208601613b0b565b613cd081613b35565b840191505092915050565b600061010083016000830151613cf46000860182613c82565b506020830151613d076020860182613c82565b5060408301518482036040860152613d1f8282613ca2565b91505060608301518482036060860152613d398282613ca2565b91505060808301518482036080860152613d538282613ca2565b91505060a083015184820360a0860152613d6d8282613ca2565b91505060c083015184820360c0860152613d878282613ca2565b91505060e083015184820360e0860152613da18282613ca2565b9150508091505092915050565b6000613dba8383613cdb565b905092915050565b6000602082019050919050565b6000613dda82613c56565b613de48185613c61565b935083602082028501613df685613c72565b8060005b85811015613e325784840389528151613e138582613dae565b9450613e1e83613dc2565b925060208a01995050600181019050613dfa565b50829750879550505050505092915050565b60006020820190508181036000830152613e5e8184613dcf565b905092915050565b600080fd5b600080fd5b7f4e487b7100000000000000000000000000000000000000000000000000000000600052604160045260246000fd5b613ea882613b35565b810181811067ffffffffffffffff82111715613ec757613ec6613e70565b5b80604052505050565b6000613eda613a78565b9050613ee68282613e9f565b919050565b600067ffffffffffffffff821115613f0657613f05613e70565b5b613f0f82613b35565b9050602081019050919050565b82818337600083830152505050565b6000613f3e613f3984613eeb565b613ed0565b905082815260208101848484011115613f5a57613f59613e6b565b5b613f65848285613f1c565b509392505050565b600082601f830112613f8257613f81613e66565b5b8135613f92848260208601613f2b565b91505092915050565b600080600080600060a08688031215613fb757613fb6613a82565b5b600086013567ffffffffffffffff811115613fd557613fd4613a87565b5b613fe188828901613f6d565b955050602086013567ffffffffffffffff81111561400257614001613a87565b5b61400e88828901613f6d565b945050604086013567ffffffffffffffff81111561402f5761402e613a87565b5b61403b88828901613f6d565b935050606086013567ffffffffffffffff81111561405c5761405b613a87565b5b61406888828901613f6d565b925050608086013567ffffffffffffffff81111561408957614088613a87565b5b61409588828901613f6d565b9150509295509295909350565b7f4e487b7100000000000000000000000000000000000000000000000000000000600052602160045260246000fd5b600281106140e2576140e16140a2565b5b50565b60008190506140f3826140d1565b919050565b6000614103826140e5565b9050919050565b614113816140f8565b82525050565b60008115159050919050565b61412e81614119565b82525050565b61413d81613bc1565b82525050565b60006101208301600083015161415c6000860182613c82565b50602083015161416f602086018261410a565b50604083015184820360408601526141878282613ca2565b915050606083015184820360608601526141a18282613ca2565b915050608083015184820360808601526141bb8282613ca2565b91505060a083015184820360a08601526141d58282613ca2565b91505060c083015184820360c08601526141ef8282613ca2565b91505060e083015161420460e0860182614125565b50610100830151614219610100860182614134565b508091505092915050565b6000602082019050818103600083015261423e8184614143565b905092915050565b60008060006060848603121561425f5761425e613a82565b5b600084013567ffffffffffffffff81111561427d5761427c613a87565b5b61428986828701613f6d565b935050602084013567ffffffffffffffff8111156142aa576142a9613a87565b5b6142b686828701613f6d565b925050604084013567ffffffffffffffff8111156142d7576142d6613a87565b5b6142e386828701613f6d565b9150509250925092565b600081519050919050565b600082825260208201905092915050565b6000819050602082019050919050565b600060c0830160008301516143316000860182613c82565b5060208301516143446020860182613c82565b506040830151848203604086015261435c8282613ca2565b915050606083015184820360608601526143768282613ca2565b915050608083015184820360808601526143908282613ca2565b91505060a083015184820360a08601526143aa8282613ca2565b9150508091505092915050565b60006143c38383614319565b905092915050565b6000602082019050919050565b60006143e3826142ed565b6143ed81856142f8565b9350836020820285016143ff85614309565b8060005b8581101561443b578484038952815161441c85826143b7565b9450614427836143cb565b925060208a01995050600181019050614403565b50829750879550505050505092915050565b6000602082019050818103600083015261446781846143d8565b905092915050565b61447881613bc1565b82525050565b6000602082019050614493600083018461446f565b92915050565b600080604083850312156144b0576144af613a82565b5b60006144be85828601613bea565b92505060206144cf85828601613aad565b9150509250929050565b600281106144e657600080fd5b50565b6000813590506144f8816144d9565b92915050565b60008060008060008060c0878903121561451b5761451a613a82565b5b600061452989828a016144e9565b965050602087013567ffffffffffffffff81111561454a57614549613a87565b5b61455689828a01613f6d565b955050604087013567ffffffffffffffff81111561457757614576613a87565b5b61458389828a01613f6d565b945050606087013567ffffffffffffffff8111156145a4576145a3613a87565b5b6145b089828a01613f6d565b935050608087013567ffffffffffffffff8111156145d1576145d0613a87565b5b6145dd89828a01613f6d565b92505060a087013567ffffffffffffffff8111156145fe576145fd613a87565b5b61460a89828a01613f6d565b9150509295509295509295565b7f44656772656520494420646f6573206e6f742065786973740000000000000000600082015250565b600061464d601883613afa565b915061465882614617565b602082019050919050565b6000602082019050818103600083015261467c81614640565b9050919050565b7f4e487b7100000000000000000000000000000000000000000000000000000000600052602260045260246000fd5b600060028204905060018216806146ca57607f821691505b6020821081036146dd576146dc614683565b5b50919050565b60008190508160005260206000209050919050565b60006020601f8301049050919050565b60008160020a8302905092915050565b6000600883026147487fffffffffffffffffffffffffffffffffffffffffffffffffffffffffffffffff82614708565b6147528683614708565b95508019841693508086168417925050509392505050565b6000819050919050565b600061478f61478a61478584613a8c565b61476a565b613a8c565b9050919050565b6000819050919050565b6147a983614774565b6147bd6147b582614796565b848454614718565b825550505050565b600090565b6147d26147c5565b6147dd8184846147a0565b505050565b5b81811015614801576147f66000826147ca565b6001810190506147e3565b5050565b601f82111561484657614817816146e3565b614820846146f8565b8101602085101561482f578190505b61484361483b856146f8565b8301826147e2565b50505b505050565b60008160020a8304905092915050565b600061486c6000198460080261484b565b1980831691505092915050565b6000614885838361485b565b9150826002028217905092915050565b61489e82613aef565b67ffffffffffffffff8111156148b7576148b6613e70565b5b6148c182546146b2565b6148cc828285614805565b600060209050601f8311600181146148ff57600084156148ed578287015190505b6148f78582614879565b86555061495f565b601f19841661490d866146e3565b60005b8281101561493557848901518255600182019150602085019450602081019050614910565b86831015614952578489015161494e601f89168261485b565b8355505b6001600288020188555050505b505050505050565b7f4e487b7100000000000000000000000000000000000000000000000000000000600052603260045260246000fd5b7f4e487b7100000000000000000000000000000000000000000000000000000000600052601160045260246000fd5b60006149d082613a8c565b91507fffffffffffffffffffffffffffffffffffffffffffffffffffffffffffffffff8203614a0257614a01614996565b5b600182019050919050565b7f457870657269656e636520494420646f6573206e6f7420657869737400000000600082015250565b6000614a43601c83613afa565b9150614a4e82614a0d565b602082019050919050565b60006020820190508181036000830152614a7281614a36565b9050919050565b600081905092915050565b60008190508160005260206000209050919050565b60008154614aa6816146b2565b614ab08186614a79565b94506001821660008114614acb5760018114614ae057614b13565b60ff1983168652811515820286019350614b13565b614ae985614a84565b60005b83811015614b0b57815481890152600182019150602081019050614aec565b838801955050505b50505092915050565b6000614b288284614a99565b915081905092915050565b7f4f6e6c79204a6f625365656b6572732063616e2061636365737320746869732060008201527f66756e6374696f6e616c69747900000000000000000000000000000000000000602082015250565b6000614b8f602d83613afa565b9150614b9a82614b33565b604082019050919050565b60006020820190508181036000830152614bbe81614b82565b9050919050565b7f50656e64696e6700000000000000000000000000000000000000000000000000600082015250565b6000614bfb600783613afa565b9150614c0682614bc5565b602082019050919050565b600060c0820190508181036000830152614c2b8188613b46565b90508181036020830152614c3f8187613b46565b90508181036040830152614c538186613b46565b90508181036060830152614c678185613b46565b90508181036080830152614c7b8184613b46565b905081810360a0830152614c8e81614bee565b90509695505050505050565b7f526174652073686f756c642062652067726561746572207468616e20302e0000600082015250565b6000614cd0601e83613afa565b9150614cdb82614c9a565b602082019050919050565b60006020820190508181036000830152614cff81614cc3565b9050919050565b60006080820190508181036000830152614d208187613b46565b90508181036020830152614d348186613b46565b90508181036040830152614d488185613b46565b90508181036060830152614d5c8184613b46565b905095945050505050565b600081519050614d7681613a96565b92915050565b600060208284031215614d9257614d91613a82565b5b6000614da084828501614d67565b91505092915050565b7f4e6f2072656d61696e696e6720746f6b656e7320746f2077697468647261772e600082015250565b6000614ddf602083613afa565b9150614dea82614da9565b602082019050919050565b60006020820190508181036000830152614e0e81614dd2565b9050919050565b6000604082019050614e2a600083018561446f565b614e376020830184613c2c565b9392505050565b614e4781614119565b8114614e5257600080fd5b50565b600081519050614e6481614e3e565b92915050565b600060208284031215614e8057614e7f613a82565b5b6000614e8e84828501614e55565b91505092915050565b7f496e76616c696420656d706c6f79656520616464726573730000000000000000600082015250565b6000614ecd601883613afa565b9150614ed882614e97565b602082019050919050565b60006020820190508181036000830152614efc81614ec0565b9050919050565b7f416d6f756e742073686f756c642062652067726561746572207468616e203000600082015250565b6000614f39601f83613afa565b9150614f4482614f03565b602082019050919050565b60006020820190508181036000830152614f6881614f2c565b9050919050565b7f4e6f7420656e6f756768204a494320746f6b656e7320617661696c61626c6500600082015250565b6000614fa5601f83613afa565b9150614fb082614f6f565b602082019050919050565b60006020820190508181036000830152614fd481614f98565b9050919050565b7f566f757320646576657a20656e766f796572206465206c2745544820706f757260008201527f206163686574657220646573206a65746f6e73204a49432e0000000000000000602082015250565b6000615037603883613afa565b915061504282614fdb565b604082019050919050565b600060208201905081810360008301526150668161502a565b9050919050565b600061507882613a8c565b915061508383613a8c565b925082820261509181613a8c565b915082820484148315176150a8576150a7614996565b5b5092915050565b7f496c206e277920612070617320617373657a206465206a65746f6e73204a494360008201527f20646973706f6e69626c65732e00000000000000000000000000000000000000602082015250565b600061510b602d83613afa565b9150615116826150af565b604082019050919050565b6000602082019050818103600083015261513a816150fe565b9050919050565b7f496e76616c696420757365722074797065000000000000000000000000000000600082015250565b6000615177601183613afa565b915061518282615141565b602082019050919050565b600060208201905081810360008301526151a68161516a565b9050919050565b6151b6816140f8565b82525050565b60006060820190506151d160008301866151ad565b81810360208301526151e38185613b46565b905081810360408301526151f78184613b46565b9050949350505050565b7f4f776e61626c653a206e6577206f776e657220697320746865207a65726f206160008201527f6464726573730000000000000000000000000000000000000000000000000000602082015250565b600061525d602683613afa565b915061526882615201565b604082019050919050565b6000602082019050818103600083015261528c81615250565b9050919050565b7f4f776e61626c653a2063616c6c6572206973206e6f7420746865206f776e6572600082015250565b60006152c9602083613afa565b91506152d482615293565b602082019050919050565b600060208201905081810360008301526152f8816152bc565b905091905056fea26469706673582212208195f2e22316575923fb106e09d7c9b66b259297078228c2247e3cce59317a0e64736f6c6343000813003360806040523480156200001157600080fd5b50604051620024df380380620024df8339818101604052810190620000379190620003b4565b6040518060400160405280600a81526020017f4a6f62496e436861696e000000000000000000000000000000000000000000008152506040518060400160405280600381526020017f4a494300000000000000000000000000000000000000000000000000000000008152508160039081620000b491906200065c565b508060049081620000c691906200065c565b505050620000fb620000e66200011d640100000000026401000000009004565b62000125640100000000026401000000009004565b620001163382620001eb640100000000026401000000009004565b506200085e565b600033905090565b6000600560009054906101000a900473ffffffffffffffffffffffffffffffffffffffff16905081600560006101000a81548173ffffffffffffffffffffffffffffffffffffffff021916908373ffffffffffffffffffffffffffffffffffffffff1602179055508173ffffffffffffffffffffffffffffffffffffffff168173ffffffffffffffffffffffffffffffffffffffff167f8be0079c531659141344cd1fd0a4f28419497f9722a3daafe3b4186f6b6457e060405160405180910390a35050565b600073ffffffffffffffffffffffffffffffffffffffff168273ffffffffffffffffffffffffffffffffffffffff16036200025d576040517f08c379a00000000000000000000000000000000000000000000000000000000081526004016200025490620007a4565b60405180910390fd5b6200027a600083836200036a640100000000026401000000009004565b80600260008282546200028e9190620007f5565b92505081905550806000808473ffffffffffffffffffffffffffffffffffffffff1673ffffffffffffffffffffffffffffffffffffffff168152602001908152602001600020600082825401925050819055508173ffffffffffffffffffffffffffffffffffffffff16600073ffffffffffffffffffffffffffffffffffffffff167fddf252ad1be2c89b69c2b068fc378daa952ba7f163c4a11628f55a4df523b3ef8360405162000341919062000841565b60405180910390a362000366600083836200036f640100000000026401000000009004565b5050565b505050565b505050565b600080fd5b6000819050919050565b6200038e8162000379565b81146200039a57600080fd5b50565b600081519050620003ae8162000383565b92915050565b600060208284031215620003cd57620003cc62000374565b5b6000620003dd848285016200039d565b91505092915050565b600081519050919050565b7f4e487b7100000000000000000000000000000000000000000000000000000000600052604160045260246000fd5b7f4e487b7100000000000000000000000000000000000000000000000000000000600052602260045260246000fd5b600060028204905060018216806200046857607f821691505b6020821081036200047e576200047d62000420565b5b50919050565b60008190508160005260206000209050919050565b60006020601f8301049050919050565b60008160020a8302905092915050565b600060088302620004eb7fffffffffffffffffffffffffffffffffffffffffffffffffffffffffffffffff82620004a9565b620004f78683620004a9565b95508019841693508086168417925050509392505050565b6000819050919050565b60006200053a620005346200052e8462000379565b6200050f565b62000379565b9050919050565b6000819050919050565b620005568362000519565b6200056e620005658262000541565b848454620004b9565b825550505050565b600090565b6200058562000576565b620005928184846200054b565b505050565b5b81811015620005ba57620005ae6000826200057b565b60018101905062000598565b5050565b601f8211156200060957620005d38162000484565b620005de8462000499565b81016020851015620005ee578190505b62000606620005fd8562000499565b83018262000597565b50505b505050565b60008160020a8304905092915050565b600062000631600019846008026200060e565b1980831691505092915050565b60006200064c83836200061e565b9150826002028217905092915050565b6200066782620003e6565b67ffffffffffffffff811115620006835762000682620003f1565b5b6200068f82546200044f565b6200069c828285620005be565b600060209050601f831160018114620006d45760008415620006bf578287015190505b620006cb85826200063e565b8655506200073b565b601f198416620006e48662000484565b60005b828110156200070e57848901518255600182019150602085019450602081019050620006e7565b868310156200072e57848901516200072a601f8916826200061e565b8355505b6001600288020188555050505b505050505050565b600082825260208201905092915050565b7f45524332303a206d696e7420746f20746865207a65726f206164647265737300600082015250565b60006200078c601f8362000743565b9150620007998262000754565b602082019050919050565b60006020820190508181036000830152620007bf816200077d565b9050919050565b7f4e487b7100000000000000000000000000000000000000000000000000000000600052601160045260246000fd5b6000620008028262000379565b91506200080f8362000379565b92508282019050808211156200082a5762000829620007c6565b5b92915050565b6200083b8162000379565b82525050565b600060208201905062000858600083018462000830565b92915050565b611c71806200086e6000396000f3fe608060405234801561001057600080fd5b5060043610610128576000357c010000000000000000000000000000000000000000000000000000000090048063715018a6116100bf578063a457c2d71161008e578063a457c2d7146102c5578063a9059cbb146102f5578063aa271e1a14610325578063dd62ed3e14610355578063f2fde38b1461038557610128565b8063715018a6146102635780638da5cb5b1461026d57806395d89b411461028b578063983b2d56146102a957610128565b8063313ce567116100fb578063313ce567146101c957806339509351146101e757806340c10f191461021757806370a082311461023357610128565b806306fdde031461012d578063095ea7b31461014b57806318160ddd1461017b57806323b872dd14610199575b600080fd5b6101356103a1565b60405161014291906111ff565b60405180910390f35b610165600480360381019061016091906112ba565b610433565b6040516101729190611315565b60405180910390f35b610183610456565b604051610190919061133f565b60405180910390f35b6101b360048036038101906101ae919061135a565b610460565b6040516101c09190611315565b60405180910390f35b6101d161048f565b6040516101de91906113c9565b60405180910390f35b61020160048036038101906101fc91906112ba565b610498565b60405161020e9190611315565b60405180910390f35b610231600480360381019061022c91906112ba565b6104cf565b005b61024d600480360381019061024891906113e4565b610525565b60405161025a919061133f565b60405180910390f35b61026b61056d565b005b610275610581565b6040516102829190611420565b60405180910390f35b6102936105ab565b6040516102a091906111ff565b60405180910390f35b6102c360048036038101906102be91906113e4565b61063d565b005b6102df60048036038101906102da91906112ba565b6107a6565b6040516102ec9190611315565b60405180910390f35b61030f600480360381019061030a91906112ba565b61081d565b60405161031c9190611315565b60405180910390f35b61033f600480360381019061033a91906113e4565b610840565b60405161034c9190611315565b60405180910390f35b61036f600480360381019061036a919061143b565b6108ee565b60405161037c919061133f565b60405180910390f35b61039f600480360381019061039a91906113e4565b610975565b005b6060600380546103b0906114aa565b80601f01602080910402602001604051908101604052809291908181526020018280546103dc906114aa565b80156104295780601f106103fe57610100808354040283529160200191610429565b820191906000526020600020905b81548152906001019060200180831161040c57829003601f168201915b5050505050905090565b60008061043e6109f8565b905061044b818585610a00565b600191505092915050565b6000600254905090565b60008061046b6109f8565b9050610478858285610bc9565b610483858585610c55565b60019150509392505050565b60006012905090565b6000806104a36109f8565b90506104c48185856104b585896108ee565b6104bf919061150a565b610a00565b600191505092915050565b6104d833610840565b610517576040517f08c379a000000000000000000000000000000000000000000000000000000000815260040161050e9061158a565b60405180910390fd5b6105218282610ecb565b5050565b60008060008373ffffffffffffffffffffffffffffffffffffffff1673ffffffffffffffffffffffffffffffffffffffff168152602001908152602001600020549050919050565b610575611021565b61057f600061109f565b565b6000600560009054906101000a900473ffffffffffffffffffffffffffffffffffffffff16905090565b6060600480546105ba906114aa565b80601f01602080910402602001604051908101604052809291908181526020018280546105e6906114aa565b80156106335780601f1061060857610100808354040283529160200191610633565b820191906000526020600020905b81548152906001019060200180831161061657829003601f168201915b5050505050905090565b610645611021565b600073ffffffffffffffffffffffffffffffffffffffff168173ffffffffffffffffffffffffffffffffffffffff16036106b4576040517f08c379a00000000000000000000000000000000000000000000000000000000081526004016106ab906115f6565b60405180910390fd5b6106bd81610840565b156106fd576040517f08c379a00000000000000000000000000000000000000000000000000000000081526004016106f490611662565b60405180910390fd5b6006819080600181540180825580915050600190039060005260206000200160009091909190916101000a81548173ffffffffffffffffffffffffffffffffffffffff021916908373ffffffffffffffffffffffffffffffffffffffff1602179055508073ffffffffffffffffffffffffffffffffffffffff167f6ae172837ea30b801fbfcdd4108aa1d5bf8ff775444fd70256b44e6bf3dfc3f660405160405180910390a250565b6000806107b16109f8565b905060006107bf82866108ee565b905083811015610804576040517f08c379a00000000000000000000000000000000000000000000000000000000081526004016107fb906116f4565b60405180910390fd5b6108118286868403610a00565b60019250505092915050565b6000806108286109f8565b9050610835818585610c55565b600191505092915050565b600080600090505b6006805490508110156108e3578273ffffffffffffffffffffffffffffffffffffffff16600682815481106108805761087f611714565b5b9060005260206000200160009054906101000a900473ffffffffffffffffffffffffffffffffffffffff1673ffffffffffffffffffffffffffffffffffffffff16036108d05760019150506108e9565b80806108db90611743565b915050610848565b50600090505b919050565b6000600160008473ffffffffffffffffffffffffffffffffffffffff1673ffffffffffffffffffffffffffffffffffffffff16815260200190815260200160002060008373ffffffffffffffffffffffffffffffffffffffff1673ffffffffffffffffffffffffffffffffffffffff16815260200190815260200160002054905092915050565b61097d611021565b600073ffffffffffffffffffffffffffffffffffffffff168173ffffffffffffffffffffffffffffffffffffffff16036109ec576040517f08c379a00000000000000000000000000000000000000000000000000000000081526004016109e3906117fd565b60405180910390fd5b6109f58161109f565b50565b600033905090565b600073ffffffffffffffffffffffffffffffffffffffff168373ffffffffffffffffffffffffffffffffffffffff1603610a6f576040517f08c379a0000000000000000000000000000000000000000000000000000000008152600401610a669061188f565b60405180910390fd5b600073ffffffffffffffffffffffffffffffffffffffff168273ffffffffffffffffffffffffffffffffffffffff1603610ade576040517f08c379a0000000000000000000000000000000000000000000000000000000008152600401610ad590611921565b60405180910390fd5b80600160008573ffffffffffffffffffffffffffffffffffffffff1673ffffffffffffffffffffffffffffffffffffffff16815260200190815260200160002060008473ffffffffffffffffffffffffffffffffffffffff1673ffffffffffffffffffffffffffffffffffffffff168152602001908152602001600020819055508173ffffffffffffffffffffffffffffffffffffffff168373ffffffffffffffffffffffffffffffffffffffff167f8c5be1e5ebec7d5bd14f71427d1e84f3dd0314c0f7b2291e5b200ac8c7c3b92583604051610bbc919061133f565b60405180910390a3505050565b6000610bd584846108ee565b90507fffffffffffffffffffffffffffffffffffffffffffffffffffffffffffffffff8114610c4f5781811015610c41576040517f08c379a0000000000000000000000000000000000000000000000000000000008152600401610c389061198d565b60405180910390fd5b610c4e8484848403610a00565b5b50505050565b600073ffffffffffffffffffffffffffffffffffffffff168373ffffffffffffffffffffffffffffffffffffffff1603610cc4576040517f08c379a0000000000000000000000000000000000000000000000000000000008152600401610cbb90611a1f565b60405180910390fd5b600073ffffffffffffffffffffffffffffffffffffffff168273ffffffffffffffffffffffffffffffffffffffff1603610d33576040517f08c379a0000000000000000000000000000000000000000000000000000000008152600401610d2a90611ab1565b60405180910390fd5b610d3e838383611165565b60008060008573ffffffffffffffffffffffffffffffffffffffff1673ffffffffffffffffffffffffffffffffffffffff16815260200190815260200160002054905081811015610dc4576040517f08c379a0000000000000000000000000000000000000000000000000000000008152600401610dbb90611b43565b60405180910390fd5b8181036000808673ffffffffffffffffffffffffffffffffffffffff1673ffffffffffffffffffffffffffffffffffffffff16815260200190815260200160002081905550816000808573ffffffffffffffffffffffffffffffffffffffff1673ffffffffffffffffffffffffffffffffffffffff168152602001908152602001600020600082825401925050819055508273ffffffffffffffffffffffffffffffffffffffff168473ffffffffffffffffffffffffffffffffffffffff167fddf252ad1be2c89b69c2b068fc378daa952ba7f163c4a11628f55a4df523b3ef84604051610eb2919061133f565b60405180910390a3610ec584848461116a565b50505050565b600073ffffffffffffffffffffffffffffffffffffffff168273ffffffffffffffffffffffffffffffffffffffff1603610f3a576040517f08c379a0000000000000000000000000000000000000000000000000000000008152600401610f3190611baf565b60405180910390fd5b610f4660008383611165565b8060026000828254610f58919061150a565b92505081905550806000808473ffffffffffffffffffffffffffffffffffffffff1673ffffffffffffffffffffffffffffffffffffffff168152602001908152602001600020600082825401925050819055508173ffffffffffffffffffffffffffffffffffffffff16600073ffffffffffffffffffffffffffffffffffffffff167fddf252ad1be2c89b69c2b068fc378daa952ba7f163c4a11628f55a4df523b3ef83604051611009919061133f565b60405180910390a361101d6000838361116a565b5050565b6110296109f8565b73ffffffffffffffffffffffffffffffffffffffff16611047610581565b73ffffffffffffffffffffffffffffffffffffffff161461109d576040517f08c379a000000000000000000000000000000000000000000000000000000000815260040161109490611c1b565b60405180910390fd5b565b6000600560009054906101000a900473ffffffffffffffffffffffffffffffffffffffff16905081600560006101000a81548173ffffffffffffffffffffffffffffffffffffffff021916908373ffffffffffffffffffffffffffffffffffffffff1602179055508173ffffffffffffffffffffffffffffffffffffffff168173ffffffffffffffffffffffffffffffffffffffff167f8be0079c531659141344cd1fd0a4f28419497f9722a3daafe3b4186f6b6457e060405160405180910390a35050565b505050565b505050565b600081519050919050565b600082825260208201905092915050565b60005b838110156111a957808201518184015260208101905061118e565b60008484015250505050565b6000601f19601f8301169050919050565b60006111d18261116f565b6111db818561117a565b93506111eb81856020860161118b565b6111f4816111b5565b840191505092915050565b6000602082019050818103600083015261121981846111c6565b905092915050565b600080fd5b600073ffffffffffffffffffffffffffffffffffffffff82169050919050565b600061125182611226565b9050919050565b61126181611246565b811461126c57600080fd5b50565b60008135905061127e81611258565b92915050565b6000819050919050565b61129781611284565b81146112a257600080fd5b50565b6000813590506112b48161128e565b92915050565b600080604083850312156112d1576112d0611221565b5b60006112df8582860161126f565b92505060206112f0858286016112a5565b9150509250929050565b60008115159050919050565b61130f816112fa565b82525050565b600060208201905061132a6000830184611306565b92915050565b61133981611284565b82525050565b60006020820190506113546000830184611330565b92915050565b60008060006060848603121561137357611372611221565b5b60006113818682870161126f565b93505060206113928682870161126f565b92505060406113a3868287016112a5565b9150509250925092565b600060ff82169050919050565b6113c3816113ad565b82525050565b60006020820190506113de60008301846113ba565b92915050565b6000602082840312156113fa576113f9611221565b5b60006114088482850161126f565b91505092915050565b61141a81611246565b82525050565b60006020820190506114356000830184611411565b92915050565b6000806040838503121561145257611451611221565b5b60006114608582860161126f565b92505060206114718582860161126f565b9150509250929050565b7f4e487b7100000000000000000000000000000000000000000000000000000000600052602260045260246000fd5b600060028204905060018216806114c257607f821691505b6020821081036114d5576114d461147b565b5b50919050565b7f4e487b7100000000000000000000000000000000000000000000000000000000600052601160045260246000fd5b600061151582611284565b915061152083611284565b9250828201905080821115611538576115376114db565b5b92915050565b7f43616c6c6572206973206e6f742061206d696e74657200000000000000000000600082015250565b600061157460168361117a565b915061157f8261153e565b602082019050919050565b600060208201905081810360008301526115a381611567565b9050919050565b7f4d696e74657220616464726573732063616e6e6f742062652030783000000000600082015250565b60006115e0601c8361117a565b91506115eb826115aa565b602082019050919050565b6000602082019050818103600083015261160f816115d3565b9050919050565b7f4164647265737320697320616c72656164792061206d696e7465720000000000600082015250565b600061164c601b8361117a565b915061165782611616565b602082019050919050565b6000602082019050818103600083015261167b8161163f565b9050919050565b7f45524332303a2064656372656173656420616c6c6f77616e63652062656c6f7760008201527f207a65726f000000000000000000000000000000000000000000000000000000602082015250565b60006116de60258361117a565b91506116e982611682565b604082019050919050565b6000602082019050818103600083015261170d816116d1565b9050919050565b7f4e487b7100000000000000000000000000000000000000000000000000000000600052603260045260246000fd5b600061174e82611284565b91507fffffffffffffffffffffffffffffffffffffffffffffffffffffffffffffffff82036117805761177f6114db565b5b600182019050919050565b7f4f776e61626c653a206e6577206f776e657220697320746865207a65726f206160008201527f6464726573730000000000000000000000000000000000000000000000000000602082015250565b60006117e760268361117a565b91506117f28261178b565b604082019050919050565b60006020820190508181036000830152611816816117da565b9050919050565b7f45524332303a20617070726f76652066726f6d20746865207a65726f2061646460008201527f7265737300000000000000000000000000000000000000000000000000000000602082015250565b600061187960248361117a565b91506118848261181d565b604082019050919050565b600060208201905081810360008301526118a88161186c565b9050919050565b7f45524332303a20617070726f766520746f20746865207a65726f20616464726560008201527f7373000000000000000000000000000000000000000000000000000000000000602082015250565b600061190b60228361117a565b9150611916826118af565b604082019050919050565b6000602082019050818103600083015261193a816118fe565b9050919050565b7f45524332303a20696e73756666696369656e7420616c6c6f77616e6365000000600082015250565b6000611977601d8361117a565b915061198282611941565b602082019050919050565b600060208201905081810360008301526119a68161196a565b9050919050565b7f45524332303a207472616e736665722066726f6d20746865207a65726f20616460008201527f6472657373000000000000000000000000000000000000000000000000000000602082015250565b6000611a0960258361117a565b9150611a14826119ad565b604082019050919050565b60006020820190508181036000830152611a38816119fc565b9050919050565b7f45524332303a207472616e7366657220746f20746865207a65726f206164647260008201527f6573730000000000000000000000000000000000000000000000000000000000602082015250565b6000611a9b60238361117a565b9150611aa682611a3f565b604082019050919050565b60006020820190508181036000830152611aca81611a8e565b9050919050565b7f45524332303a207472616e7366657220616d6f756e742065786365656473206260008201527f616c616e63650000000000000000000000000000000000000000000000000000602082015250565b6000611b2d60268361117a565b9150611b3882611ad1565b604082019050919050565b60006020820190508181036000830152611b5c81611b20565b9050919050565b7f45524332303a206d696e7420746f20746865207a65726f206164647265737300600082015250565b6000611b99601f8361117a565b9150611ba482611b63565b602082019050919050565b60006020820190508181036000830152611bc881611b8c565b9050919050565b7f4f776e61626c653a2063616c6c6572206973206e6f7420746865206f776e6572600082015250565b6000611c0560208361117a565b9150611c1082611bcf565b602082019050919050565b60006020820190508181036000830152611c3481611bf8565b905091905056fea26469706673582212206ee2f87502bfeb9c15897ac5aaaba9c1a4f04d3cb3de16105120ad0217264b9364736f6c63430008130033",
  "immutableReferences": {},
  "source": "// SPDX-License-Identifier: MIT\npragma solidity 0.8.19;\n\nimport \"../node_modules/@openzeppelin/contracts/access/Ownable.sol\";\nimport \"./UserManagement.sol\";\nimport \"./JobInChainToken.sol\";\n\ncontract JobInChainTokenSale is Ownable, UserManagement {\n    JobInChainToken private token;\n    uint256 private rate;\n    UserManagement private userManagement;\n    uint256 private initialSupply;\n\n    constructor(JobInChainToken _token, uint256 _rate, uint256 _initialSupply) {\n        require(address(_token) != address(0), \"Token address is not valid.\");\n        require(_rate > 0, \"Rate should be greater than 0.\");\n\n        token = _token;\n        rate = _rate;\n        initialSupply = _initialSupply;\n        // Appel du constructeur du contrat parent JobInChainToken avec l'initialisation de la supply\n        token = new JobInChainToken(initialSupply);\n    }\n\n    function buyTokens() public payable {\n        require(\n            msg.value > 0,\n            \"Vous devez envoyer de l'ETH pour acheter des jetons JIC.\"\n        );\n\n        uint256 tokensToBuy = msg.value * rate;\n        require(\n            token.balanceOf(address(this)) >= tokensToBuy,\n            \"Il n'y a pas assez de jetons JIC disponibles.\"\n        );\n\n        // Transfrer les jetons JIC de ce contrat  l'acheteur\n        token.transfer(msg.sender, tokensToBuy);\n\n        // Envoyer l'ETH reu au propritaire du contrat\n        payable(owner()).transfer(msg.value);\n    }\n\n    function updateRate(uint256 _newRate) public onlyOwner {\n        require(_newRate > 0, \"Rate should be greater than 0.\");\n        rate = _newRate;\n    }\n\n    function withdrawTokens() public onlyOwner {\n        uint256 remainingTokens = token.balanceOf(address(this));\n        require(remainingTokens > 0, \"No remaining tokens to withdraw.\");\n\n        token.transfer(owner(), remainingTokens);\n    }\n\n    function grantTokens(address _employee, uint256 _amount) public onlyOwner {\n        require(_employee != address(0), \"Invalid employee address\");\n        require(_amount > 0, \"Amount should be greater than 0\");\n\n        uint256 remainingTokens = token.balanceOf(address(this));\n        require(remainingTokens >= _amount, \"Not enough JIC tokens available\");\n\n        token.transfer(_employee, _amount);\n    }\n}\n",
  "sourcePath": "/home/arnaud/Alyra/jobInChain/truffle/contracts/JobInChainTokenSale.sol",
  "compiler": {
    "name": "solc",
    "version": "0.8.19+commit.7dd6d404.Emscripten.clang"
  },
  "schemaVersion": "3.4.11",
  "updatedAt": "2023-04-09T15:58:24.820Z",
  "networkType": "ethereum",
  "devdoc": {
    "kind": "dev",
    "methods": {
      "owner()": {
        "details": "Returns the address of the current owner."
      },
      "renounceOwnership()": {
        "details": "Leaves the contract without owner. It will not be possible to call `onlyOwner` functions anymore. Can only be called by the current owner. NOTE: Renouncing ownership will leave the contract without an owner, thereby removing any functionality that is only available to the owner."
      },
      "transferOwnership(address)": {
        "details": "Transfers ownership of the contract to a new account (`newOwner`). Can only be called by the current owner."
      }
    },
    "version": 1
  },
  "userdoc": {
    "kind": "user",
    "methods": {},
    "version": 1
  }
}