{
  "contractName": "JobListingsManagement",
  "abi": [
    {
      "inputs": [
        {
          "internalType": "address",
          "name": "jobListingsContractAddress",
          "type": "address"
        },
        {
          "internalType": "address",
          "name": "tokenAddress",
          "type": "address"
        }
      ],
      "stateMutability": "nonpayable",
      "type": "constructor"
    },
    {
      "anonymous": false,
      "inputs": [
        {
          "indexed": true,
          "internalType": "address",
          "name": "owner",
          "type": "address"
        },
        {
          "indexed": true,
          "internalType": "address",
          "name": "approved",
          "type": "address"
        },
        {
          "indexed": true,
          "internalType": "uint256",
          "name": "tokenId",
          "type": "uint256"
        }
      ],
      "name": "Approval",
      "type": "event"
    },
    {
      "anonymous": false,
      "inputs": [
        {
          "indexed": true,
          "internalType": "address",
          "name": "owner",
          "type": "address"
        },
        {
          "indexed": true,
          "internalType": "address",
          "name": "operator",
          "type": "address"
        },
        {
          "indexed": false,
          "internalType": "bool",
          "name": "approved",
          "type": "bool"
        }
      ],
      "name": "ApprovalForAll",
      "type": "event"
    },
    {
      "anonymous": false,
      "inputs": [
        {
          "indexed": true,
          "internalType": "uint256",
          "name": "tokenId",
          "type": "uint256"
        },
        {
          "indexed": true,
          "internalType": "uint256",
          "name": "applicationId",
          "type": "uint256"
        }
      ],
      "name": "CandidateHired",
      "type": "event"
    },
    {
      "anonymous": false,
      "inputs": [
        {
          "indexed": true,
          "internalType": "uint256",
          "name": "tokenId",
          "type": "uint256"
        },
        {
          "indexed": true,
          "internalType": "uint256",
          "name": "applicationId",
          "type": "uint256"
        }
      ],
      "name": "CandidateRejected",
      "type": "event"
    },
    {
      "anonymous": false,
      "inputs": [
        {
          "indexed": true,
          "internalType": "uint256",
          "name": "applicationId",
          "type": "uint256"
        },
        {
          "indexed": true,
          "internalType": "uint256",
          "name": "tokenId",
          "type": "uint256"
        },
        {
          "indexed": true,
          "internalType": "address",
          "name": "candidate",
          "type": "address"
        }
      ],
      "name": "JobApplicationCreated",
      "type": "event"
    },
    {
      "anonymous": false,
      "inputs": [
        {
          "indexed": true,
          "internalType": "address",
          "name": "from",
          "type": "address"
        },
        {
          "indexed": true,
          "internalType": "address",
          "name": "to",
          "type": "address"
        },
        {
          "indexed": true,
          "internalType": "uint256",
          "name": "tokenId",
          "type": "uint256"
        }
      ],
      "name": "Transfer",
      "type": "event"
    },
    {
      "inputs": [
        {
          "internalType": "address",
          "name": "to",
          "type": "address"
        },
        {
          "internalType": "uint256",
          "name": "tokenId",
          "type": "uint256"
        }
      ],
      "name": "approve",
      "outputs": [],
      "stateMutability": "nonpayable",
      "type": "function"
    },
    {
      "inputs": [
        {
          "internalType": "address",
          "name": "owner",
          "type": "address"
        }
      ],
      "name": "balanceOf",
      "outputs": [
        {
          "internalType": "uint256",
          "name": "",
          "type": "uint256"
        }
      ],
      "stateMutability": "view",
      "type": "function",
      "constant": true
    },
    {
      "inputs": [
        {
          "internalType": "uint256",
          "name": "tokenId",
          "type": "uint256"
        }
      ],
      "name": "getApproved",
      "outputs": [
        {
          "internalType": "address",
          "name": "",
          "type": "address"
        }
      ],
      "stateMutability": "view",
      "type": "function",
      "constant": true
    },
    {
      "inputs": [
        {
          "internalType": "address",
          "name": "owner",
          "type": "address"
        },
        {
          "internalType": "address",
          "name": "operator",
          "type": "address"
        }
      ],
      "name": "isApprovedForAll",
      "outputs": [
        {
          "internalType": "bool",
          "name": "",
          "type": "bool"
        }
      ],
      "stateMutability": "view",
      "type": "function",
      "constant": true
    },
    {
      "inputs": [],
      "name": "name",
      "outputs": [
        {
          "internalType": "string",
          "name": "",
          "type": "string"
        }
      ],
      "stateMutability": "view",
      "type": "function",
      "constant": true
    },
    {
      "inputs": [
        {
          "internalType": "uint256",
          "name": "tokenId",
          "type": "uint256"
        }
      ],
      "name": "ownerOf",
      "outputs": [
        {
          "internalType": "address",
          "name": "",
          "type": "address"
        }
      ],
      "stateMutability": "view",
      "type": "function",
      "constant": true
    },
    {
      "inputs": [
        {
          "internalType": "address",
          "name": "from",
          "type": "address"
        },
        {
          "internalType": "address",
          "name": "to",
          "type": "address"
        },
        {
          "internalType": "uint256",
          "name": "tokenId",
          "type": "uint256"
        }
      ],
      "name": "safeTransferFrom",
      "outputs": [],
      "stateMutability": "nonpayable",
      "type": "function"
    },
    {
      "inputs": [
        {
          "internalType": "address",
          "name": "from",
          "type": "address"
        },
        {
          "internalType": "address",
          "name": "to",
          "type": "address"
        },
        {
          "internalType": "uint256",
          "name": "tokenId",
          "type": "uint256"
        },
        {
          "internalType": "bytes",
          "name": "data",
          "type": "bytes"
        }
      ],
      "name": "safeTransferFrom",
      "outputs": [],
      "stateMutability": "nonpayable",
      "type": "function"
    },
    {
      "inputs": [
        {
          "internalType": "address",
          "name": "operator",
          "type": "address"
        },
        {
          "internalType": "bool",
          "name": "approved",
          "type": "bool"
        }
      ],
      "name": "setApprovalForAll",
      "outputs": [],
      "stateMutability": "nonpayable",
      "type": "function"
    },
    {
      "inputs": [
        {
          "internalType": "bytes4",
          "name": "interfaceId",
          "type": "bytes4"
        }
      ],
      "name": "supportsInterface",
      "outputs": [
        {
          "internalType": "bool",
          "name": "",
          "type": "bool"
        }
      ],
      "stateMutability": "view",
      "type": "function",
      "constant": true
    },
    {
      "inputs": [],
      "name": "symbol",
      "outputs": [
        {
          "internalType": "string",
          "name": "",
          "type": "string"
        }
      ],
      "stateMutability": "view",
      "type": "function",
      "constant": true
    },
    {
      "inputs": [
        {
          "internalType": "uint256",
          "name": "tokenId",
          "type": "uint256"
        }
      ],
      "name": "tokenURI",
      "outputs": [
        {
          "internalType": "string",
          "name": "",
          "type": "string"
        }
      ],
      "stateMutability": "view",
      "type": "function",
      "constant": true
    },
    {
      "inputs": [
        {
          "internalType": "address",
          "name": "from",
          "type": "address"
        },
        {
          "internalType": "address",
          "name": "to",
          "type": "address"
        },
        {
          "internalType": "uint256",
          "name": "tokenId",
          "type": "uint256"
        }
      ],
      "name": "transferFrom",
      "outputs": [],
      "stateMutability": "nonpayable",
      "type": "function"
    },
    {
      "inputs": [
        {
          "internalType": "uint256",
          "name": "listingId",
          "type": "uint256"
        }
      ],
      "name": "createJobListingNFT",
      "outputs": [
        {
          "internalType": "uint256",
          "name": "",
          "type": "uint256"
        }
      ],
      "stateMutability": "nonpayable",
      "type": "function"
    },
    {
      "inputs": [
        {
          "internalType": "uint256",
          "name": "tokenId",
          "type": "uint256"
        },
        {
          "internalType": "address",
          "name": "to",
          "type": "address"
        }
      ],
      "name": "transferJobListingNFT",
      "outputs": [],
      "stateMutability": "nonpayable",
      "type": "function"
    },
    {
      "inputs": [
        {
          "internalType": "uint256",
          "name": "tokenId",
          "type": "uint256"
        }
      ],
      "name": "getJobListing",
      "outputs": [
        {
          "components": [
            {
              "internalType": "string",
              "name": "title",
              "type": "string"
            },
            {
              "internalType": "string",
              "name": "description",
              "type": "string"
            },
            {
              "internalType": "uint256",
              "name": "salary",
              "type": "uint256"
            },
            {
              "internalType": "address",
              "name": "company",
              "type": "address"
            },
            {
              "internalType": "string",
              "name": "ipfsHash",
              "type": "string"
            },
            {
              "internalType": "uint256",
              "name": "tokenId",
              "type": "uint256"
            }
          ],
          "internalType": "struct JobListings.JobListing",
          "name": "",
          "type": "tuple"
        }
      ],
      "stateMutability": "view",
      "type": "function",
      "constant": true
    },
    {
      "inputs": [
        {
          "internalType": "uint256",
          "name": "tokenId",
          "type": "uint256"
        }
      ],
      "name": "getJobApplications",
      "outputs": [
        {
          "components": [
            {
              "internalType": "uint256",
              "name": "applicationId",
              "type": "uint256"
            },
            {
              "internalType": "uint256",
              "name": "jobListingId",
              "type": "uint256"
            },
            {
              "internalType": "uint256",
              "name": "candidateId",
              "type": "uint256"
            },
            {
              "internalType": "string",
              "name": "message",
              "type": "string"
            },
            {
              "internalType": "bool",
              "name": "isHired",
              "type": "bool"
            },
            {
              "internalType": "bool",
              "name": "isRejected",
              "type": "bool"
            }
          ],
          "internalType": "struct JobListingsManagement.JobApplication[]",
          "name": "",
          "type": "tuple[]"
        }
      ],
      "stateMutability": "view",
      "type": "function",
      "constant": true
    }
  ],
  "bytecode": "0x60806040523480156200001157600080fd5b5060405162003a9a38038062003a9a8339818101604052810190620000379190620001bd565b6040518060400160405280600e81526020017f4a6f624c697374696e67734e46540000000000000000000000000000000000008152506040518060400160405280600381526020017f4a4c4e00000000000000000000000000000000000000000000000000000000008152508160009081620000b4919062000484565b508060019081620000c6919062000484565b50505081600860006101000a81548173ffffffffffffffffffffffffffffffffffffffff021916908373ffffffffffffffffffffffffffffffffffffffff16021790555080600a60006101000a81548173ffffffffffffffffffffffffffffffffffffffff021916908373ffffffffffffffffffffffffffffffffffffffff16021790555050506200056b565b600080fd5b600073ffffffffffffffffffffffffffffffffffffffff82169050919050565b6000620001858262000158565b9050919050565b620001978162000178565b8114620001a357600080fd5b50565b600081519050620001b7816200018c565b92915050565b60008060408385031215620001d757620001d662000153565b5b6000620001e785828601620001a6565b9250506020620001fa85828601620001a6565b9150509250929050565b600081519050919050565b7f4e487b7100000000000000000000000000000000000000000000000000000000600052604160045260246000fd5b7f4e487b7100000000000000000000000000000000000000000000000000000000600052602260045260246000fd5b600060028204905060018216806200028657607f821691505b6020821081036200029c576200029b6200023e565b5b50919050565b60008190508160005260206000209050919050565b60006020601f8301049050919050565b60008160020a8302905092915050565b600060088302620003097fffffffffffffffffffffffffffffffffffffffffffffffffffffffffffffffff82620002c7565b620003158683620002c7565b95508019841693508086168417925050509392505050565b6000819050919050565b6000819050919050565b6000620003626200035c62000356846200032d565b62000337565b6200032d565b9050919050565b6000819050919050565b6200037e8362000341565b620003966200038d8262000369565b848454620002d7565b825550505050565b600090565b620003ad6200039e565b620003ba81848462000373565b505050565b5b81811015620003e257620003d6600082620003a3565b600181019050620003c0565b5050565b601f8211156200043157620003fb81620002a2565b6200040684620002b7565b8101602085101562000416578190505b6200042e6200042585620002b7565b830182620003bf565b50505b505050565b60008160020a8304905092915050565b6000620004596000198460080262000436565b1980831691505092915050565b600062000474838362000446565b9150826002028217905092915050565b6200048f8262000204565b67ffffffffffffffff811115620004ab57620004aa6200020f565b5b620004b782546200026d565b620004c4828285620003e6565b600060209050601f831160018114620004fc5760008415620004e7578287015190505b620004f3858262000466565b86555062000563565b601f1984166200050c86620002a2565b60005b8281101562000536578489015182556001820191506020850194506020810190506200050f565b8683101562000556578489015162000552601f89168262000446565b8355505b6001600288020188555050505b505050505050565b61351f806200057b6000396000f3fe608060405234801561001057600080fd5b5060043610610128576000357c010000000000000000000000000000000000000000000000000000000090048063747143b9116100bf578063ad3846d41161008e578063ad3846d4146102f9578063b88d4fde14610315578063c87b56dd14610331578063e89141c314610361578063e985e9c51461039157610128565b8063747143b91461025f57806395d89b411461028f5780639ababda2146102ad578063a22cb465146102dd57610128565b806323b872dd116100fb57806323b872dd146101c757806342842e0e146101e35780636352211e146101ff57806370a082311461022f57610128565b806301ffc9a71461012d57806306fdde031461015d578063081812fc1461017b578063095ea7b3146101ab575b600080fd5b61014760048036038101906101429190611e5e565b6103c1565b6040516101549190611ea6565b60405180910390f35b6101656104a3565b6040516101729190611f51565b60405180910390f35b61019560048036038101906101909190611fa9565b610535565b6040516101a29190612017565b60405180910390f35b6101c560048036038101906101c0919061205e565b61057b565b005b6101e160048036038101906101dc919061209e565b610692565b005b6101fd60048036038101906101f8919061209e565b6106f2565b005b61021960048036038101906102149190611fa9565b610712565b6040516102269190612017565b60405180910390f35b610249600480360381019061024491906120f1565b610798565b604051610256919061212d565b60405180910390f35b61027960048036038101906102749190611fa9565b61084f565b60405161028691906122fb565b60405180910390f35b6102976109a7565b6040516102a49190611f51565b60405180910390f35b6102c760048036038101906102c29190611fa9565b610a39565b6040516102d4919061212d565b60405180910390f35b6102f760048036038101906102f29190612349565b610bca565b005b610313600480360381019061030e9190612389565b610be0565b005b61032f600480360381019061032a91906124fe565b610c46565b005b61034b60048036038101906103469190611fa9565b610ca8565b6040516103589190611f51565b60405180910390f35b61037b60048036038101906103769190611fa9565b610dba565b6040516103889190612627565b60405180910390f35b6103ab60048036038101906103a69190612649565b610e8c565b6040516103b89190611ea6565b60405180910390f35b60007f80ac58cd000000000000000000000000000000000000000000000000000000007bffffffffffffffffffffffffffffffffffffffffffffffffffffffff1916827bffffffffffffffffffffffffffffffffffffffffffffffffffffffff1916148061048c57507f5b5e139f000000000000000000000000000000000000000000000000000000007bffffffffffffffffffffffffffffffffffffffffffffffffffffffff1916827bffffffffffffffffffffffffffffffffffffffffffffffffffffffff1916145b8061049c575061049b82610f20565b5b9050919050565b6060600080546104b2906126b8565b80601f01602080910402602001604051908101604052809291908181526020018280546104de906126b8565b801561052b5780601f106105005761010080835404028352916020019161052b565b820191906000526020600020905b81548152906001019060200180831161050e57829003601f168201915b5050505050905090565b600061054082610f8a565b6004600083815260200190815260200160002060009054906101000a900473ffffffffffffffffffffffffffffffffffffffff169050919050565b600061058682610712565b90508073ffffffffffffffffffffffffffffffffffffffff168373ffffffffffffffffffffffffffffffffffffffff16036105f6576040517f08c379a00000000000000000000000000000000000000000000000000000000081526004016105ed9061275b565b60405180910390fd5b8073ffffffffffffffffffffffffffffffffffffffff16610615610fd5565b73ffffffffffffffffffffffffffffffffffffffff16148061064457506106438161063e610fd5565b610e8c565b5b610683576040517f08c379a000000000000000000000000000000000000000000000000000000000815260040161067a906127ed565b60405180910390fd5b61068d8383610fdd565b505050565b6106a361069d610fd5565b82611096565b6106e2576040517f08c379a00000000000000000000000000000000000000000000000000000000081526004016106d99061287f565b60405180910390fd5b6106ed83838361112b565b505050565b61070d83838360405180602001604052806000815250610c46565b505050565b60008061071e83611424565b9050600073ffffffffffffffffffffffffffffffffffffffff168173ffffffffffffffffffffffffffffffffffffffff160361078f576040517f08c379a0000000000000000000000000000000000000000000000000000000008152600401610786906128eb565b60405180910390fd5b80915050919050565b60008073ffffffffffffffffffffffffffffffffffffffff168273ffffffffffffffffffffffffffffffffffffffff1603610808576040517f08c379a00000000000000000000000000000000000000000000000000000000081526004016107ff9061297d565b60405180910390fd5b600360008373ffffffffffffffffffffffffffffffffffffffff1673ffffffffffffffffffffffffffffffffffffffff168152602001908152602001600020549050919050565b606060096000838152602001908152602001600020805480602002602001604051908101604052809291908181526020016000905b8282101561099c57838290600052602060002090600502016040518060c00160405290816000820154815260200160018201548152602001600282015481526020016003820180546108d5906126b8565b80601f0160208091040260200160405190810160405280929190818152602001828054610901906126b8565b801561094e5780601f106109235761010080835404028352916020019161094e565b820191906000526020600020905b81548152906001019060200180831161093157829003601f168201915b505050505081526020016004820160009054906101000a900460ff161515151581526020016004820160019054906101000a900460ff16151515158152505081526020019060010190610884565b505050509050919050565b6060600180546109b6906126b8565b80601f01602080910402602001604051908101604052809291908181526020018280546109e2906126b8565b8015610a2f5780601f10610a0457610100808354040283529160200191610a2f565b820191906000526020600020905b815481529060010190602001808311610a1257829003601f168201915b5050505050905090565b600080600860009054906101000a900473ffffffffffffffffffffffffffffffffffffffff1673ffffffffffffffffffffffffffffffffffffffff1663107a274a846040518263ffffffff167c0100000000000000000000000000000000000000000000000000000000028152600401610ab3919061212d565b600060405180830381865afa158015610ad0573d6000803e3d6000fd5b505050506040513d6000823e3d601f19601f82011682018060405250810190610af99190612b66565b90503373ffffffffffffffffffffffffffffffffffffffff16816060015173ffffffffffffffffffffffffffffffffffffffff1614610b6d576040517f08c379a0000000000000000000000000000000000000000000000000000000008152600401610b6490612c21565b60405180910390fd5b610b776007611461565b6000610b836007611477565b9050610b8f3382611485565b610bc081610b9c836116a2565b604051602001610bac9190612cef565b604051602081830303815290604052611770565b8092505050919050565b610bdc610bd5610fd5565b83836117dd565b5050565b610bf1610beb610fd5565b83611096565b610c30576040517f08c379a0000000000000000000000000000000000000000000000000000000008152600401610c2790612d83565b60405180910390fd5b610c42610c3b610fd5565b828461112b565b5050565b610c57610c51610fd5565b83611096565b610c96576040517f08c379a0000000000000000000000000000000000000000000000000000000008152600401610c8d9061287f565b60405180910390fd5b610ca284848484611949565b50505050565b6060610cb382610f8a565b6000600660008481526020019081526020016000208054610cd3906126b8565b80601f0160208091040260200160405190810160405280929190818152602001828054610cff906126b8565b8015610d4c5780601f10610d2157610100808354040283529160200191610d4c565b820191906000526020600020905b815481529060010190602001808311610d2f57829003601f168201915b505050505090506000610d5d6119a5565b90506000815103610d72578192505050610db5565b600082511115610da7578082604051602001610d8f929190612da3565b60405160208183030381529060405292505050610db5565b610db0846119bc565b925050505b919050565b610dc2611da6565b6000829050600860009054906101000a900473ffffffffffffffffffffffffffffffffffffffff1673ffffffffffffffffffffffffffffffffffffffff1663107a274a826040518263ffffffff167c0100000000000000000000000000000000000000000000000000000000028152600401610e3e919061212d565b600060405180830381865afa158015610e5b573d6000803e3d6000fd5b505050506040513d6000823e3d601f19601f82011682018060405250810190610e849190612b66565b915050919050565b6000600560008473ffffffffffffffffffffffffffffffffffffffff1673ffffffffffffffffffffffffffffffffffffffff16815260200190815260200160002060008373ffffffffffffffffffffffffffffffffffffffff1673ffffffffffffffffffffffffffffffffffffffff16815260200190815260200160002060009054906101000a900460ff16905092915050565b60007f01ffc9a7000000000000000000000000000000000000000000000000000000007bffffffffffffffffffffffffffffffffffffffffffffffffffffffff1916827bffffffffffffffffffffffffffffffffffffffffffffffffffffffff1916149050919050565b610f9381611a24565b610fd2576040517f08c379a0000000000000000000000000000000000000000000000000000000008152600401610fc9906128eb565b60405180910390fd5b50565b600033905090565b816004600083815260200190815260200160002060006101000a81548173ffffffffffffffffffffffffffffffffffffffff021916908373ffffffffffffffffffffffffffffffffffffffff160217905550808273ffffffffffffffffffffffffffffffffffffffff1661105083610712565b73ffffffffffffffffffffffffffffffffffffffff167f8c5be1e5ebec7d5bd14f71427d1e84f3dd0314c0f7b2291e5b200ac8c7c3b92560405160405180910390a45050565b6000806110a283610712565b90508073ffffffffffffffffffffffffffffffffffffffff168473ffffffffffffffffffffffffffffffffffffffff1614806110e457506110e38185610e8c565b5b8061112257508373ffffffffffffffffffffffffffffffffffffffff1661110a84610535565b73ffffffffffffffffffffffffffffffffffffffff16145b91505092915050565b8273ffffffffffffffffffffffffffffffffffffffff1661114b82610712565b73ffffffffffffffffffffffffffffffffffffffff16146111a1576040517f08c379a000000000000000000000000000000000000000000000000000000000815260040161119890612e39565b60405180910390fd5b600073ffffffffffffffffffffffffffffffffffffffff168273ffffffffffffffffffffffffffffffffffffffff1603611210576040517f08c379a000000000000000000000000000000000000000000000000000000000815260040161120790612ecb565b60405180910390fd5b61121d8383836001611a65565b8273ffffffffffffffffffffffffffffffffffffffff1661123d82610712565b73ffffffffffffffffffffffffffffffffffffffff1614611293576040517f08c379a000000000000000000000000000000000000000000000000000000000815260040161128a90612e39565b60405180910390fd5b6004600082815260200190815260200160002060006101000a81549073ffffffffffffffffffffffffffffffffffffffff02191690556001600360008573ffffffffffffffffffffffffffffffffffffffff1673ffffffffffffffffffffffffffffffffffffffff168152602001908152602001600020600082825403925050819055506001600360008473ffffffffffffffffffffffffffffffffffffffff1673ffffffffffffffffffffffffffffffffffffffff16815260200190815260200160002060008282540192505081905550816002600083815260200190815260200160002060006101000a81548173ffffffffffffffffffffffffffffffffffffffff021916908373ffffffffffffffffffffffffffffffffffffffff160217905550808273ffffffffffffffffffffffffffffffffffffffff168473ffffffffffffffffffffffffffffffffffffffff167fddf252ad1be2c89b69c2b068fc378daa952ba7f163c4a11628f55a4df523b3ef60405160405180910390a461141f8383836001611a6b565b505050565b60006002600083815260200190815260200160002060009054906101000a900473ffffffffffffffffffffffffffffffffffffffff169050919050565b6001816000016000828254019250508190555050565b600081600001549050919050565b600073ffffffffffffffffffffffffffffffffffffffff168273ffffffffffffffffffffffffffffffffffffffff16036114f4576040517f08c379a00000000000000000000000000000000000000000000000000000000081526004016114eb90612f37565b60405180910390fd5b6114fd81611a24565b1561153d576040517f08c379a000000000000000000000000000000000000000000000000000000000815260040161153490612fa3565b60405180910390fd5b61154b600083836001611a65565b61155481611a24565b15611594576040517f08c379a000000000000000000000000000000000000000000000000000000000815260040161158b90612fa3565b60405180910390fd5b6001600360008473ffffffffffffffffffffffffffffffffffffffff1673ffffffffffffffffffffffffffffffffffffffff16815260200190815260200160002060008282540192505081905550816002600083815260200190815260200160002060006101000a81548173ffffffffffffffffffffffffffffffffffffffff021916908373ffffffffffffffffffffffffffffffffffffffff160217905550808273ffffffffffffffffffffffffffffffffffffffff16600073ffffffffffffffffffffffffffffffffffffffff167fddf252ad1be2c89b69c2b068fc378daa952ba7f163c4a11628f55a4df523b3ef60405160405180910390a461169e600083836001611a6b565b5050565b6060600060016116b184611a71565b01905060008167ffffffffffffffff8111156116d0576116cf6123d3565b5b6040519080825280601f01601f1916602001820160405280156117025781602001600182028036833780820191505090505b509050600082602001820190505b600115611765578080600190039150507f3031323334353637383961626364656600000000000000000000000000000000600a86061a8153600a858161175957611758612fc3565b5b04945060008503611710575b819350505050919050565b61177982611a24565b6117b8576040517f08c379a00000000000000000000000000000000000000000000000000000000081526004016117af90613064565b60405180910390fd5b806006600084815260200190815260200160002090816117d89190613236565b505050565b8173ffffffffffffffffffffffffffffffffffffffff168373ffffffffffffffffffffffffffffffffffffffff160361184b576040517f08c379a000000000000000000000000000000000000000000000000000000000815260040161184290613354565b60405180910390fd5b80600560008573ffffffffffffffffffffffffffffffffffffffff1673ffffffffffffffffffffffffffffffffffffffff16815260200190815260200160002060008473ffffffffffffffffffffffffffffffffffffffff1673ffffffffffffffffffffffffffffffffffffffff16815260200190815260200160002060006101000a81548160ff0219169083151502179055508173ffffffffffffffffffffffffffffffffffffffff168373ffffffffffffffffffffffffffffffffffffffff167f17307eab39ab6107e8899845ad3d59bd9653f200f220920489ca2b5937696c318360405161193c9190611ea6565b60405180910390a3505050565b61195484848461112b565b61196084848484611bc4565b61199f576040517f08c379a0000000000000000000000000000000000000000000000000000000008152600401611996906133e6565b60405180910390fd5b50505050565b606060405180602001604052806000815250905090565b60606119c782610f8a565b60006119d16119a5565b905060008151116119f15760405180602001604052806000815250611a1c565b806119fb846116a2565b604051602001611a0c929190612da3565b6040516020818303038152906040525b915050919050565b60008073ffffffffffffffffffffffffffffffffffffffff16611a4683611424565b73ffffffffffffffffffffffffffffffffffffffff1614159050919050565b50505050565b50505050565b600080600090507a184f03e93ff9f4daa797ed6e38ed64bf6a1f0100000000000000008310611acf577a184f03e93ff9f4daa797ed6e38ed64bf6a1f0100000000000000008381611ac557611ac4612fc3565b5b0492506040810190505b6d04ee2d6d415b85acef81000000008310611b0c576d04ee2d6d415b85acef81000000008381611b0257611b01612fc3565b5b0492506020810190505b662386f26fc100008310611b3b57662386f26fc100008381611b3157611b30612fc3565b5b0492506010810190505b6305f5e1008310611b64576305f5e1008381611b5a57611b59612fc3565b5b0492506008810190505b6127108310611b89576127108381611b7f57611b7e612fc3565b5b0492506004810190505b60648310611bac5760648381611ba257611ba1612fc3565b5b0492506002810190505b600a8310611bbb576001810190505b80915050919050565b6000611be58473ffffffffffffffffffffffffffffffffffffffff16611d83565b15611d76578373ffffffffffffffffffffffffffffffffffffffff1663150b7a02611c0e610fd5565b8786866040518563ffffffff167c0100000000000000000000000000000000000000000000000000000000028152600401611c4c949392919061345b565b6020604051808303816000875af1925050508015611c8857506040513d601f19601f82011682018060405250810190611c8591906134bc565b60015b611d0a573d8060008114611cb8576040519150601f19603f3d011682016040523d82523d6000602084013e611cbd565b606091505b506000815103611d02576040517f08c379a0000000000000000000000000000000000000000000000000000000008152600401611cf9906133e6565b60405180910390fd5b805181602001fd5b63150b7a027c0100000000000000000000000000000000000000000000000000000000027bffffffffffffffffffffffffffffffffffffffffffffffffffffffff1916817bffffffffffffffffffffffffffffffffffffffffffffffffffffffff191614915050611d7b565b600190505b949350505050565b6000808273ffffffffffffffffffffffffffffffffffffffff163b119050919050565b6040518060c00160405280606081526020016060815260200160008152602001600073ffffffffffffffffffffffffffffffffffffffff16815260200160608152602001600081525090565b6000604051905090565b600080fd5b600080fd5b60007fffffffff0000000000000000000000000000000000000000000000000000000082169050919050565b611e3b81611e06565b8114611e4657600080fd5b50565b600081359050611e5881611e32565b92915050565b600060208284031215611e7457611e73611dfc565b5b6000611e8284828501611e49565b91505092915050565b60008115159050919050565b611ea081611e8b565b82525050565b6000602082019050611ebb6000830184611e97565b92915050565b600081519050919050565b600082825260208201905092915050565b60005b83811015611efb578082015181840152602081019050611ee0565b60008484015250505050565b6000601f19601f8301169050919050565b6000611f2382611ec1565b611f2d8185611ecc565b9350611f3d818560208601611edd565b611f4681611f07565b840191505092915050565b60006020820190508181036000830152611f6b8184611f18565b905092915050565b6000819050919050565b611f8681611f73565b8114611f9157600080fd5b50565b600081359050611fa381611f7d565b92915050565b600060208284031215611fbf57611fbe611dfc565b5b6000611fcd84828501611f94565b91505092915050565b600073ffffffffffffffffffffffffffffffffffffffff82169050919050565b600061200182611fd6565b9050919050565b61201181611ff6565b82525050565b600060208201905061202c6000830184612008565b92915050565b61203b81611ff6565b811461204657600080fd5b50565b60008135905061205881612032565b92915050565b6000806040838503121561207557612074611dfc565b5b600061208385828601612049565b925050602061209485828601611f94565b9150509250929050565b6000806000606084860312156120b7576120b6611dfc565b5b60006120c586828701612049565b93505060206120d686828701612049565b92505060406120e786828701611f94565b9150509250925092565b60006020828403121561210757612106611dfc565b5b600061211584828501612049565b91505092915050565b61212781611f73565b82525050565b6000602082019050612142600083018461211e565b92915050565b600081519050919050565b600082825260208201905092915050565b6000819050602082019050919050565b61217d81611f73565b82525050565b600082825260208201905092915050565b600061219f82611ec1565b6121a98185612183565b93506121b9818560208601611edd565b6121c281611f07565b840191505092915050565b6121d681611e8b565b82525050565b600060c0830160008301516121f46000860182612174565b5060208301516122076020860182612174565b50604083015161221a6040860182612174565b50606083015184820360608601526122328282612194565b915050608083015161224760808601826121cd565b5060a083015161225a60a08601826121cd565b508091505092915050565b600061227183836121dc565b905092915050565b6000602082019050919050565b600061229182612148565b61229b8185612153565b9350836020820285016122ad85612164565b8060005b858110156122e957848403895281516122ca8582612265565b94506122d583612279565b925060208a019950506001810190506122b1565b50829750879550505050505092915050565b600060208201905081810360008301526123158184612286565b905092915050565b61232681611e8b565b811461233157600080fd5b50565b6000813590506123438161231d565b92915050565b600080604083850312156123605761235f611dfc565b5b600061236e85828601612049565b925050602061237f85828601612334565b9150509250929050565b600080604083850312156123a05761239f611dfc565b5b60006123ae85828601611f94565b92505060206123bf85828601612049565b9150509250929050565b600080fd5b600080fd5b7f4e487b7100000000000000000000000000000000000000000000000000000000600052604160045260246000fd5b61240b82611f07565b810181811067ffffffffffffffff8211171561242a576124296123d3565b5b80604052505050565b600061243d611df2565b90506124498282612402565b919050565b600067ffffffffffffffff821115612469576124686123d3565b5b61247282611f07565b9050602081019050919050565b82818337600083830152505050565b60006124a161249c8461244e565b612433565b9050828152602081018484840111156124bd576124bc6123ce565b5b6124c884828561247f565b509392505050565b600082601f8301126124e5576124e46123c9565b5b81356124f584826020860161248e565b91505092915050565b6000806000806080858703121561251857612517611dfc565b5b600061252687828801612049565b945050602061253787828801612049565b935050604061254887828801611f94565b925050606085013567ffffffffffffffff81111561256957612568611e01565b5b612575878288016124d0565b91505092959194509250565b61258a81611ff6565b82525050565b600060c08301600083015184820360008601526125ad8282612194565b915050602083015184820360208601526125c78282612194565b91505060408301516125dc6040860182612174565b5060608301516125ef6060860182612581565b50608083015184820360808601526126078282612194565b91505060a083015161261c60a0860182612174565b508091505092915050565b600060208201905081810360008301526126418184612590565b905092915050565b600080604083850312156126605761265f611dfc565b5b600061266e85828601612049565b925050602061267f85828601612049565b9150509250929050565b7f4e487b7100000000000000000000000000000000000000000000000000000000600052602260045260246000fd5b600060028204905060018216806126d057607f821691505b6020821081036126e3576126e2612689565b5b50919050565b7f4552433732313a20617070726f76616c20746f2063757272656e74206f776e6560008201527f7200000000000000000000000000000000000000000000000000000000000000602082015250565b6000612745602183611ecc565b9150612750826126e9565b604082019050919050565b6000602082019050818103600083015261277481612738565b9050919050565b7f4552433732313a20617070726f76652063616c6c6572206973206e6f7420746f60008201527f6b656e206f776e6572206f7220617070726f76656420666f7220616c6c000000602082015250565b60006127d7603d83611ecc565b91506127e28261277b565b604082019050919050565b60006020820190508181036000830152612806816127ca565b9050919050565b7f4552433732313a2063616c6c6572206973206e6f7420746f6b656e206f776e6560008201527f72206f7220617070726f76656400000000000000000000000000000000000000602082015250565b6000612869602d83611ecc565b91506128748261280d565b604082019050919050565b600060208201905081810360008301526128988161285c565b9050919050565b7f4552433732313a20696e76616c696420746f6b656e2049440000000000000000600082015250565b60006128d5601883611ecc565b91506128e08261289f565b602082019050919050565b60006020820190508181036000830152612904816128c8565b9050919050565b7f4552433732313a2061646472657373207a65726f206973206e6f74206120766160008201527f6c6964206f776e65720000000000000000000000000000000000000000000000602082015250565b6000612967602983611ecc565b91506129728261290b565b604082019050919050565b600060208201905081810360008301526129968161295a565b9050919050565b600080fd5b600080fd5b600067ffffffffffffffff8211156129c2576129c16123d3565b5b6129cb82611f07565b9050602081019050919050565b60006129eb6129e6846129a7565b612433565b905082815260208101848484011115612a0757612a066123ce565b5b612a12848285611edd565b509392505050565b600082601f830112612a2f57612a2e6123c9565b5b8151612a3f8482602086016129d8565b91505092915050565b600081519050612a5781611f7d565b92915050565b600081519050612a6c81612032565b92915050565b600060c08284031215612a8857612a8761299d565b5b612a9260c0612433565b9050600082015167ffffffffffffffff811115612ab257612ab16129a2565b5b612abe84828501612a1a565b600083015250602082015167ffffffffffffffff811115612ae257612ae16129a2565b5b612aee84828501612a1a565b6020830152506040612b0284828501612a48565b6040830152506060612b1684828501612a5d565b606083015250608082015167ffffffffffffffff811115612b3a57612b396129a2565b5b612b4684828501612a1a565b60808301525060a0612b5a84828501612a48565b60a08301525092915050565b600060208284031215612b7c57612b7b611dfc565b5b600082015167ffffffffffffffff811115612b9a57612b99611e01565b5b612ba684828501612a72565b91505092915050565b7f4f6e6c792074686520636f6d70616e792063616e206372656174652061206a6f60008201527f62206c697374696e67204e465400000000000000000000000000000000000000602082015250565b6000612c0b602d83611ecc565b9150612c1682612baf565b604082019050919050565b60006020820190508181036000830152612c3a81612bfe565b9050919050565b600081905092915050565b7f68747470733a2f2f6578616d706c652e636f6d2f6a6f622d6c697374696e677360008201527f2d6e66742f000000000000000000000000000000000000000000000000000000602082015250565b6000612ca8602583612c41565b9150612cb382612c4c565b602582019050919050565b6000612cc982611ec1565b612cd38185612c41565b9350612ce3818560208601611edd565b80840191505092915050565b6000612cfa82612c9b565b9150612d068284612cbe565b915081905092915050565b7f4552433732313a207472616e736665722063616c6c6572206973206e6f74206f60008201527f776e6572206e6f7220617070726f766564000000000000000000000000000000602082015250565b6000612d6d603183611ecc565b9150612d7882612d11565b604082019050919050565b60006020820190508181036000830152612d9c81612d60565b9050919050565b6000612daf8285612cbe565b9150612dbb8284612cbe565b91508190509392505050565b7f4552433732313a207472616e736665722066726f6d20696e636f72726563742060008201527f6f776e6572000000000000000000000000000000000000000000000000000000602082015250565b6000612e23602583611ecc565b9150612e2e82612dc7565b604082019050919050565b60006020820190508181036000830152612e5281612e16565b9050919050565b7f4552433732313a207472616e7366657220746f20746865207a65726f2061646460008201527f7265737300000000000000000000000000000000000000000000000000000000602082015250565b6000612eb5602483611ecc565b9150612ec082612e59565b604082019050919050565b60006020820190508181036000830152612ee481612ea8565b9050919050565b7f4552433732313a206d696e7420746f20746865207a65726f2061646472657373600082015250565b6000612f21602083611ecc565b9150612f2c82612eeb565b602082019050919050565b60006020820190508181036000830152612f5081612f14565b9050919050565b7f4552433732313a20746f6b656e20616c7265616479206d696e74656400000000600082015250565b6000612f8d601c83611ecc565b9150612f9882612f57565b602082019050919050565b60006020820190508181036000830152612fbc81612f80565b9050919050565b7f4e487b7100000000000000000000000000000000000000000000000000000000600052601260045260246000fd5b7f45524337323155524953746f726167653a2055524920736574206f66206e6f6e60008201527f6578697374656e7420746f6b656e000000000000000000000000000000000000602082015250565b600061304e602e83611ecc565b915061305982612ff2565b604082019050919050565b6000602082019050818103600083015261307d81613041565b9050919050565b60008190508160005260206000209050919050565b60006020601f8301049050919050565b60008160020a8302905092915050565b6000600883026130e97fffffffffffffffffffffffffffffffffffffffffffffffffffffffffffffffff826130a9565b6130f386836130a9565b95508019841693508086168417925050509392505050565b6000819050919050565b600061313061312b61312684611f73565b61310b565b611f73565b9050919050565b6000819050919050565b61314a83613115565b61315e61315682613137565b8484546130b9565b825550505050565b600090565b613173613166565b61317e818484613141565b505050565b5b818110156131a25761319760008261316b565b600181019050613184565b5050565b601f8211156131e7576131b881613084565b6131c184613099565b810160208510156131d0578190505b6131e46131dc85613099565b830182613183565b50505b505050565b60008160020a8304905092915050565b600061320d600019846008026131ec565b1980831691505092915050565b600061322683836131fc565b9150826002028217905092915050565b61323f82611ec1565b67ffffffffffffffff811115613258576132576123d3565b5b61326282546126b8565b61326d8282856131a6565b600060209050601f8311600181146132a0576000841561328e578287015190505b613298858261321a565b865550613300565b601f1984166132ae86613084565b60005b828110156132d6578489015182556001820191506020850194506020810190506132b1565b868310156132f357848901516132ef601f8916826131fc565b8355505b6001600288020188555050505b505050505050565b7f4552433732313a20617070726f766520746f2063616c6c657200000000000000600082015250565b600061333e601983611ecc565b915061334982613308565b602082019050919050565b6000602082019050818103600083015261336d81613331565b9050919050565b7f4552433732313a207472616e7366657220746f206e6f6e20455243373231526560008201527f63656976657220696d706c656d656e7465720000000000000000000000000000602082015250565b60006133d0603283611ecc565b91506133db82613374565b604082019050919050565b600060208201905081810360008301526133ff816133c3565b9050919050565b600081519050919050565b600082825260208201905092915050565b600061342d82613406565b6134378185613411565b9350613447818560208601611edd565b61345081611f07565b840191505092915050565b60006080820190506134706000830187612008565b61347d6020830186612008565b61348a604083018561211e565b818103606083015261349c8184613422565b905095945050505050565b6000815190506134b681611e32565b92915050565b6000602082840312156134d2576134d1611dfc565b5b60006134e0848285016134a7565b9150509291505056fea2646970667358221220b58ff6a96e952d8f393b1b7fe0f88ef83a4f57fa8e4591fd631fad48ccf82aa464736f6c63430008130033",
  "immutableReferences": {},
  "source": "// SPDX-License-Identifier: MIT\npragma solidity 0.8.19;\n\nimport \"../node_modules/@openzeppelin/contracts/token/ERC721/ERC721.sol\";\nimport \"../node_modules/@openzeppelin/contracts/utils/Counters.sol\";\nimport \"../node_modules/@openzeppelin/contracts/token/ERC20/IERC20.sol\";\nimport \"../node_modules/@openzeppelin/contracts/token/ERC721/extensions/ERC721URIStorage.sol\";\nimport \"../node_modules/@openzeppelin/contracts/utils/Strings.sol\";\n\nimport \"./JobListings.sol\";\n\ncontract JobListingsManagement is ERC721URIStorage {\n    using Counters for Counters.Counter;\n    using Strings for uint256;\n    Counters.Counter private _tokenIds;\n    JobListings private _jobListings;\n\n    struct JobApplication {\n        uint256 applicationId;\n        uint256 jobListingId;\n        uint256 candidateId;\n        string message;\n        bool isHired;\n        bool isRejected;\n    }\n\n    mapping(uint256 => JobApplication[]) private _jobApplications;\n\n    IERC20 private _token;\n\n    event JobApplicationCreated(\n        uint256 indexed applicationId,\n        uint256 indexed tokenId,\n        address indexed candidate\n    );\n\n    event CandidateHired(\n        uint256 indexed tokenId,\n        uint256 indexed applicationId\n    );\n\n    event CandidateRejected(\n        uint256 indexed tokenId,\n        uint256 indexed applicationId\n    );\n\n    constructor(\n        address jobListingsContractAddress,\n        address tokenAddress\n    ) ERC721(\"JobListingsNFT\", \"JLN\") {\n        _jobListings = JobListings(jobListingsContractAddress);\n        _token = IERC20(tokenAddress);\n    }\n\n    function createJobListingNFT(uint256 listingId) public returns (uint256) {\n        JobListings.JobListing memory listing = _jobListings.getListing(\n            listingId\n        );\n        require(\n            listing.company == msg.sender,\n            \"Only the company can create a job listing NFT\"\n        );\n\n        _tokenIds.increment();\n        uint256 newTokenId = _tokenIds.current();\n        _mint(msg.sender, newTokenId);\n        _setTokenURI(\n            newTokenId,\n            string(\n                abi.encodePacked(\n                    \"https://example.com/job-listings-nft/\",\n                    newTokenId.toString()\n                )\n            )\n        );\n\n        return newTokenId;\n    }\n\n    function transferJobListingNFT(uint256 tokenId, address to) public {\n        require(\n            _isApprovedOrOwner(_msgSender(), tokenId),\n            \"ERC721: transfer caller is not owner nor approved\"\n        );\n        _transfer(_msgSender(), to, tokenId);\n    }\n\n    function getJobListing(\n        uint256 tokenId\n    ) public view returns (JobListings.JobListing memory) {\n        uint256 listingId = tokenId;\n        return _jobListings.getListing(listingId);\n    }\n\n    function getJobApplications(\n        uint256 tokenId\n    ) public view returns (JobApplication[] memory) {\n        return _jobApplications[tokenId];\n    }\n}\n",
  "sourcePath": "/home/arnaud/Alyra/jobInChain/truffle/contracts/JobListingsManagement.sol",
  "compiler": {
    "name": "solc",
    "version": "0.8.19+commit.7dd6d404.Emscripten.clang"
  },
  "schemaVersion": "3.4.11",
  "updatedAt": "2023-04-09T15:58:24.909Z",
  "networkType": "ethereum",
  "devdoc": {
    "events": {
      "Approval(address,address,uint256)": {
        "details": "Emitted when `owner` enables `approved` to manage the `tokenId` token."
      },
      "ApprovalForAll(address,address,bool)": {
        "details": "Emitted when `owner` enables or disables (`approved`) `operator` to manage all of its assets."
      },
      "Transfer(address,address,uint256)": {
        "details": "Emitted when `tokenId` token is transferred from `from` to `to`."
      }
    },
    "kind": "dev",
    "methods": {
      "approve(address,uint256)": {
        "details": "See {IERC721-approve}."
      },
      "balanceOf(address)": {
        "details": "See {IERC721-balanceOf}."
      },
      "getApproved(uint256)": {
        "details": "See {IERC721-getApproved}."
      },
      "isApprovedForAll(address,address)": {
        "details": "See {IERC721-isApprovedForAll}."
      },
      "name()": {
        "details": "See {IERC721Metadata-name}."
      },
      "ownerOf(uint256)": {
        "details": "See {IERC721-ownerOf}."
      },
      "safeTransferFrom(address,address,uint256)": {
        "details": "See {IERC721-safeTransferFrom}."
      },
      "safeTransferFrom(address,address,uint256,bytes)": {
        "details": "See {IERC721-safeTransferFrom}."
      },
      "setApprovalForAll(address,bool)": {
        "details": "See {IERC721-setApprovalForAll}."
      },
      "supportsInterface(bytes4)": {
        "details": "See {IERC165-supportsInterface}."
      },
      "symbol()": {
        "details": "See {IERC721Metadata-symbol}."
      },
      "tokenURI(uint256)": {
        "details": "See {IERC721Metadata-tokenURI}."
      },
      "transferFrom(address,address,uint256)": {
        "details": "See {IERC721-transferFrom}."
      }
    },
    "version": 1
  },
  "userdoc": {
    "kind": "user",
    "methods": {},
    "version": 1
  }
}