{
  "contractName": "JobListingsNFT",
  "abi": [
    {
      "inputs": [
        {
          "internalType": "address",
          "name": "jobListingsContractAddress",
          "type": "address"
        },
        {
          "internalType": "address",
          "name": "tokenAddress",
          "type": "address"
        },
        {
          "internalType": "address",
          "name": "userManagementAddress",
          "type": "address"
        }
      ],
      "stateMutability": "nonpayable",
      "type": "constructor"
    },
    {
      "anonymous": false,
      "inputs": [
        {
          "indexed": true,
          "internalType": "address",
          "name": "owner",
          "type": "address"
        },
        {
          "indexed": true,
          "internalType": "address",
          "name": "approved",
          "type": "address"
        },
        {
          "indexed": true,
          "internalType": "uint256",
          "name": "tokenId",
          "type": "uint256"
        }
      ],
      "name": "Approval",
      "type": "event"
    },
    {
      "anonymous": false,
      "inputs": [
        {
          "indexed": true,
          "internalType": "address",
          "name": "owner",
          "type": "address"
        },
        {
          "indexed": true,
          "internalType": "address",
          "name": "operator",
          "type": "address"
        },
        {
          "indexed": false,
          "internalType": "bool",
          "name": "approved",
          "type": "bool"
        }
      ],
      "name": "ApprovalForAll",
      "type": "event"
    },
    {
      "anonymous": false,
      "inputs": [
        {
          "indexed": true,
          "internalType": "uint256",
          "name": "tokenId",
          "type": "uint256"
        },
        {
          "indexed": true,
          "internalType": "uint256",
          "name": "applicationId",
          "type": "uint256"
        }
      ],
      "name": "CandidateHired",
      "type": "event"
    },
    {
      "anonymous": false,
      "inputs": [
        {
          "indexed": true,
          "internalType": "uint256",
          "name": "tokenId",
          "type": "uint256"
        },
        {
          "indexed": true,
          "internalType": "uint256",
          "name": "applicationId",
          "type": "uint256"
        }
      ],
      "name": "CandidateRejected",
      "type": "event"
    },
    {
      "anonymous": false,
      "inputs": [
        {
          "indexed": true,
          "internalType": "uint256",
          "name": "applicationId",
          "type": "uint256"
        },
        {
          "indexed": true,
          "internalType": "uint256",
          "name": "tokenId",
          "type": "uint256"
        },
        {
          "indexed": true,
          "internalType": "address",
          "name": "candidate",
          "type": "address"
        }
      ],
      "name": "JobApplicationCreated",
      "type": "event"
    },
    {
      "anonymous": false,
      "inputs": [
        {
          "indexed": true,
          "internalType": "address",
          "name": "from",
          "type": "address"
        },
        {
          "indexed": true,
          "internalType": "address",
          "name": "to",
          "type": "address"
        },
        {
          "indexed": true,
          "internalType": "uint256",
          "name": "tokenId",
          "type": "uint256"
        }
      ],
      "name": "Transfer",
      "type": "event"
    },
    {
      "inputs": [
        {
          "internalType": "address",
          "name": "to",
          "type": "address"
        },
        {
          "internalType": "uint256",
          "name": "tokenId",
          "type": "uint256"
        }
      ],
      "name": "approve",
      "outputs": [],
      "stateMutability": "nonpayable",
      "type": "function"
    },
    {
      "inputs": [
        {
          "internalType": "address",
          "name": "owner",
          "type": "address"
        }
      ],
      "name": "balanceOf",
      "outputs": [
        {
          "internalType": "uint256",
          "name": "",
          "type": "uint256"
        }
      ],
      "stateMutability": "view",
      "type": "function"
    },
    {
      "inputs": [
        {
          "internalType": "uint256",
          "name": "tokenId",
          "type": "uint256"
        }
      ],
      "name": "getApproved",
      "outputs": [
        {
          "internalType": "address",
          "name": "",
          "type": "address"
        }
      ],
      "stateMutability": "view",
      "type": "function"
    },
    {
      "inputs": [
        {
          "internalType": "address",
          "name": "owner",
          "type": "address"
        },
        {
          "internalType": "address",
          "name": "operator",
          "type": "address"
        }
      ],
      "name": "isApprovedForAll",
      "outputs": [
        {
          "internalType": "bool",
          "name": "",
          "type": "bool"
        }
      ],
      "stateMutability": "view",
      "type": "function"
    },
    {
      "inputs": [],
      "name": "name",
      "outputs": [
        {
          "internalType": "string",
          "name": "",
          "type": "string"
        }
      ],
      "stateMutability": "view",
      "type": "function"
    },
    {
      "inputs": [
        {
          "internalType": "uint256",
          "name": "tokenId",
          "type": "uint256"
        }
      ],
      "name": "ownerOf",
      "outputs": [
        {
          "internalType": "address",
          "name": "",
          "type": "address"
        }
      ],
      "stateMutability": "view",
      "type": "function"
    },
    {
      "inputs": [
        {
          "internalType": "address",
          "name": "from",
          "type": "address"
        },
        {
          "internalType": "address",
          "name": "to",
          "type": "address"
        },
        {
          "internalType": "uint256",
          "name": "tokenId",
          "type": "uint256"
        }
      ],
      "name": "safeTransferFrom",
      "outputs": [],
      "stateMutability": "nonpayable",
      "type": "function"
    },
    {
      "inputs": [
        {
          "internalType": "address",
          "name": "from",
          "type": "address"
        },
        {
          "internalType": "address",
          "name": "to",
          "type": "address"
        },
        {
          "internalType": "uint256",
          "name": "tokenId",
          "type": "uint256"
        },
        {
          "internalType": "bytes",
          "name": "data",
          "type": "bytes"
        }
      ],
      "name": "safeTransferFrom",
      "outputs": [],
      "stateMutability": "nonpayable",
      "type": "function"
    },
    {
      "inputs": [
        {
          "internalType": "address",
          "name": "operator",
          "type": "address"
        },
        {
          "internalType": "bool",
          "name": "approved",
          "type": "bool"
        }
      ],
      "name": "setApprovalForAll",
      "outputs": [],
      "stateMutability": "nonpayable",
      "type": "function"
    },
    {
      "inputs": [
        {
          "internalType": "bytes4",
          "name": "interfaceId",
          "type": "bytes4"
        }
      ],
      "name": "supportsInterface",
      "outputs": [
        {
          "internalType": "bool",
          "name": "",
          "type": "bool"
        }
      ],
      "stateMutability": "view",
      "type": "function"
    },
    {
      "inputs": [],
      "name": "symbol",
      "outputs": [
        {
          "internalType": "string",
          "name": "",
          "type": "string"
        }
      ],
      "stateMutability": "view",
      "type": "function"
    },
    {
      "inputs": [
        {
          "internalType": "uint256",
          "name": "tokenId",
          "type": "uint256"
        }
      ],
      "name": "tokenURI",
      "outputs": [
        {
          "internalType": "string",
          "name": "",
          "type": "string"
        }
      ],
      "stateMutability": "view",
      "type": "function"
    },
    {
      "inputs": [
        {
          "internalType": "address",
          "name": "from",
          "type": "address"
        },
        {
          "internalType": "address",
          "name": "to",
          "type": "address"
        },
        {
          "internalType": "uint256",
          "name": "tokenId",
          "type": "uint256"
        }
      ],
      "name": "transferFrom",
      "outputs": [],
      "stateMutability": "nonpayable",
      "type": "function"
    },
    {
      "inputs": [],
      "name": "userManagement",
      "outputs": [
        {
          "internalType": "contract UserManagement",
          "name": "",
          "type": "address"
        }
      ],
      "stateMutability": "view",
      "type": "function"
    },
    {
      "inputs": [
        {
          "internalType": "uint256",
          "name": "listingId",
          "type": "uint256"
        }
      ],
      "name": "createJobListingNFT",
      "outputs": [
        {
          "internalType": "uint256",
          "name": "",
          "type": "uint256"
        }
      ],
      "stateMutability": "nonpayable",
      "type": "function"
    },
    {
      "inputs": [
        {
          "internalType": "uint256",
          "name": "tokenId",
          "type": "uint256"
        }
      ],
      "name": "getJobListing",
      "outputs": [
        {
          "components": [
            {
              "internalType": "string",
              "name": "title",
              "type": "string"
            },
            {
              "internalType": "string",
              "name": "description",
              "type": "string"
            },
            {
              "internalType": "uint256",
              "name": "salary",
              "type": "uint256"
            },
            {
              "internalType": "address",
              "name": "company",
              "type": "address"
            }
          ],
          "internalType": "struct JobListings.JobListing",
          "name": "",
          "type": "tuple"
        }
      ],
      "stateMutability": "view",
      "type": "function"
    },
    {
      "inputs": [
        {
          "internalType": "uint256",
          "name": "tokenId",
          "type": "uint256"
        },
        {
          "internalType": "string",
          "name": "message",
          "type": "string"
        }
      ],
      "name": "applyForJob",
      "outputs": [],
      "stateMutability": "nonpayable",
      "type": "function"
    },
    {
      "inputs": [
        {
          "internalType": "uint256",
          "name": "tokenId",
          "type": "uint256"
        }
      ],
      "name": "getJobApplications",
      "outputs": [
        {
          "components": [
            {
              "internalType": "uint256",
              "name": "applicationId",
              "type": "uint256"
            },
            {
              "internalType": "uint256",
              "name": "jobListingId",
              "type": "uint256"
            },
            {
              "internalType": "uint256",
              "name": "candidateId",
              "type": "uint256"
            },
            {
              "internalType": "string",
              "name": "message",
              "type": "string"
            },
            {
              "internalType": "bool",
              "name": "isHired",
              "type": "bool"
            },
            {
              "internalType": "bool",
              "name": "isRejected",
              "type": "bool"
            }
          ],
          "internalType": "struct JobListingsNFT.JobApplication[]",
          "name": "",
          "type": "tuple[]"
        }
      ],
      "stateMutability": "view",
      "type": "function"
    },
    {
      "inputs": [
        {
          "internalType": "uint256",
          "name": "tokenId",
          "type": "uint256"
        },
        {
          "internalType": "uint256",
          "name": "applicationId",
          "type": "uint256"
        }
      ],
      "name": "hireCandidate",
      "outputs": [],
      "stateMutability": "nonpayable",
      "type": "function"
    },
    {
      "inputs": [
        {
          "internalType": "uint256",
          "name": "tokenId",
          "type": "uint256"
        },
        {
          "internalType": "uint256",
          "name": "applicationId",
          "type": "uint256"
        }
      ],
      "name": "rejectCandidate",
      "outputs": [],
      "stateMutability": "nonpayable",
      "type": "function"
    }
  ],
  "bytecode": "0x60806040523480156200001157600080fd5b5060405162005266380380620052668339818101604052810190620000379190620001ff565b6040518060400160405280600e81526020017f4a6f624c697374696e67734e46540000000000000000000000000000000000008152506040518060400160405280600381526020017f4a4c4e00000000000000000000000000000000000000000000000000000000008152508160009081620000b49190620004db565b508060019081620000c69190620004db565b50505082600860006101000a81548173ffffffffffffffffffffffffffffffffffffffff021916908373ffffffffffffffffffffffffffffffffffffffff16021790555081600c60006101000a81548173ffffffffffffffffffffffffffffffffffffffff021916908373ffffffffffffffffffffffffffffffffffffffff16021790555080600a60006101000a81548173ffffffffffffffffffffffffffffffffffffffff021916908373ffffffffffffffffffffffffffffffffffffffff160217905550505050620005c2565b600080fd5b600073ffffffffffffffffffffffffffffffffffffffff82169050919050565b6000620001c7826200019a565b9050919050565b620001d981620001ba565b8114620001e557600080fd5b50565b600081519050620001f981620001ce565b92915050565b6000806000606084860312156200021b576200021a62000195565b5b60006200022b86828701620001e8565b93505060206200023e86828701620001e8565b92505060406200025186828701620001e8565b9150509250925092565b600081519050919050565b7f4e487b7100000000000000000000000000000000000000000000000000000000600052604160045260246000fd5b7f4e487b7100000000000000000000000000000000000000000000000000000000600052602260045260246000fd5b60006002820490506001821680620002dd57607f821691505b602082108103620002f357620002f262000295565b5b50919050565b60008190508160005260206000209050919050565b60006020601f8301049050919050565b60008160020a8302905092915050565b600060088302620003607fffffffffffffffffffffffffffffffffffffffffffffffffffffffffffffffff826200031e565b6200036c86836200031e565b95508019841693508086168417925050509392505050565b6000819050919050565b6000819050919050565b6000620003b9620003b3620003ad8462000384565b6200038e565b62000384565b9050919050565b6000819050919050565b620003d58362000398565b620003ed620003e482620003c0565b8484546200032e565b825550505050565b600090565b62000404620003f5565b62000411818484620003ca565b505050565b5b8181101562000439576200042d600082620003fa565b60018101905062000417565b5050565b601f82111562000488576200045281620002f9565b6200045d846200030e565b810160208510156200046d578190505b620004856200047c856200030e565b83018262000416565b50505b505050565b60008160020a8304905092915050565b6000620004b0600019846008026200048d565b1980831691505092915050565b6000620004cb83836200049d565b9150826002028217905092915050565b620004e6826200025b565b67ffffffffffffffff81111562000502576200050162000266565b5b6200050e8254620002c4565b6200051b8282856200043d565b600060209050601f8311600181146200055357600084156200053e578287015190505b6200054a8582620004bd565b865550620005ba565b601f1984166200056386620002f9565b60005b828110156200058d5784890151825560018201915060208501945060208101905062000566565b86831015620005ad5784890151620005a9601f8916826200049d565b8355505b6001600288020188555050505b505050505050565b614c9480620005d26000396000f3fe608060405234801561001057600080fd5b5060043610610149576000357c010000000000000000000000000000000000000000000000000000000090048063747143b9116100ca578063c87b56dd1161008e578063c87b56dd14610370578063ca3a626f146103a0578063d70af499146103bc578063e89141c3146103d8578063e985e9c51461040857610149565b8063747143b9146102ba57806395d89b41146102ea5780639ababda214610308578063a22cb46514610338578063b88d4fde1461035457610149565b806342842e0e1161011157806342842e0e146102045780636352211e146102205780636a767f50146102505780636c09a5e31461026e57806370a082311461028a57610149565b806301ffc9a71461014e57806306fdde031461017e578063081812fc1461019c578063095ea7b3146101cc57806323b872dd146101e8575b600080fd5b61016860048036038101906101639190612e3e565b610438565b6040516101759190612e86565b60405180910390f35b61018661051a565b6040516101939190612f31565b60405180910390f35b6101b660048036038101906101b19190612f89565b6105ac565b6040516101c39190612ff7565b60405180910390f35b6101e660048036038101906101e1919061303e565b6105f2565b005b61020260048036038101906101fd919061307e565b610709565b005b61021e6004803603810190610219919061307e565b610769565b005b61023a60048036038101906102359190612f89565b610789565b6040516102479190612ff7565b60405180910390f35b61025861080f565b6040516102659190613130565b60405180910390f35b61028860048036038101906102839190613280565b610835565b005b6102a4600480360381019061029f91906132dc565b610c5e565b6040516102b19190613318565b60405180910390f35b6102d460048036038101906102cf9190612f89565b610d15565b6040516102e191906134e6565b60405180910390f35b6102f2610e6d565b6040516102ff9190612f31565b60405180910390f35b610322600480360381019061031d9190612f89565b610eff565b60405161032f9190613318565b60405180910390f35b610352600480360381019061034d9190613534565b611124565b005b61036e60048036038101906103699190613615565b61113a565b005b61038a60048036038101906103859190612f89565b61119c565b6040516103979190612f31565b60405180910390f35b6103ba60048036038101906103b59190613698565b6112ae565b005b6103d660048036038101906103d19190613698565b611601565b005b6103f260048036038101906103ed9190612f89565b611b22565b6040516103ff9190613751565b60405180910390f35b610422600480360381019061041d9190613773565b611cd3565b60405161042f9190612e86565b60405180910390f35b60007f80ac58cd000000000000000000000000000000000000000000000000000000007bffffffffffffffffffffffffffffffffffffffffffffffffffffffff1916827bffffffffffffffffffffffffffffffffffffffffffffffffffffffff1916148061050357507f5b5e139f000000000000000000000000000000000000000000000000000000007bffffffffffffffffffffffffffffffffffffffffffffffffffffffff1916827bffffffffffffffffffffffffffffffffffffffffffffffffffffffff1916145b80610513575061051282611d67565b5b9050919050565b606060008054610529906137e2565b80601f0160208091040260200160405190810160405280929190818152602001828054610555906137e2565b80156105a25780601f10610577576101008083540402835291602001916105a2565b820191906000526020600020905b81548152906001019060200180831161058557829003601f168201915b5050505050905090565b60006105b782611dd1565b6004600083815260200190815260200160002060009054906101000a900473ffffffffffffffffffffffffffffffffffffffff169050919050565b60006105fd82610789565b90508073ffffffffffffffffffffffffffffffffffffffff168373ffffffffffffffffffffffffffffffffffffffff160361066d576040517f08c379a000000000000000000000000000000000000000000000000000000000815260040161066490613885565b60405180910390fd5b8073ffffffffffffffffffffffffffffffffffffffff1661068c611e1c565b73ffffffffffffffffffffffffffffffffffffffff1614806106bb57506106ba816106b5611e1c565b611cd3565b5b6106fa576040517f08c379a00000000000000000000000000000000000000000000000000000000081526004016106f190613917565b60405180910390fd5b6107048383611e24565b505050565b61071a610714611e1c565b82611edd565b610759576040517f08c379a0000000000000000000000000000000000000000000000000000000008152600401610750906139a9565b60405180910390fd5b610764838383611f72565b505050565b6107848383836040518060200160405280600081525061113a565b505050565b6000806107958361226b565b9050600073ffffffffffffffffffffffffffffffffffffffff168173ffffffffffffffffffffffffffffffffffffffff1603610806576040517f08c379a00000000000000000000000000000000000000000000000000000000081526004016107fd90613a15565b60405180910390fd5b80915050919050565b600a60009054906101000a900473ffffffffffffffffffffffffffffffffffffffff1681565b600060096000848152602001908152602001600020604051806080016040529081600082018054610865906137e2565b80601f0160208091040260200160405190810160405280929190818152602001828054610891906137e2565b80156108de5780601f106108b3576101008083540402835291602001916108de565b820191906000526020600020905b8154815290600101906020018083116108c157829003601f168201915b505050505081526020016001820180546108f7906137e2565b80601f0160208091040260200160405190810160405280929190818152602001828054610923906137e2565b80156109705780601f1061094557610100808354040283529160200191610970565b820191906000526020600020905b81548152906001019060200180831161095357829003601f168201915b50505050508152602001600282015481526020016003820160009054906101000a900473ffffffffffffffffffffffffffffffffffffffff1673ffffffffffffffffffffffffffffffffffffffff1673ffffffffffffffffffffffffffffffffffffffff168152505090503373ffffffffffffffffffffffffffffffffffffffff16816060015173ffffffffffffffffffffffffffffffffffffffff1603610a4d576040517f08c379a0000000000000000000000000000000000000000000000000000000008152600401610a4490613aa7565b60405180910390fd5b6000600a60009054906101000a900473ffffffffffffffffffffffffffffffffffffffff1673ffffffffffffffffffffffffffffffffffffffff166369c212f6336040518263ffffffff167c0100000000000000000000000000000000000000000000000000000000028152600401610ac69190612ff7565b600060405180830381865afa158015610ae3573d6000803e3d6000fd5b505050506040513d6000823e3d601f19601f82011682018060405250810190610b0c9190613d11565b90506000600b60008681526020019081526020016000209050600060018280549050610b389190613d89565b9050816040518060c00160405280838152602001888152602001856000015181526020018781526020016000151581526020016000151581525090806001815401808255809150506001900390600052602060002090600502016000909190919091506000820151816000015560208201518160010155604082015181600201556060820151816003019081610bce9190613f65565b5060808201518160040160006101000a81548160ff02191690831515021790555060a08201518160040160016101000a81548160ff02191690831515021790555050503373ffffffffffffffffffffffffffffffffffffffff1686827f9ca4984c3198c7f7cee40728c939749687ac9a1cf8867920bd4aef9500d18b2560405160405180910390a4505050505050565b60008073ffffffffffffffffffffffffffffffffffffffff168273ffffffffffffffffffffffffffffffffffffffff1603610cce576040517f08c379a0000000000000000000000000000000000000000000000000000000008152600401610cc5906140a9565b60405180910390fd5b600360008373ffffffffffffffffffffffffffffffffffffffff1673ffffffffffffffffffffffffffffffffffffffff168152602001908152602001600020549050919050565b6060600b6000838152602001908152602001600020805480602002602001604051908101604052809291908181526020016000905b82821015610e6257838290600052602060002090600502016040518060c0016040529081600082015481526020016001820154815260200160028201548152602001600382018054610d9b906137e2565b80601f0160208091040260200160405190810160405280929190818152602001828054610dc7906137e2565b8015610e145780601f10610de957610100808354040283529160200191610e14565b820191906000526020600020905b815481529060010190602001808311610df757829003601f168201915b505050505081526020016004820160009054906101000a900460ff161515151581526020016004820160019054906101000a900460ff16151515158152505081526020019060010190610d4a565b505050509050919050565b606060018054610e7c906137e2565b80601f0160208091040260200160405190810160405280929190818152602001828054610ea8906137e2565b8015610ef55780601f10610eca57610100808354040283529160200191610ef5565b820191906000526020600020905b815481529060010190602001808311610ed857829003601f168201915b5050505050905090565b600080600860009054906101000a900473ffffffffffffffffffffffffffffffffffffffff1673ffffffffffffffffffffffffffffffffffffffff1663107a274a846040518263ffffffff167c0100000000000000000000000000000000000000000000000000000000028152600401610f799190613318565b600060405180830381865afa158015610f96573d6000803e3d6000fd5b505050506040513d6000823e3d601f19601f82011682018060405250810190610fbf9190614179565b90503373ffffffffffffffffffffffffffffffffffffffff16816060015173ffffffffffffffffffffffffffffffffffffffff1614611033576040517f08c379a000000000000000000000000000000000000000000000000000000000815260040161102a90614234565b60405180910390fd5b61103d60076122a8565b600061104960076122be565b905061105533826122cc565b61108681611062836124e9565b6040516020016110729190614302565b604051602081830303815290604052612690565b816009600083815260200190815260200160002060008201518160000190816110af9190613f65565b5060208201518160010190816110c59190613f65565b506040820151816002015560608201518160030160006101000a81548173ffffffffffffffffffffffffffffffffffffffff021916908373ffffffffffffffffffffffffffffffffffffffff1602179055509050508092505050919050565b61113661112f611e1c565b83836126fd565b5050565b61114b611145611e1c565b83611edd565b61118a576040517f08c379a0000000000000000000000000000000000000000000000000000000008152600401611181906139a9565b60405180910390fd5b61119684848484612869565b50505050565b60606111a782611dd1565b60006006600084815260200190815260200160002080546111c7906137e2565b80601f01602080910402602001604051908101604052809291908181526020018280546111f3906137e2565b80156112405780601f1061121557610100808354040283529160200191611240565b820191906000526020600020905b81548152906001019060200180831161122357829003601f168201915b5050505050905060006112516128c5565b905060008151036112665781925050506112a9565b60008251111561129b578082604051602001611283929190614324565b604051602081830303815290604052925050506112a9565b6112a4846128dc565b925050505b919050565b6000600b600084815260200190815260200160002082815481106112d5576112d4614348565b5b906000526020600020906005020190508281600101541461132b576040517f08c379a0000000000000000000000000000000000000000000000000000000008152600401611322906143e9565b60405180910390fd5b60006009600085815260200190815260200160002060405180608001604052908160008201805461135b906137e2565b80601f0160208091040260200160405190810160405280929190818152602001828054611387906137e2565b80156113d45780601f106113a9576101008083540402835291602001916113d4565b820191906000526020600020905b8154815290600101906020018083116113b757829003601f168201915b505050505081526020016001820180546113ed906137e2565b80601f0160208091040260200160405190810160405280929190818152602001828054611419906137e2565b80156114665780601f1061143b57610100808354040283529160200191611466565b820191906000526020600020905b81548152906001019060200180831161144957829003601f168201915b50505050508152602001600282015481526020016003820160009054906101000a900473ffffffffffffffffffffffffffffffffffffffff1673ffffffffffffffffffffffffffffffffffffffff1673ffffffffffffffffffffffffffffffffffffffff168152505090503373ffffffffffffffffffffffffffffffffffffffff16816060015173ffffffffffffffffffffffffffffffffffffffff1614611543576040517f08c379a000000000000000000000000000000000000000000000000000000000815260040161153a9061447b565b60405180910390fd5b8160040160009054906101000a900460ff1615801561157157508160040160019054906101000a900460ff16155b6115b0576040517f08c379a00000000000000000000000000000000000000000000000000000000081526004016115a79061450d565b60405180910390fd5b60018260040160016101000a81548160ff02191690831515021790555082847f3a86f4526308fdf31df507eb6ff2d8f8b0cd082d6481086c0d74fecdb8e25fbd60405160405180910390a350505050565b6000600b6000848152602001908152602001600020828154811061162857611627614348565b5b906000526020600020906005020190508281600101541461167e576040517f08c379a0000000000000000000000000000000000000000000000000000000008152600401611675906143e9565b60405180910390fd5b6000600960008581526020019081526020016000206040518060800160405290816000820180546116ae906137e2565b80601f01602080910402602001604051908101604052809291908181526020018280546116da906137e2565b80156117275780601f106116fc57610100808354040283529160200191611727565b820191906000526020600020905b81548152906001019060200180831161170a57829003601f168201915b50505050508152602001600182018054611740906137e2565b80601f016020809104026020016040519081016040528092919081815260200182805461176c906137e2565b80156117b95780601f1061178e576101008083540402835291602001916117b9565b820191906000526020600020905b81548152906001019060200180831161179c57829003601f168201915b50505050508152602001600282015481526020016003820160009054906101000a900473ffffffffffffffffffffffffffffffffffffffff1673ffffffffffffffffffffffffffffffffffffffff1673ffffffffffffffffffffffffffffffffffffffff168152505090503373ffffffffffffffffffffffffffffffffffffffff16816060015173ffffffffffffffffffffffffffffffffffffffff1614611896576040517f08c379a000000000000000000000000000000000000000000000000000000000815260040161188d9061459f565b60405180910390fd5b8160040160009054906101000a900460ff161580156118c457508160040160019054906101000a900460ff16155b611903576040517f08c379a00000000000000000000000000000000000000000000000000000000081526004016118fa9061450d565b60405180910390fd5b60018260040160006101000a81548160ff0219169083151502179055506000816040015190506000600a60009054906101000a900473ffffffffffffffffffffffffffffffffffffffff1673ffffffffffffffffffffffffffffffffffffffff166369c212f6336040518263ffffffff167c01000000000000000000000000000000000000000000000000000000000281526004016119a29190612ff7565b600060405180830381865afa1580156119bf573d6000803e3d6000fd5b505050506040513d6000823e3d601f19601f820116820180604052508101906119e89190613d11565b9050600c60009054906101000a900473ffffffffffffffffffffffffffffffffffffffff1673ffffffffffffffffffffffffffffffffffffffff166323b872dd33836101000151856040518463ffffffff167c0100000000000000000000000000000000000000000000000000000000028152600401611a6a939291906145bf565b6020604051808303816000875af1158015611a89573d6000803e3d6000fd5b505050506040513d601f19601f82011682018060405250810190611aad91906145f6565b611aec576040517f08c379a0000000000000000000000000000000000000000000000000000000008152600401611ae39061466f565b60405180910390fd5b84867faab531832690b89d89d813214a4ab5a57ab1593edc6729b1da3c68c10623a95f60405160405180910390a3505050505050565b611b2a612d94565b60096000838152602001908152602001600020604051806080016040529081600082018054611b58906137e2565b80601f0160208091040260200160405190810160405280929190818152602001828054611b84906137e2565b8015611bd15780601f10611ba657610100808354040283529160200191611bd1565b820191906000526020600020905b815481529060010190602001808311611bb457829003601f168201915b50505050508152602001600182018054611bea906137e2565b80601f0160208091040260200160405190810160405280929190818152602001828054611c16906137e2565b8015611c635780601f10611c3857610100808354040283529160200191611c63565b820191906000526020600020905b815481529060010190602001808311611c4657829003601f168201915b50505050508152602001600282015481526020016003820160009054906101000a900473ffffffffffffffffffffffffffffffffffffffff1673ffffffffffffffffffffffffffffffffffffffff1673ffffffffffffffffffffffffffffffffffffffff16815250509050919050565b6000600560008473ffffffffffffffffffffffffffffffffffffffff1673ffffffffffffffffffffffffffffffffffffffff16815260200190815260200160002060008373ffffffffffffffffffffffffffffffffffffffff1673ffffffffffffffffffffffffffffffffffffffff16815260200190815260200160002060009054906101000a900460ff16905092915050565b60007f01ffc9a7000000000000000000000000000000000000000000000000000000007bffffffffffffffffffffffffffffffffffffffffffffffffffffffff1916827bffffffffffffffffffffffffffffffffffffffffffffffffffffffff1916149050919050565b611dda81612944565b611e19576040517f08c379a0000000000000000000000000000000000000000000000000000000008152600401611e1090613a15565b60405180910390fd5b50565b600033905090565b816004600083815260200190815260200160002060006101000a81548173ffffffffffffffffffffffffffffffffffffffff021916908373ffffffffffffffffffffffffffffffffffffffff160217905550808273ffffffffffffffffffffffffffffffffffffffff16611e9783610789565b73ffffffffffffffffffffffffffffffffffffffff167f8c5be1e5ebec7d5bd14f71427d1e84f3dd0314c0f7b2291e5b200ac8c7c3b92560405160405180910390a45050565b600080611ee983610789565b90508073ffffffffffffffffffffffffffffffffffffffff168473ffffffffffffffffffffffffffffffffffffffff161480611f2b5750611f2a8185611cd3565b5b80611f6957508373ffffffffffffffffffffffffffffffffffffffff16611f51846105ac565b73ffffffffffffffffffffffffffffffffffffffff16145b91505092915050565b8273ffffffffffffffffffffffffffffffffffffffff16611f9282610789565b73ffffffffffffffffffffffffffffffffffffffff1614611fe8576040517f08c379a0000000000000000000000000000000000000000000000000000000008152600401611fdf90614701565b60405180910390fd5b600073ffffffffffffffffffffffffffffffffffffffff168273ffffffffffffffffffffffffffffffffffffffff1603612057576040517f08c379a000000000000000000000000000000000000000000000000000000000815260040161204e90614793565b60405180910390fd5b6120648383836001612985565b8273ffffffffffffffffffffffffffffffffffffffff1661208482610789565b73ffffffffffffffffffffffffffffffffffffffff16146120da576040517f08c379a00000000000000000000000000000000000000000000000000000000081526004016120d190614701565b60405180910390fd5b6004600082815260200190815260200160002060006101000a81549073ffffffffffffffffffffffffffffffffffffffff02191690556001600360008573ffffffffffffffffffffffffffffffffffffffff1673ffffffffffffffffffffffffffffffffffffffff168152602001908152602001600020600082825403925050819055506001600360008473ffffffffffffffffffffffffffffffffffffffff1673ffffffffffffffffffffffffffffffffffffffff16815260200190815260200160002060008282540192505081905550816002600083815260200190815260200160002060006101000a81548173ffffffffffffffffffffffffffffffffffffffff021916908373ffffffffffffffffffffffffffffffffffffffff160217905550808273ffffffffffffffffffffffffffffffffffffffff168473ffffffffffffffffffffffffffffffffffffffff167fddf252ad1be2c89b69c2b068fc378daa952ba7f163c4a11628f55a4df523b3ef60405160405180910390a4612266838383600161298b565b505050565b60006002600083815260200190815260200160002060009054906101000a900473ffffffffffffffffffffffffffffffffffffffff169050919050565b6001816000016000828254019250508190555050565b600081600001549050919050565b600073ffffffffffffffffffffffffffffffffffffffff168273ffffffffffffffffffffffffffffffffffffffff160361233b576040517f08c379a0000000000000000000000000000000000000000000000000000000008152600401612332906147ff565b60405180910390fd5b61234481612944565b15612384576040517f08c379a000000000000000000000000000000000000000000000000000000000815260040161237b9061486b565b60405180910390fd5b612392600083836001612985565b61239b81612944565b156123db576040517f08c379a00000000000000000000000000000000000000000000000000000000081526004016123d29061486b565b60405180910390fd5b6001600360008473ffffffffffffffffffffffffffffffffffffffff1673ffffffffffffffffffffffffffffffffffffffff16815260200190815260200160002060008282540192505081905550816002600083815260200190815260200160002060006101000a81548173ffffffffffffffffffffffffffffffffffffffff021916908373ffffffffffffffffffffffffffffffffffffffff160217905550808273ffffffffffffffffffffffffffffffffffffffff16600073ffffffffffffffffffffffffffffffffffffffff167fddf252ad1be2c89b69c2b068fc378daa952ba7f163c4a11628f55a4df523b3ef60405160405180910390a46124e560008383600161298b565b5050565b606060008203612530576040518060400160405280600181526020017f3000000000000000000000000000000000000000000000000000000000000000815250905061268b565b600082905060005b6000821461256257808061254b9061488b565b915050600a8261255b9190614902565b9150612538565b60008167ffffffffffffffff81111561257e5761257d613155565b5b6040519080825280601f01601f1916602001820160405280156125b05781602001600182028036833780820191505090505b50905060008290505b60008614612683576001816125ce9190614933565b90506000600a80886125e09190614902565b6125ea9190614967565b876125f59190614933565b603061260191906149b6565b90506000817f01000000000000000000000000000000000000000000000000000000000000000290508084848151811061263e5761263d614348565b5b60200101907effffffffffffffffffffffffffffffffffffffffffffffffffffffffffffff1916908160001a905350600a8861267a9190614902565b975050506125b9565b819450505050505b919050565b61269982612944565b6126d8576040517f08c379a00000000000000000000000000000000000000000000000000000000081526004016126cf90614a5d565b60405180910390fd5b806006600084815260200190815260200160002090816126f89190613f65565b505050565b8173ffffffffffffffffffffffffffffffffffffffff168373ffffffffffffffffffffffffffffffffffffffff160361276b576040517f08c379a000000000000000000000000000000000000000000000000000000000815260040161276290614ac9565b60405180910390fd5b80600560008573ffffffffffffffffffffffffffffffffffffffff1673ffffffffffffffffffffffffffffffffffffffff16815260200190815260200160002060008473ffffffffffffffffffffffffffffffffffffffff1673ffffffffffffffffffffffffffffffffffffffff16815260200190815260200160002060006101000a81548160ff0219169083151502179055508173ffffffffffffffffffffffffffffffffffffffff168373ffffffffffffffffffffffffffffffffffffffff167f17307eab39ab6107e8899845ad3d59bd9653f200f220920489ca2b5937696c318360405161285c9190612e86565b60405180910390a3505050565b612874848484611f72565b61288084848484612991565b6128bf576040517f08c379a00000000000000000000000000000000000000000000000000000000081526004016128b690614b5b565b60405180910390fd5b50505050565b606060405180602001604052806000815250905090565b60606128e782611dd1565b60006128f16128c5565b90506000815111612911576040518060200160405280600081525061293c565b8061291b84612b50565b60405160200161292c929190614324565b6040516020818303038152906040525b915050919050565b60008073ffffffffffffffffffffffffffffffffffffffff166129668361226b565b73ffffffffffffffffffffffffffffffffffffffff1614159050919050565b50505050565b50505050565b60006129b28473ffffffffffffffffffffffffffffffffffffffff16612c1e565b15612b43578373ffffffffffffffffffffffffffffffffffffffff1663150b7a026129db611e1c565b8786866040518563ffffffff167c0100000000000000000000000000000000000000000000000000000000028152600401612a199493929190614bd0565b6020604051808303816000875af1925050508015612a5557506040513d601f19601f82011682018060405250810190612a529190614c31565b60015b612ad7573d8060008114612a85576040519150601f19603f3d011682016040523d82523d6000602084013e612a8a565b606091505b506000815103612acf576040517f08c379a0000000000000000000000000000000000000000000000000000000008152600401612ac690614b5b565b60405180910390fd5b805181602001fd5b63150b7a027c0100000000000000000000000000000000000000000000000000000000027bffffffffffffffffffffffffffffffffffffffffffffffffffffffff1916817bffffffffffffffffffffffffffffffffffffffffffffffffffffffff191614915050612b48565b600190505b949350505050565b606060006001612b5f84612c41565b01905060008167ffffffffffffffff811115612b7e57612b7d613155565b5b6040519080825280601f01601f191660200182016040528015612bb05781602001600182028036833780820191505090505b509050600082602001820190505b600115612c13578080600190039150507f3031323334353637383961626364656600000000000000000000000000000000600a86061a8153600a8581612c0757612c066148d3565b5b04945060008503612bbe575b819350505050919050565b6000808273ffffffffffffffffffffffffffffffffffffffff163b119050919050565b600080600090507a184f03e93ff9f4daa797ed6e38ed64bf6a1f0100000000000000008310612c9f577a184f03e93ff9f4daa797ed6e38ed64bf6a1f0100000000000000008381612c9557612c946148d3565b5b0492506040810190505b6d04ee2d6d415b85acef81000000008310612cdc576d04ee2d6d415b85acef81000000008381612cd257612cd16148d3565b5b0492506020810190505b662386f26fc100008310612d0b57662386f26fc100008381612d0157612d006148d3565b5b0492506010810190505b6305f5e1008310612d34576305f5e1008381612d2a57612d296148d3565b5b0492506008810190505b6127108310612d59576127108381612d4f57612d4e6148d3565b5b0492506004810190505b60648310612d7c5760648381612d7257612d716148d3565b5b0492506002810190505b600a8310612d8b576001810190505b80915050919050565b6040518060800160405280606081526020016060815260200160008152602001600073ffffffffffffffffffffffffffffffffffffffff1681525090565b6000604051905090565b600080fd5b600080fd5b60007fffffffff0000000000000000000000000000000000000000000000000000000082169050919050565b612e1b81612de6565b8114612e2657600080fd5b50565b600081359050612e3881612e12565b92915050565b600060208284031215612e5457612e53612ddc565b5b6000612e6284828501612e29565b91505092915050565b60008115159050919050565b612e8081612e6b565b82525050565b6000602082019050612e9b6000830184612e77565b92915050565b600081519050919050565b600082825260208201905092915050565b60005b83811015612edb578082015181840152602081019050612ec0565b60008484015250505050565b6000601f19601f8301169050919050565b6000612f0382612ea1565b612f0d8185612eac565b9350612f1d818560208601612ebd565b612f2681612ee7565b840191505092915050565b60006020820190508181036000830152612f4b8184612ef8565b905092915050565b6000819050919050565b612f6681612f53565b8114612f7157600080fd5b50565b600081359050612f8381612f5d565b92915050565b600060208284031215612f9f57612f9e612ddc565b5b6000612fad84828501612f74565b91505092915050565b600073ffffffffffffffffffffffffffffffffffffffff82169050919050565b6000612fe182612fb6565b9050919050565b612ff181612fd6565b82525050565b600060208201905061300c6000830184612fe8565b92915050565b61301b81612fd6565b811461302657600080fd5b50565b60008135905061303881613012565b92915050565b6000806040838503121561305557613054612ddc565b5b600061306385828601613029565b925050602061307485828601612f74565b9150509250929050565b60008060006060848603121561309757613096612ddc565b5b60006130a586828701613029565b93505060206130b686828701613029565b92505060406130c786828701612f74565b9150509250925092565b6000819050919050565b60006130f66130f16130ec84612fb6565b6130d1565b612fb6565b9050919050565b6000613108826130db565b9050919050565b600061311a826130fd565b9050919050565b61312a8161310f565b82525050565b60006020820190506131456000830184613121565b92915050565b600080fd5b600080fd5b7f4e487b7100000000000000000000000000000000000000000000000000000000600052604160045260246000fd5b61318d82612ee7565b810181811067ffffffffffffffff821117156131ac576131ab613155565b5b80604052505050565b60006131bf612dd2565b90506131cb8282613184565b919050565b600067ffffffffffffffff8211156131eb576131ea613155565b5b6131f482612ee7565b9050602081019050919050565b82818337600083830152505050565b600061322361321e846131d0565b6131b5565b90508281526020810184848401111561323f5761323e613150565b5b61324a848285613201565b509392505050565b600082601f8301126132675761326661314b565b5b8135613277848260208601613210565b91505092915050565b6000806040838503121561329757613296612ddc565b5b60006132a585828601612f74565b925050602083013567ffffffffffffffff8111156132c6576132c5612de1565b5b6132d285828601613252565b9150509250929050565b6000602082840312156132f2576132f1612ddc565b5b600061330084828501613029565b91505092915050565b61331281612f53565b82525050565b600060208201905061332d6000830184613309565b92915050565b600081519050919050565b600082825260208201905092915050565b6000819050602082019050919050565b61336881612f53565b82525050565b600082825260208201905092915050565b600061338a82612ea1565b613394818561336e565b93506133a4818560208601612ebd565b6133ad81612ee7565b840191505092915050565b6133c181612e6b565b82525050565b600060c0830160008301516133df600086018261335f565b5060208301516133f2602086018261335f565b506040830151613405604086018261335f565b506060830151848203606086015261341d828261337f565b915050608083015161343260808601826133b8565b5060a083015161344560a08601826133b8565b508091505092915050565b600061345c83836133c7565b905092915050565b6000602082019050919050565b600061347c82613333565b613486818561333e565b9350836020820285016134988561334f565b8060005b858110156134d457848403895281516134b58582613450565b94506134c083613464565b925060208a0199505060018101905061349c565b50829750879550505050505092915050565b600060208201905081810360008301526135008184613471565b905092915050565b61351181612e6b565b811461351c57600080fd5b50565b60008135905061352e81613508565b92915050565b6000806040838503121561354b5761354a612ddc565b5b600061355985828601613029565b925050602061356a8582860161351f565b9150509250929050565b600067ffffffffffffffff82111561358f5761358e613155565b5b61359882612ee7565b9050602081019050919050565b60006135b86135b384613574565b6131b5565b9050828152602081018484840111156135d4576135d3613150565b5b6135df848285613201565b509392505050565b600082601f8301126135fc576135fb61314b565b5b813561360c8482602086016135a5565b91505092915050565b6000806000806080858703121561362f5761362e612ddc565b5b600061363d87828801613029565b945050602061364e87828801613029565b935050604061365f87828801612f74565b925050606085013567ffffffffffffffff8111156136805761367f612de1565b5b61368c878288016135e7565b91505092959194509250565b600080604083850312156136af576136ae612ddc565b5b60006136bd85828601612f74565b92505060206136ce85828601612f74565b9150509250929050565b6136e181612fd6565b82525050565b60006080830160008301518482036000860152613704828261337f565b9150506020830151848203602086015261371e828261337f565b9150506040830151613733604086018261335f565b50606083015161374660608601826136d8565b508091505092915050565b6000602082019050818103600083015261376b81846136e7565b905092915050565b6000806040838503121561378a57613789612ddc565b5b600061379885828601613029565b92505060206137a985828601613029565b9150509250929050565b7f4e487b7100000000000000000000000000000000000000000000000000000000600052602260045260246000fd5b600060028204905060018216806137fa57607f821691505b60208210810361380d5761380c6137b3565b5b50919050565b7f4552433732313a20617070726f76616c20746f2063757272656e74206f776e6560008201527f7200000000000000000000000000000000000000000000000000000000000000602082015250565b600061386f602183612eac565b915061387a82613813565b604082019050919050565b6000602082019050818103600083015261389e81613862565b9050919050565b7f4552433732313a20617070726f76652063616c6c6572206973206e6f7420746f60008201527f6b656e206f776e6572206f7220617070726f76656420666f7220616c6c000000602082015250565b6000613901603d83612eac565b915061390c826138a5565b604082019050919050565b60006020820190508181036000830152613930816138f4565b9050919050565b7f4552433732313a2063616c6c6572206973206e6f7420746f6b656e206f776e6560008201527f72206f7220617070726f76656400000000000000000000000000000000000000602082015250565b6000613993602d83612eac565b915061399e82613937565b604082019050919050565b600060208201905081810360008301526139c281613986565b9050919050565b7f4552433732313a20696e76616c696420746f6b656e2049440000000000000000600082015250565b60006139ff601883612eac565b9150613a0a826139c9565b602082019050919050565b60006020820190508181036000830152613a2e816139f2565b9050919050565b7f456d706c6f796572732063616e6e6f74206170706c7920666f72206a6f62206c60008201527f697374696e677300000000000000000000000000000000000000000000000000602082015250565b6000613a91602783612eac565b9150613a9c82613a35565b604082019050919050565b60006020820190508181036000830152613ac081613a84565b9050919050565b600080fd5b600080fd5b600081519050613ae081612f5d565b92915050565b60028110613af357600080fd5b50565b600081519050613b0581613ae6565b92915050565b6000613b1e613b19846131d0565b6131b5565b905082815260208101848484011115613b3a57613b39613150565b5b613b45848285612ebd565b509392505050565b600082601f830112613b6257613b6161314b565b5b8151613b72848260208601613b0b565b91505092915050565b600081519050613b8a81613508565b92915050565b600081519050613b9f81613012565b92915050565b60006101208284031215613bbc57613bbb613ac7565b5b613bc76101206131b5565b90506000613bd784828501613ad1565b6000830152506020613beb84828501613af6565b602083015250604082015167ffffffffffffffff811115613c0f57613c0e613acc565b5b613c1b84828501613b4d565b604083015250606082015167ffffffffffffffff811115613c3f57613c3e613acc565b5b613c4b84828501613b4d565b606083015250608082015167ffffffffffffffff811115613c6f57613c6e613acc565b5b613c7b84828501613b4d565b60808301525060a082015167ffffffffffffffff811115613c9f57613c9e613acc565b5b613cab84828501613b4d565b60a08301525060c082015167ffffffffffffffff811115613ccf57613cce613acc565b5b613cdb84828501613b4d565b60c08301525060e0613cef84828501613b7b565b60e083015250610100613d0484828501613b90565b6101008301525092915050565b600060208284031215613d2757613d26612ddc565b5b600082015167ffffffffffffffff811115613d4557613d44612de1565b5b613d5184828501613ba5565b91505092915050565b7f4e487b7100000000000000000000000000000000000000000000000000000000600052601160045260246000fd5b6000613d9482612f53565b9150613d9f83612f53565b9250828201905080821115613db757613db6613d5a565b5b92915050565b60008190508160005260206000209050919050565b60006020601f8301049050919050565b60008160020a8302905092915050565b600060088302613e227fffffffffffffffffffffffffffffffffffffffffffffffffffffffffffffffff82613de2565b613e2c8683613de2565b95508019841693508086168417925050509392505050565b6000613e5f613e5a613e5584612f53565b6130d1565b612f53565b9050919050565b6000819050919050565b613e7983613e44565b613e8d613e8582613e66565b848454613df2565b825550505050565b600090565b613ea2613e95565b613ead818484613e70565b505050565b5b81811015613ed157613ec6600082613e9a565b600181019050613eb3565b5050565b601f821115613f1657613ee781613dbd565b613ef084613dd2565b81016020851015613eff578190505b613f13613f0b85613dd2565b830182613eb2565b50505b505050565b60008160020a8304905092915050565b6000613f3c60001984600802613f1b565b1980831691505092915050565b6000613f558383613f2b565b9150826002028217905092915050565b613f6e82612ea1565b67ffffffffffffffff811115613f8757613f86613155565b5b613f9182546137e2565b613f9c828285613ed5565b600060209050601f831160018114613fcf5760008415613fbd578287015190505b613fc78582613f49565b86555061402f565b601f198416613fdd86613dbd565b60005b8281101561400557848901518255600182019150602085019450602081019050613fe0565b86831015614022578489015161401e601f891682613f2b565b8355505b6001600288020188555050505b505050505050565b7f4552433732313a2061646472657373207a65726f206973206e6f74206120766160008201527f6c6964206f776e65720000000000000000000000000000000000000000000000602082015250565b6000614093602983612eac565b915061409e82614037565b604082019050919050565b600060208201905081810360008301526140c281614086565b9050919050565b6000608082840312156140df576140de613ac7565b5b6140e960806131b5565b9050600082015167ffffffffffffffff81111561410957614108613acc565b5b61411584828501613b4d565b600083015250602082015167ffffffffffffffff81111561413957614138613acc565b5b61414584828501613b4d565b602083015250604061415984828501613ad1565b604083015250606061416d84828501613b90565b60608301525092915050565b60006020828403121561418f5761418e612ddc565b5b600082015167ffffffffffffffff8111156141ad576141ac612de1565b5b6141b9848285016140c9565b91505092915050565b7f4f6e6c792074686520636f6d70616e792063616e206372656174652061206a6f60008201527f62206c697374696e67204e465400000000000000000000000000000000000000602082015250565b600061421e602d83612eac565b9150614229826141c2565b604082019050919050565b6000602082019050818103600083015261424d81614211565b9050919050565b600081905092915050565b7f68747470733a2f2f6578616d706c652e636f6d2f6a6f622d6c697374696e677360008201527f2d6e66742f000000000000000000000000000000000000000000000000000000602082015250565b60006142bb602583614254565b91506142c68261425f565b602582019050919050565b60006142dc82612ea1565b6142e68185614254565b93506142f6818560208601612ebd565b80840191505092915050565b600061430d826142ae565b915061431982846142d1565b915081905092915050565b600061433082856142d1565b915061433c82846142d1565b91508190509392505050565b7f4e487b7100000000000000000000000000000000000000000000000000000000600052603260045260246000fd5b7f4170706c69636174696f6e20646f6573206e6f7420636f72726573706f6e642060008201527f746f20746865206a6f62206c697374696e670000000000000000000000000000602082015250565b60006143d3603283612eac565b91506143de82614377565b604082019050919050565b60006020820190508181036000830152614402816143c6565b9050919050565b7f4f6e6c7920636f6d70616e6965732063616e2072656a6563742063616e64696460008201527f6174657300000000000000000000000000000000000000000000000000000000602082015250565b6000614465602483612eac565b915061447082614409565b604082019050919050565b6000602082019050818103600083015261449481614458565b9050919050565b7f43616e6469646174652068617320616c7265616479206265656e20686972656460008201527f206f722072656a65637465640000000000000000000000000000000000000000602082015250565b60006144f7602c83612eac565b91506145028261449b565b604082019050919050565b60006020820190508181036000830152614526816144ea565b9050919050565b7f4f6e6c7920636f6d70616e6965732063616e20686972652063616e646964617460008201527f6573000000000000000000000000000000000000000000000000000000000000602082015250565b6000614589602283612eac565b91506145948261452d565b604082019050919050565b600060208201905081810360008301526145b88161457c565b9050919050565b60006060820190506145d46000830186612fe8565b6145e16020830185612fe8565b6145ee6040830184613309565b949350505050565b60006020828403121561460c5761460b612ddc565b5b600061461a84828501613b7b565b91505092915050565b7f546f6b656e207472616e73666572206661696c65640000000000000000000000600082015250565b6000614659601583612eac565b915061466482614623565b602082019050919050565b600060208201905081810360008301526146888161464c565b9050919050565b7f4552433732313a207472616e736665722066726f6d20696e636f72726563742060008201527f6f776e6572000000000000000000000000000000000000000000000000000000602082015250565b60006146eb602583612eac565b91506146f68261468f565b604082019050919050565b6000602082019050818103600083015261471a816146de565b9050919050565b7f4552433732313a207472616e7366657220746f20746865207a65726f2061646460008201527f7265737300000000000000000000000000000000000000000000000000000000602082015250565b600061477d602483612eac565b915061478882614721565b604082019050919050565b600060208201905081810360008301526147ac81614770565b9050919050565b7f4552433732313a206d696e7420746f20746865207a65726f2061646472657373600082015250565b60006147e9602083612eac565b91506147f4826147b3565b602082019050919050565b60006020820190508181036000830152614818816147dc565b9050919050565b7f4552433732313a20746f6b656e20616c7265616479206d696e74656400000000600082015250565b6000614855601c83612eac565b91506148608261481f565b602082019050919050565b6000602082019050818103600083015261488481614848565b9050919050565b600061489682612f53565b91507fffffffffffffffffffffffffffffffffffffffffffffffffffffffffffffffff82036148c8576148c7613d5a565b5b600182019050919050565b7f4e487b7100000000000000000000000000000000000000000000000000000000600052601260045260246000fd5b600061490d82612f53565b915061491883612f53565b925082614928576149276148d3565b5b828204905092915050565b600061493e82612f53565b915061494983612f53565b925082820390508181111561496157614960613d5a565b5b92915050565b600061497282612f53565b915061497d83612f53565b925082820261498b81612f53565b915082820484148315176149a2576149a1613d5a565b5b5092915050565b600060ff82169050919050565b60006149c1826149a9565b91506149cc836149a9565b9250828201905060ff8111156149e5576149e4613d5a565b5b92915050565b7f45524337323155524953746f726167653a2055524920736574206f66206e6f6e60008201527f6578697374656e7420746f6b656e000000000000000000000000000000000000602082015250565b6000614a47602e83612eac565b9150614a52826149eb565b604082019050919050565b60006020820190508181036000830152614a7681614a3a565b9050919050565b7f4552433732313a20617070726f766520746f2063616c6c657200000000000000600082015250565b6000614ab3601983612eac565b9150614abe82614a7d565b602082019050919050565b60006020820190508181036000830152614ae281614aa6565b9050919050565b7f4552433732313a207472616e7366657220746f206e6f6e20455243373231526560008201527f63656976657220696d706c656d656e7465720000000000000000000000000000602082015250565b6000614b45603283612eac565b9150614b5082614ae9565b604082019050919050565b60006020820190508181036000830152614b7481614b38565b9050919050565b600081519050919050565b600082825260208201905092915050565b6000614ba282614b7b565b614bac8185614b86565b9350614bbc818560208601612ebd565b614bc581612ee7565b840191505092915050565b6000608082019050614be56000830187612fe8565b614bf26020830186612fe8565b614bff6040830185613309565b8181036060830152614c118184614b97565b905095945050505050565b600081519050614c2b81612e12565b92915050565b600060208284031215614c4757614c46612ddc565b5b6000614c5584828501614c1c565b9150509291505056fea26469706673582212209e810551616a3c05af4809e6859e27981c95916a8f84a1b355f967456b33bad964736f6c63430008130033",
  "immutableReferences": {},
  "source": "// SPDX-License-Identifier: MIT\npragma solidity 0.8.19;\n\nimport \"../node_modules/@openzeppelin/contracts/token/ERC721/ERC721.sol\";\nimport \"../node_modules/@openzeppelin/contracts/utils/Counters.sol\";\nimport \"../node_modules/@openzeppelin/contracts/token/ERC20/IERC20.sol\";\nimport \"../node_modules/@openzeppelin/contracts/token/ERC721/extensions/ERC721URIStorage.sol\";\nimport \"./UserManagement.sol\";\n\ncontract JobListings {\n    using Counters for Counters.Counter;\n    Counters.Counter private _listingIds;\n    struct JobListing {\n        string title;\n        string description;\n        uint256 salary;\n        address company;\n    }\n\n    mapping(uint256 => JobListing) private _listings;\n\n    function createListing(\n        string memory title,\n        string memory description,\n        uint256 salary\n    ) public {\n        _listingIds.increment();\n        uint256 newListingId = _listingIds.current();\n        _listings[newListingId] = JobListing(\n            title,\n            description,\n            salary,\n            msg.sender\n        );\n    }\n\n    function getListing(\n        uint256 listingId\n    ) public view returns (JobListing memory) {\n        return _listings[listingId];\n    }\n}\n\ncontract JobListingsNFT is ERC721URIStorage {\n    using Counters for Counters.Counter;\n    Counters.Counter private _tokenIds;\n    JobListings private _jobListings;\n    mapping(uint256 => JobListings.JobListing) private _listings;\n    UserManagement public userManagement;\n\n    struct JobApplication {\n        uint256 applicationId;\n        uint256 jobListingId;\n        uint256 candidateId;\n        string message;\n        bool isHired;\n        bool isRejected;\n    }\n\n    mapping(uint256 => JobApplication[]) private _jobApplications;\n\n    IERC20 private _token;\n\n    event JobApplicationCreated(\n        uint256 indexed applicationId,\n        uint256 indexed tokenId,\n        address indexed candidate\n    );\n\n    event CandidateHired(\n        uint256 indexed tokenId,\n        uint256 indexed applicationId\n    );\n\n    event CandidateRejected(\n        uint256 indexed tokenId,\n        uint256 indexed applicationId\n    );\n\n    constructor(\n        address jobListingsContractAddress,\n        address tokenAddress,\n        address userManagementAddress\n    ) ERC721(\"JobListingsNFT\", \"JLN\") {\n        _jobListings = JobListings(jobListingsContractAddress);\n        _token = IERC20(tokenAddress);\n        userManagement = UserManagement(userManagementAddress);\n    }\n\n    function uint2str(uint256 _i) internal pure returns (string memory str) {\n        if (_i == 0) {\n            return \"0\";\n        }\n        uint256 j = _i;\n        uint256 length;\n        while (j != 0) {\n            length++;\n            j /= 10;\n        }\n        bytes memory bstr = new bytes(length);\n        uint256 k = length;\n        while (_i != 0) {\n            k = k - 1;\n            uint8 temp = (48 + uint8(_i - (_i / 10) * 10));\n            bytes1 b1 = bytes1(temp);\n            bstr[k] = b1;\n            _i /= 10;\n        }\n        str = string(bstr);\n    }\n\n    function createJobListingNFT(uint256 listingId) public returns (uint256) {\n        JobListings.JobListing memory listing = _jobListings.getListing(\n            listingId\n        );\n        require(\n            listing.company == msg.sender,\n            \"Only the company can create a job listing NFT\"\n        );\n\n        _tokenIds.increment();\n        uint256 newTokenId = _tokenIds.current();\n        _mint(msg.sender, newTokenId);\n        _setTokenURI(\n            newTokenId,\n            string(\n                abi.encodePacked(\n                    \"https://example.com/job-listings-nft/\",\n                    uint2str(newTokenId)\n                )\n            )\n        );\n        _listings[newTokenId] = listing;\n        return newTokenId;\n    }\n\n    function getJobListing(\n        uint256 tokenId\n    ) public view returns (JobListings.JobListing memory) {\n        return _listings[tokenId];\n    }\n\n    function applyForJob(uint256 tokenId, string memory message) public {\n        JobListings.JobListing memory listing = _listings[tokenId];\n        require(\n            listing.company != msg.sender,\n            \"Employers cannot apply for job listings\"\n        );\n\n        UserManagement.User memory user = userManagement.getUserByAddress(\n            msg.sender\n        );\n        JobApplication[] storage applications = _jobApplications[tokenId];\n        uint256 applicationId = applications.length + 1;\n\n        applications.push(\n            JobApplication(\n                applicationId,\n                tokenId,\n                user.id,\n                message,\n                false,\n                false\n            )\n        );\n\n        emit JobApplicationCreated(applicationId, tokenId, msg.sender);\n    }\n\n    function getJobApplications(\n        uint256 tokenId\n    ) public view returns (JobApplication[] memory) {\n        return _jobApplications[tokenId];\n    }\n\n    function hireCandidate(uint256 tokenId, uint256 applicationId) public {\n        JobApplication storage application = _jobApplications[tokenId][\n            applicationId\n        ];\n        require(\n            application.jobListingId == tokenId,\n            \"Application does not correspond to the job listing\"\n        );\n\n        JobListings.JobListing memory listing = _listings[tokenId];\n        require(\n            listing.company == msg.sender,\n            \"Only companies can hire candidates\"\n        );\n\n        require(\n            !application.isHired && !application.isRejected,\n            \"Candidate has already been hired or rejected\"\n        );\n\n        application.isHired = true;\n        uint256 bounty = listing.salary;\n        UserManagement.User memory users = userManagement.getUserByAddress(\n            msg.sender\n        );\n        require(\n            _token.transferFrom(msg.sender, users.walletAddress, bounty),\n            \"Token transfer failed\"\n        );\n\n        emit CandidateHired(tokenId, applicationId);\n    }\n\n    function rejectCandidate(uint256 tokenId, uint256 applicationId) public {\n        JobApplication storage application = _jobApplications[tokenId][\n            applicationId\n        ];\n        require(\n            application.jobListingId == tokenId,\n            \"Application does not correspond to the job listing\"\n        );\n\n        JobListings.JobListing memory listing = _listings[tokenId];\n        require(\n            listing.company == msg.sender,\n            \"Only companies can reject candidates\"\n        );\n\n        require(\n            !application.isHired && !application.isRejected,\n            \"Candidate has already been hired or rejected\"\n        );\n\n        application.isRejected = true;\n\n        emit CandidateRejected(tokenId, applicationId);\n    }\n}\n",
  "sourcePath": "/home/arnaud/Alyra/jobInChain/truffle/contracts/JobListingManagement.sol",
  "compiler": {
    "name": "solc",
    "version": "0.8.19+commit.7dd6d404.Emscripten.clang"
  },
  "schemaVersion": "3.4.11",
  "updatedAt": "2023-04-06T17:42:30.181Z",
  "devdoc": {
    "events": {
      "Approval(address,address,uint256)": {
        "details": "Emitted when `owner` enables `approved` to manage the `tokenId` token."
      },
      "ApprovalForAll(address,address,bool)": {
        "details": "Emitted when `owner` enables or disables (`approved`) `operator` to manage all of its assets."
      },
      "Transfer(address,address,uint256)": {
        "details": "Emitted when `tokenId` token is transferred from `from` to `to`."
      }
    },
    "kind": "dev",
    "methods": {
      "approve(address,uint256)": {
        "details": "See {IERC721-approve}."
      },
      "balanceOf(address)": {
        "details": "See {IERC721-balanceOf}."
      },
      "getApproved(uint256)": {
        "details": "See {IERC721-getApproved}."
      },
      "isApprovedForAll(address,address)": {
        "details": "See {IERC721-isApprovedForAll}."
      },
      "name()": {
        "details": "See {IERC721Metadata-name}."
      },
      "ownerOf(uint256)": {
        "details": "See {IERC721-ownerOf}."
      },
      "safeTransferFrom(address,address,uint256)": {
        "details": "See {IERC721-safeTransferFrom}."
      },
      "safeTransferFrom(address,address,uint256,bytes)": {
        "details": "See {IERC721-safeTransferFrom}."
      },
      "setApprovalForAll(address,bool)": {
        "details": "See {IERC721-setApprovalForAll}."
      },
      "supportsInterface(bytes4)": {
        "details": "See {IERC165-supportsInterface}."
      },
      "symbol()": {
        "details": "See {IERC721Metadata-symbol}."
      },
      "tokenURI(uint256)": {
        "details": "See {IERC721Metadata-tokenURI}."
      },
      "transferFrom(address,address,uint256)": {
        "details": "See {IERC721-transferFrom}."
      }
    },
    "version": 1
  },
  "userdoc": {
    "kind": "user",
    "methods": {},
    "version": 1
  }
}