{
  "contractName": "JobListings",
  "abi": [
    {
      "anonymous": false,
      "inputs": [
        {
          "indexed": true,
          "internalType": "uint256",
          "name": "listingId",
          "type": "uint256"
        },
        {
          "indexed": true,
          "internalType": "address",
          "name": "company",
          "type": "address"
        },
        {
          "indexed": false,
          "internalType": "string",
          "name": "ipfsHash",
          "type": "string"
        }
      ],
      "name": "ListingCreated",
      "type": "event"
    },
    {
      "inputs": [
        {
          "internalType": "string",
          "name": "title",
          "type": "string"
        },
        {
          "internalType": "string",
          "name": "description",
          "type": "string"
        },
        {
          "internalType": "uint256",
          "name": "salary",
          "type": "uint256"
        },
        {
          "internalType": "string",
          "name": "_ipfsHash",
          "type": "string"
        }
      ],
      "name": "createListing",
      "outputs": [],
      "stateMutability": "nonpayable",
      "type": "function"
    },
    {
      "inputs": [
        {
          "internalType": "uint256",
          "name": "listingId",
          "type": "uint256"
        }
      ],
      "name": "getListing",
      "outputs": [
        {
          "components": [
            {
              "internalType": "string",
              "name": "title",
              "type": "string"
            },
            {
              "internalType": "string",
              "name": "description",
              "type": "string"
            },
            {
              "internalType": "uint256",
              "name": "salary",
              "type": "uint256"
            },
            {
              "internalType": "address",
              "name": "company",
              "type": "address"
            },
            {
              "internalType": "string",
              "name": "ipfsHash",
              "type": "string"
            },
            {
              "internalType": "uint256",
              "name": "tokenId",
              "type": "uint256"
            }
          ],
          "internalType": "struct JobListings.JobListing",
          "name": "",
          "type": "tuple"
        }
      ],
      "stateMutability": "view",
      "type": "function",
      "constant": true
    },
    {
      "inputs": [
        {
          "internalType": "address",
          "name": "company",
          "type": "address"
        }
      ],
      "name": "getListingsByCompany",
      "outputs": [
        {
          "internalType": "uint256[]",
          "name": "",
          "type": "uint256[]"
        }
      ],
      "stateMutability": "view",
      "type": "function",
      "constant": true
    },
    {
      "inputs": [],
      "name": "getListingCount",
      "outputs": [
        {
          "internalType": "uint256",
          "name": "",
          "type": "uint256"
        }
      ],
      "stateMutability": "view",
      "type": "function",
      "constant": true
    }
  ],
  "bytecode": "0x608060405234801561001057600080fd5b50610f10806100206000396000f3fe608060405234801561001057600080fd5b5060043610610068576000357c010000000000000000000000000000000000000000000000000000000090048062a11ea21461006d578063107a274a1461009d578063744409c6146100cd57806387ed92d7146100e9575b600080fd5b610087600480360381019061008291906106a8565b610107565b604051610094919061079d565b60405180910390f35b6100b760048036038101906100b291906107eb565b61019e565b6040516100c4919061094e565b60405180910390f35b6100e760048036038101906100e29190610aa5565b6103eb565b005b6100f16105b5565b6040516100fe9190610b6f565b60405180910390f35b6060600260008373ffffffffffffffffffffffffffffffffffffffff1673ffffffffffffffffffffffffffffffffffffffff16815260200190815260200160002080548060200260200160405190810160405280929190818152602001828054801561019257602002820191906000526020600020905b81548152602001906001019080831161017e575b50505050509050919050565b6101a66105ea565b600160008381526020019081526020016000206040518060c00160405290816000820180546101d490610bb9565b80601f016020809104026020016040519081016040528092919081815260200182805461020090610bb9565b801561024d5780601f106102225761010080835404028352916020019161024d565b820191906000526020600020905b81548152906001019060200180831161023057829003601f168201915b5050505050815260200160018201805461026690610bb9565b80601f016020809104026020016040519081016040528092919081815260200182805461029290610bb9565b80156102df5780601f106102b4576101008083540402835291602001916102df565b820191906000526020600020905b8154815290600101906020018083116102c257829003601f168201915b50505050508152602001600282015481526020016003820160009054906101000a900473ffffffffffffffffffffffffffffffffffffffff1673ffffffffffffffffffffffffffffffffffffffff1673ffffffffffffffffffffffffffffffffffffffff16815260200160048201805461035890610bb9565b80601f016020809104026020016040519081016040528092919081815260200182805461038490610bb9565b80156103d15780601f106103a6576101008083540402835291602001916103d1565b820191906000526020600020905b8154815290600101906020018083116103b457829003601f168201915b505050505081526020016005820154815250509050919050565b6103f560006105c6565b600061040160006105dc565b90506040518060c001604052808681526020018581526020018481526020013373ffffffffffffffffffffffffffffffffffffffff1681526020018381526020018281525060016000838152602001908152602001600020600082015181600001908161046e9190610d9c565b5060208201518160010190816104849190610d9c565b506040820151816002015560608201518160030160006101000a81548173ffffffffffffffffffffffffffffffffffffffff021916908373ffffffffffffffffffffffffffffffffffffffff16021790555060808201518160040190816104eb9190610d9c565b5060a08201518160050155905050600260003373ffffffffffffffffffffffffffffffffffffffff1673ffffffffffffffffffffffffffffffffffffffff1681526020019081526020016000208190806001815401808255809150506001900390600052602060002001600090919091909150553373ffffffffffffffffffffffffffffffffffffffff16817ffccfab3757a37767d03b5ffd499faaa9faf5a6d33900ee43e310e77bce34940b846040516105a69190610eb8565b60405180910390a35050505050565b60006105c160006105dc565b905090565b6001816000016000828254019250508190555050565b600081600001549050919050565b6040518060c00160405280606081526020016060815260200160008152602001600073ffffffffffffffffffffffffffffffffffffffff16815260200160608152602001600081525090565b6000604051905090565b600080fd5b600080fd5b600073ffffffffffffffffffffffffffffffffffffffff82169050919050565b60006106758261064a565b9050919050565b6106858161066a565b811461069057600080fd5b50565b6000813590506106a28161067c565b92915050565b6000602082840312156106be576106bd610640565b5b60006106cc84828501610693565b91505092915050565b600081519050919050565b600082825260208201905092915050565b6000819050602082019050919050565b6000819050919050565b61071481610701565b82525050565b6000610726838361070b565b60208301905092915050565b6000602082019050919050565b600061074a826106d5565b61075481856106e0565b935061075f836106f1565b8060005b83811015610790578151610777888261071a565b975061078283610732565b925050600181019050610763565b5085935050505092915050565b600060208201905081810360008301526107b7818461073f565b905092915050565b6107c881610701565b81146107d357600080fd5b50565b6000813590506107e5816107bf565b92915050565b60006020828403121561080157610800610640565b5b600061080f848285016107d6565b91505092915050565b600081519050919050565b600082825260208201905092915050565b60005b83811015610852578082015181840152602081019050610837565b60008484015250505050565b6000601f19601f8301169050919050565b600061087a82610818565b6108848185610823565b9350610894818560208601610834565b61089d8161085e565b840191505092915050565b6108b18161066a565b82525050565b600060c08301600083015184820360008601526108d4828261086f565b915050602083015184820360208601526108ee828261086f565b9150506040830151610903604086018261070b565b50606083015161091660608601826108a8565b506080830151848203608086015261092e828261086f565b91505060a083015161094360a086018261070b565b508091505092915050565b6000602082019050818103600083015261096881846108b7565b905092915050565b600080fd5b600080fd5b7f4e487b7100000000000000000000000000000000000000000000000000000000600052604160045260246000fd5b6109b28261085e565b810181811067ffffffffffffffff821117156109d1576109d061097a565b5b80604052505050565b60006109e4610636565b90506109f082826109a9565b919050565b600067ffffffffffffffff821115610a1057610a0f61097a565b5b610a198261085e565b9050602081019050919050565b82818337600083830152505050565b6000610a48610a43846109f5565b6109da565b905082815260208101848484011115610a6457610a63610975565b5b610a6f848285610a26565b509392505050565b600082601f830112610a8c57610a8b610970565b5b8135610a9c848260208601610a35565b91505092915050565b60008060008060808587031215610abf57610abe610640565b5b600085013567ffffffffffffffff811115610add57610adc610645565b5b610ae987828801610a77565b945050602085013567ffffffffffffffff811115610b0a57610b09610645565b5b610b1687828801610a77565b9350506040610b27878288016107d6565b925050606085013567ffffffffffffffff811115610b4857610b47610645565b5b610b5487828801610a77565b91505092959194509250565b610b6981610701565b82525050565b6000602082019050610b846000830184610b60565b92915050565b7f4e487b7100000000000000000000000000000000000000000000000000000000600052602260045260246000fd5b60006002820490506001821680610bd157607f821691505b602082108103610be457610be3610b8a565b5b50919050565b60008190508160005260206000209050919050565b60006020601f8301049050919050565b60008160020a8302905092915050565b600060088302610c4f7fffffffffffffffffffffffffffffffffffffffffffffffffffffffffffffffff82610c0f565b610c598683610c0f565b95508019841693508086168417925050509392505050565b6000819050919050565b6000610c96610c91610c8c84610701565b610c71565b610701565b9050919050565b6000819050919050565b610cb083610c7b565b610cc4610cbc82610c9d565b848454610c1f565b825550505050565b600090565b610cd9610ccc565b610ce4818484610ca7565b505050565b5b81811015610d0857610cfd600082610cd1565b600181019050610cea565b5050565b601f821115610d4d57610d1e81610bea565b610d2784610bff565b81016020851015610d36578190505b610d4a610d4285610bff565b830182610ce9565b50505b505050565b60008160020a8304905092915050565b6000610d7360001984600802610d52565b1980831691505092915050565b6000610d8c8383610d62565b9150826002028217905092915050565b610da582610818565b67ffffffffffffffff811115610dbe57610dbd61097a565b5b610dc88254610bb9565b610dd3828285610d0c565b600060209050601f831160018114610e065760008415610df4578287015190505b610dfe8582610d80565b865550610e66565b601f198416610e1486610bea565b60005b82811015610e3c57848901518255600182019150602085019450602081019050610e17565b86831015610e595784890151610e55601f891682610d62565b8355505b6001600288020188555050505b505050505050565b600082825260208201905092915050565b6000610e8a82610818565b610e948185610e6e565b9350610ea4818560208601610834565b610ead8161085e565b840191505092915050565b60006020820190508181036000830152610ed28184610e7f565b90509291505056fea264697066735822122036e6c4ae7399ecbfa927e0a9faf7a75a24bfe81bef71fde16eb4696d13c5847064736f6c63430008130033",
  "immutableReferences": {},
  "source": "// SPDX-License-Identifier: MIT\npragma solidity 0.8.19;\n\nimport \"../node_modules/@openzeppelin/contracts/utils/Counters.sol\";\nimport \"./UserManagement.sol\";\n\ncontract JobListings {\n    using Counters for Counters.Counter;\n    Counters.Counter private _listingIds;\n    struct JobListing {\n        string title;\n        string description;\n        uint256 salary;\n        address company;\n        string ipfsHash;\n        uint256 tokenId;\n    }\n\n    event ListingCreated(\n        uint256 indexed listingId,\n        address indexed company,\n        string ipfsHash\n    );\n\n    mapping(uint256 => JobListing) private _listings;\n    mapping(address => uint256[]) private _listingsByCompany;\n\n    function createListing(\n        string memory title,\n        string memory description,\n        uint256 salary,\n        string memory _ipfsHash\n    ) public {\n        _listingIds.increment();\n        uint256 newListingId = _listingIds.current();\n        _listings[newListingId] = JobListing(\n            title,\n            description,\n            salary,\n            msg.sender,\n            _ipfsHash,\n            newListingId\n        );\n        _listingsByCompany[msg.sender].push(newListingId);\n        emit ListingCreated(newListingId, msg.sender, _ipfsHash);\n    }\n\n    function getListing(\n        uint256 listingId\n    ) public view returns (JobListing memory) {\n        return _listings[listingId];\n    }\n\n    function getListingsByCompany(\n        address company\n    ) public view returns (uint256[] memory) {\n        return _listingsByCompany[company];\n    }\n\n    function getListingCount() public view returns (uint256) {\n        return _listingIds.current();\n    }\n}\n",
  "sourcePath": "/home/arnaud/Alyra/jobInChain/truffle/contracts/JobListings.sol",
  "compiler": {
    "name": "solc",
    "version": "0.8.19+commit.7dd6d404.Emscripten.clang"
  },
  "schemaVersion": "3.4.11",
  "updatedAt": "2023-04-09T15:58:24.895Z",
  "networkType": "ethereum",
  "devdoc": {
    "kind": "dev",
    "methods": {},
    "version": 1
  },
  "userdoc": {
    "kind": "user",
    "methods": {},
    "version": 1
  }
}