{
  "contractName": "UserManagement",
  "abi": [
    {
      "anonymous": false,
      "inputs": [
        {
          "indexed": true,
          "internalType": "uint256",
          "name": "id",
          "type": "uint256"
        },
        {
          "indexed": true,
          "internalType": "uint256",
          "name": "userId",
          "type": "uint256"
        },
        {
          "indexed": false,
          "internalType": "string",
          "name": "institution",
          "type": "string"
        },
        {
          "indexed": false,
          "internalType": "string",
          "name": "title",
          "type": "string"
        },
        {
          "indexed": false,
          "internalType": "string",
          "name": "year",
          "type": "string"
        },
        {
          "indexed": false,
          "internalType": "string",
          "name": "status",
          "type": "string"
        }
      ],
      "name": "DegreeCreated",
      "type": "event"
    },
    {
      "anonymous": false,
      "inputs": [
        {
          "indexed": true,
          "internalType": "uint256",
          "name": "id",
          "type": "uint256"
        }
      ],
      "name": "DegreeRejected",
      "type": "event"
    },
    {
      "anonymous": false,
      "inputs": [
        {
          "indexed": true,
          "internalType": "uint256",
          "name": "id",
          "type": "uint256"
        }
      ],
      "name": "DegreeVerified",
      "type": "event"
    },
    {
      "anonymous": false,
      "inputs": [
        {
          "indexed": true,
          "internalType": "uint256",
          "name": "id",
          "type": "uint256"
        },
        {
          "indexed": true,
          "internalType": "uint256",
          "name": "userId",
          "type": "uint256"
        },
        {
          "indexed": false,
          "internalType": "string",
          "name": "companyName",
          "type": "string"
        },
        {
          "indexed": false,
          "internalType": "string",
          "name": "position",
          "type": "string"
        },
        {
          "indexed": false,
          "internalType": "string",
          "name": "beginDate",
          "type": "string"
        },
        {
          "indexed": false,
          "internalType": "string",
          "name": "endDate",
          "type": "string"
        },
        {
          "indexed": false,
          "internalType": "string",
          "name": "description",
          "type": "string"
        },
        {
          "indexed": false,
          "internalType": "string",
          "name": "status",
          "type": "string"
        }
      ],
      "name": "ExperienceCreated",
      "type": "event"
    },
    {
      "anonymous": false,
      "inputs": [
        {
          "indexed": true,
          "internalType": "uint256",
          "name": "id",
          "type": "uint256"
        }
      ],
      "name": "ExperienceRejected",
      "type": "event"
    },
    {
      "anonymous": false,
      "inputs": [
        {
          "indexed": true,
          "internalType": "uint256",
          "name": "id",
          "type": "uint256"
        }
      ],
      "name": "ExperienceVerified",
      "type": "event"
    },
    {
      "anonymous": false,
      "inputs": [
        {
          "indexed": true,
          "internalType": "address",
          "name": "previousOwner",
          "type": "address"
        },
        {
          "indexed": true,
          "internalType": "address",
          "name": "newOwner",
          "type": "address"
        }
      ],
      "name": "OwnershipTransferred",
      "type": "event"
    },
    {
      "anonymous": false,
      "inputs": [
        {
          "indexed": true,
          "internalType": "uint256",
          "name": "id",
          "type": "uint256"
        },
        {
          "indexed": false,
          "internalType": "enum UserManagement.UserType",
          "name": "userType",
          "type": "uint8"
        },
        {
          "indexed": false,
          "internalType": "string",
          "name": "name",
          "type": "string"
        },
        {
          "indexed": false,
          "internalType": "string",
          "name": "email",
          "type": "string"
        }
      ],
      "name": "UserCreated",
      "type": "event"
    },
    {
      "inputs": [],
      "name": "PENDING_STATUS",
      "outputs": [
        {
          "internalType": "string",
          "name": "",
          "type": "string"
        }
      ],
      "stateMutability": "view",
      "type": "function",
      "constant": true
    },
    {
      "inputs": [],
      "name": "REJECTED_STATUS",
      "outputs": [
        {
          "internalType": "string",
          "name": "",
          "type": "string"
        }
      ],
      "stateMutability": "view",
      "type": "function",
      "constant": true
    },
    {
      "inputs": [],
      "name": "VALID_STATUS",
      "outputs": [
        {
          "internalType": "string",
          "name": "",
          "type": "string"
        }
      ],
      "stateMutability": "view",
      "type": "function",
      "constant": true
    },
    {
      "inputs": [],
      "name": "owner",
      "outputs": [
        {
          "internalType": "address",
          "name": "",
          "type": "address"
        }
      ],
      "stateMutability": "view",
      "type": "function",
      "constant": true
    },
    {
      "inputs": [],
      "name": "renounceOwnership",
      "outputs": [],
      "stateMutability": "nonpayable",
      "type": "function"
    },
    {
      "inputs": [
        {
          "internalType": "address",
          "name": "newOwner",
          "type": "address"
        }
      ],
      "name": "transferOwnership",
      "outputs": [],
      "stateMutability": "nonpayable",
      "type": "function"
    },
    {
      "inputs": [
        {
          "internalType": "enum UserManagement.UserType",
          "name": "_userType",
          "type": "uint8"
        },
        {
          "internalType": "string",
          "name": "_name",
          "type": "string"
        },
        {
          "internalType": "string",
          "name": "_email",
          "type": "string"
        },
        {
          "internalType": "string",
          "name": "_companyName",
          "type": "string"
        },
        {
          "internalType": "string",
          "name": "_kyc",
          "type": "string"
        },
        {
          "internalType": "string",
          "name": "_candidateInfo",
          "type": "string"
        }
      ],
      "name": "createUser",
      "outputs": [
        {
          "internalType": "uint256",
          "name": "",
          "type": "uint256"
        }
      ],
      "stateMutability": "nonpayable",
      "type": "function"
    },
    {
      "inputs": [
        {
          "internalType": "address",
          "name": "_address",
          "type": "address"
        }
      ],
      "name": "getUserByAddress",
      "outputs": [
        {
          "components": [
            {
              "internalType": "uint256",
              "name": "id",
              "type": "uint256"
            },
            {
              "internalType": "enum UserManagement.UserType",
              "name": "userType",
              "type": "uint8"
            },
            {
              "internalType": "string",
              "name": "name",
              "type": "string"
            },
            {
              "internalType": "string",
              "name": "email",
              "type": "string"
            },
            {
              "internalType": "string",
              "name": "companyName",
              "type": "string"
            },
            {
              "internalType": "string",
              "name": "kyc",
              "type": "string"
            },
            {
              "internalType": "string",
              "name": "candidateInfo",
              "type": "string"
            },
            {
              "internalType": "bool",
              "name": "isVerified",
              "type": "bool"
            },
            {
              "internalType": "address",
              "name": "walletAddress",
              "type": "address"
            }
          ],
          "internalType": "struct UserManagement.User",
          "name": "",
          "type": "tuple"
        }
      ],
      "stateMutability": "view",
      "type": "function",
      "constant": true
    },
    {
      "inputs": [
        {
          "internalType": "address",
          "name": "_address",
          "type": "address"
        }
      ],
      "name": "getUserIdByAddress",
      "outputs": [
        {
          "internalType": "uint256",
          "name": "",
          "type": "uint256"
        }
      ],
      "stateMutability": "view",
      "type": "function",
      "constant": true
    },
    {
      "inputs": [
        {
          "internalType": "uint256",
          "name": "_id",
          "type": "uint256"
        }
      ],
      "name": "getUserById",
      "outputs": [
        {
          "components": [
            {
              "internalType": "uint256",
              "name": "id",
              "type": "uint256"
            },
            {
              "internalType": "enum UserManagement.UserType",
              "name": "userType",
              "type": "uint8"
            },
            {
              "internalType": "string",
              "name": "name",
              "type": "string"
            },
            {
              "internalType": "string",
              "name": "email",
              "type": "string"
            },
            {
              "internalType": "string",
              "name": "companyName",
              "type": "string"
            },
            {
              "internalType": "string",
              "name": "kyc",
              "type": "string"
            },
            {
              "internalType": "string",
              "name": "candidateInfo",
              "type": "string"
            },
            {
              "internalType": "bool",
              "name": "isVerified",
              "type": "bool"
            },
            {
              "internalType": "address",
              "name": "walletAddress",
              "type": "address"
            }
          ],
          "internalType": "struct UserManagement.User",
          "name": "",
          "type": "tuple"
        }
      ],
      "stateMutability": "view",
      "type": "function",
      "constant": true
    },
    {
      "inputs": [
        {
          "internalType": "string",
          "name": "_institution",
          "type": "string"
        },
        {
          "internalType": "string",
          "name": "_title",
          "type": "string"
        },
        {
          "internalType": "string",
          "name": "_year",
          "type": "string"
        }
      ],
      "name": "createDegree",
      "outputs": [],
      "stateMutability": "nonpayable",
      "type": "function"
    },
    {
      "inputs": [
        {
          "internalType": "string",
          "name": "_companyName",
          "type": "string"
        },
        {
          "internalType": "string",
          "name": "_position",
          "type": "string"
        },
        {
          "internalType": "string",
          "name": "_beginDate",
          "type": "string"
        },
        {
          "internalType": "string",
          "name": "_endDate",
          "type": "string"
        },
        {
          "internalType": "string",
          "name": "_description",
          "type": "string"
        }
      ],
      "name": "createExperience",
      "outputs": [],
      "stateMutability": "nonpayable",
      "type": "function"
    },
    {
      "inputs": [
        {
          "internalType": "uint256",
          "name": "_degreeId",
          "type": "uint256"
        }
      ],
      "name": "verifyDegree",
      "outputs": [],
      "stateMutability": "nonpayable",
      "type": "function"
    },
    {
      "inputs": [
        {
          "internalType": "uint256",
          "name": "_experienceId",
          "type": "uint256"
        }
      ],
      "name": "verifyExperience",
      "outputs": [],
      "stateMutability": "nonpayable",
      "type": "function"
    },
    {
      "inputs": [
        {
          "internalType": "uint256",
          "name": "_userId",
          "type": "uint256"
        }
      ],
      "name": "getUserDegrees",
      "outputs": [
        {
          "components": [
            {
              "internalType": "uint256",
              "name": "id",
              "type": "uint256"
            },
            {
              "internalType": "uint256",
              "name": "userId",
              "type": "uint256"
            },
            {
              "internalType": "string",
              "name": "institution",
              "type": "string"
            },
            {
              "internalType": "string",
              "name": "title",
              "type": "string"
            },
            {
              "internalType": "string",
              "name": "year",
              "type": "string"
            },
            {
              "internalType": "string",
              "name": "status",
              "type": "string"
            }
          ],
          "internalType": "struct UserManagement.Degree[]",
          "name": "",
          "type": "tuple[]"
        }
      ],
      "stateMutability": "view",
      "type": "function",
      "constant": true
    },
    {
      "inputs": [
        {
          "internalType": "uint256",
          "name": "_userId",
          "type": "uint256"
        }
      ],
      "name": "getUserExperiences",
      "outputs": [
        {
          "components": [
            {
              "internalType": "uint256",
              "name": "id",
              "type": "uint256"
            },
            {
              "internalType": "uint256",
              "name": "userId",
              "type": "uint256"
            },
            {
              "internalType": "string",
              "name": "companyName",
              "type": "string"
            },
            {
              "internalType": "string",
              "name": "position",
              "type": "string"
            },
            {
              "internalType": "string",
              "name": "beginDate",
              "type": "string"
            },
            {
              "internalType": "string",
              "name": "endDate",
              "type": "string"
            },
            {
              "internalType": "string",
              "name": "description",
              "type": "string"
            },
            {
              "internalType": "string",
              "name": "status",
              "type": "string"
            }
          ],
          "internalType": "struct UserManagement.Experience[]",
          "name": "",
          "type": "tuple[]"
        }
      ],
      "stateMutability": "view",
      "type": "function",
      "constant": true
    },
    {
      "inputs": [],
      "name": "getAllPendingExperiences",
      "outputs": [
        {
          "components": [
            {
              "internalType": "uint256",
              "name": "id",
              "type": "uint256"
            },
            {
              "internalType": "uint256",
              "name": "userId",
              "type": "uint256"
            },
            {
              "internalType": "string",
              "name": "companyName",
              "type": "string"
            },
            {
              "internalType": "string",
              "name": "position",
              "type": "string"
            },
            {
              "internalType": "string",
              "name": "beginDate",
              "type": "string"
            },
            {
              "internalType": "string",
              "name": "endDate",
              "type": "string"
            },
            {
              "internalType": "string",
              "name": "description",
              "type": "string"
            },
            {
              "internalType": "string",
              "name": "status",
              "type": "string"
            }
          ],
          "internalType": "struct UserManagement.Experience[]",
          "name": "",
          "type": "tuple[]"
        }
      ],
      "stateMutability": "view",
      "type": "function",
      "constant": true
    },
    {
      "inputs": [],
      "name": "getAllPendingDegrees",
      "outputs": [
        {
          "components": [
            {
              "internalType": "uint256",
              "name": "id",
              "type": "uint256"
            },
            {
              "internalType": "uint256",
              "name": "userId",
              "type": "uint256"
            },
            {
              "internalType": "string",
              "name": "institution",
              "type": "string"
            },
            {
              "internalType": "string",
              "name": "title",
              "type": "string"
            },
            {
              "internalType": "string",
              "name": "year",
              "type": "string"
            },
            {
              "internalType": "string",
              "name": "status",
              "type": "string"
            }
          ],
          "internalType": "struct UserManagement.Degree[]",
          "name": "",
          "type": "tuple[]"
        }
      ],
      "stateMutability": "view",
      "type": "function",
      "constant": true
    },
    {
      "inputs": [
        {
          "internalType": "uint256",
          "name": "_degreeId",
          "type": "uint256"
        }
      ],
      "name": "rejectDegree",
      "outputs": [],
      "stateMutability": "nonpayable",
      "type": "function"
    },
    {
      "inputs": [
        {
          "internalType": "uint256",
          "name": "_experienceId",
          "type": "uint256"
        }
      ],
      "name": "rejectExperience",
      "outputs": [],
      "stateMutability": "nonpayable",
      "type": "function"
    }
  ],
  "bytecode": "0x60806040523480156200001157600080fd5b50620000446200002f6200004a640100000000026401000000009004565b62000052640100000000026401000000009004565b62000116565b600033905090565b60008060009054906101000a900473ffffffffffffffffffffffffffffffffffffffff169050816000806101000a81548173ffffffffffffffffffffffffffffffffffffffff021916908373ffffffffffffffffffffffffffffffffffffffff1602179055508173ffffffffffffffffffffffffffffffffffffffff168173ffffffffffffffffffffffffffffffffffffffff167f8be0079c531659141344cd1fd0a4f28419497f9722a3daafe3b4186f6b6457e060405160405180910390a35050565b61461e80620001266000396000f3fe608060405234801561001057600080fd5b5060043610610149576000357c0100000000000000000000000000000000000000000000000000000000900480636ed6da9e116100ca5780639b380b961161008e5780639b380b961461034c578063d9755b551461036a578063ec49077614610386578063f2fde38b146103b6578063f5444b73146103d257610149565b80636ed6da9e146102a8578063715018a6146102d857806375ee4f77146102e2578063810f8c89146102fe5780638da5cb5b1461032e57610149565b806341cf9d3b1161011157806341cf9d3b146101f0578063478a1b701461020e578063556c41181461023e578063564037761461025a57806369c212f61461027857610149565b8063045a20d81461014e57806309bef8871461016a5780631c1e474e1461018657806320f722a3146101a4578063385399f9146101c0575b600080fd5b61016860048036038101906101639190613231565b6103f0565b005b610184600480360381019061017f9190613231565b6105e9565b005b61018e6107e2565b60405161019b91906132ee565b60405180910390f35b6101be60048036038101906101b99190613231565b61081b565b005b6101da60048036038101906101d5919061336e565b610a14565b6040516101e791906133aa565b60405180910390f35b6101f8610a60565b60405161020591906135b3565b60405180910390f35b61022860048036038101906102239190613231565b610fd0565b60405161023591906135b3565b60405180910390f35b6102586004803603810190610253919061370a565b6113c3565b005b6102626116e7565b60405161026f91906132ee565b60405180910390f35b610292600480360381019061028d919061336e565b611720565b60405161029f9190613993565b60405180910390f35b6102c260048036038101906102bd9190613231565b611b0a565b6040516102cf9190613993565b60405180910390f35b6102e0611ec8565b005b6102fc60048036038101906102f791906139b5565b611edc565b005b61031860048036038101906103139190613231565b6121cc565b6040516103259190613bbc565b60405180910390f35b61033661249a565b6040516103439190613bed565b60405180910390f35b6103546124c3565b60405161036191906132ee565b60405180910390f35b610384600480360381019061037f9190613231565b6124fc565b005b6103a0600480360381019061039b9190613c2d565b6126f5565b6040516103ad91906133aa565b60405180910390f35b6103d060048036038101906103cb919061336e565b612ade565b005b6103da612b61565b6040516103e79190613bbc565b60405180910390f35b6103f8612fac565b600854811115801561040a5750600081115b610449576040517f08c379a000000000000000000000000000000000000000000000000000000000815260040161044090613d92565b60405180910390fd5b6040518060400160405280600881526020017f52656a65637465640000000000000000000000000000000000000000000000008152506003600083815260200190815260200160002060050190816104a19190613fc4565b5060006003600083815260200190815260200160002090506000816001015490506000805b600560008481526020019081526020016000208054905081101561053c578460056000858152602001908152602001600020828154811061050a57610509614096565b5b906000526020600020906006020160000154036105295780915061053c565b8080610534906140f4565b9150506104c6565b506040518060400160405280600881526020017f52656a656374656400000000000000000000000000000000000000000000000081525060056000848152602001908152602001600020828154811061059857610597614096565b5b906000526020600020906006020160050190816105b59190613fc4565b50837f25cc291d0296cc66f0944b3e3e3ddff3823dfa8cdcf23c185030bed44bebaf7760405160405180910390a250505050565b6105f1612fac565b60095481111580156106035750600081115b610642576040517f08c379a000000000000000000000000000000000000000000000000000000000815260040161063990614188565b60405180910390fd5b6040518060400160405280600681526020017f56616c696465000000000000000000000000000000000000000000000000000081525060046000838152602001908152602001600020600701908161069a9190613fc4565b5060006004600083815260200190815260200160002090506000816001015490506000805b6006600084815260200190815260200160002080549050811015610735578460066000858152602001908152602001600020828154811061070357610702614096565b5b9060005260206000209060080201600001540361072257809150610735565b808061072d906140f4565b9150506106bf565b506040518060400160405280600681526020017f56616c696465000000000000000000000000000000000000000000000000000081525060066000848152602001908152602001600020828154811061079157610790614096565b5b906000526020600020906008020160070190816107ae9190613fc4565b50837f84bc173a9ab45fcc0ef44ad2533cd243d3d736b332385d26315c54c4103aae5660405160405180910390a250505050565b6040518060400160405280600781526020017f50656e64696e670000000000000000000000000000000000000000000000000081525081565b610823612fac565b60085481111580156108355750600081115b610874576040517f08c379a000000000000000000000000000000000000000000000000000000000815260040161086b90613d92565b60405180910390fd5b6040518060400160405280600681526020017f56616c69646500000000000000000000000000000000000000000000000000008152506003600083815260200190815260200160002060050190816108cc9190613fc4565b5060006003600083815260200190815260200160002090506000816001015490506000805b6005600084815260200190815260200160002080549050811015610967578460056000858152602001908152602001600020828154811061093557610934614096565b5b9060005260206000209060060201600001540361095457809150610967565b808061095f906140f4565b9150506108f1565b506040518060400160405280600681526020017f56616c69646500000000000000000000000000000000000000000000000000008152506005600084815260200190815260200160002082815481106109c3576109c2614096565b5b906000526020600020906006020160050190816109e09190613fc4565b50837fc8eb74c192bcb4e8424553b878c92b7ffb7c982c0823dbf8603eb9bece44eea660405160405180910390a250505050565b6000600160008373ffffffffffffffffffffffffffffffffffffffff1673ffffffffffffffffffffffffffffffffffffffff168152602001908152602001600020600001549050919050565b6060610a6a612fac565b60006009549050600080600190505b828111610b0f576040518060400160405280600781526020017f50656e64696e67000000000000000000000000000000000000000000000000008152508051906020012060046000838152602001908152602001600020600701604051610ae0919061424b565b604051809103902003610afc578180610af8906140f4565b9250505b8080610b07906140f4565b915050610a79565b5060008167ffffffffffffffff811115610b2c57610b2b6135df565b5b604051908082528060200260200182016040528015610b6557816020015b610b526130f6565b815260200190600190039081610b4a5790505b509050600091506000600190505b838111610fc6576040518060400160405280600781526020017f50656e64696e67000000000000000000000000000000000000000000000000008152508051906020012060046000838152602001908152602001600020600701604051610bda919061424b565b604051809103902003610fb35760046000828152602001908152602001600020604051806101000160405290816000820154815260200160018201548152602001600282018054610c2a90613de1565b80601f0160208091040260200160405190810160405280929190818152602001828054610c5690613de1565b8015610ca35780601f10610c7857610100808354040283529160200191610ca3565b820191906000526020600020905b815481529060010190602001808311610c8657829003601f168201915b50505050508152602001600382018054610cbc90613de1565b80601f0160208091040260200160405190810160405280929190818152602001828054610ce890613de1565b8015610d355780601f10610d0a57610100808354040283529160200191610d35565b820191906000526020600020905b815481529060010190602001808311610d1857829003601f168201915b50505050508152602001600482018054610d4e90613de1565b80601f0160208091040260200160405190810160405280929190818152602001828054610d7a90613de1565b8015610dc75780601f10610d9c57610100808354040283529160200191610dc7565b820191906000526020600020905b815481529060010190602001808311610daa57829003601f168201915b50505050508152602001600582018054610de090613de1565b80601f0160208091040260200160405190810160405280929190818152602001828054610e0c90613de1565b8015610e595780601f10610e2e57610100808354040283529160200191610e59565b820191906000526020600020905b815481529060010190602001808311610e3c57829003601f168201915b50505050508152602001600682018054610e7290613de1565b80601f0160208091040260200160405190810160405280929190818152602001828054610e9e90613de1565b8015610eeb5780601f10610ec057610100808354040283529160200191610eeb565b820191906000526020600020905b815481529060010190602001808311610ece57829003601f168201915b50505050508152602001600782018054610f0490613de1565b80601f0160208091040260200160405190810160405280929190818152602001828054610f3090613de1565b8015610f7d5780601f10610f5257610100808354040283529160200191610f7d565b820191906000526020600020905b815481529060010190602001808311610f6057829003601f168201915b505050505081525050828481518110610f9957610f98614096565b5b60200260200101819052508280610faf906140f4565b9350505b8080610fbe906140f4565b915050610b73565b5080935050505090565b606060066000838152602001908152602001600020805480602002602001604051908101604052809291908181526020016000905b828210156113b8578382906000526020600020906008020160405180610100016040529081600082015481526020016001820154815260200160028201805461104d90613de1565b80601f016020809104026020016040519081016040528092919081815260200182805461107990613de1565b80156110c65780601f1061109b576101008083540402835291602001916110c6565b820191906000526020600020905b8154815290600101906020018083116110a957829003601f168201915b505050505081526020016003820180546110df90613de1565b80601f016020809104026020016040519081016040528092919081815260200182805461110b90613de1565b80156111585780601f1061112d57610100808354040283529160200191611158565b820191906000526020600020905b81548152906001019060200180831161113b57829003601f168201915b5050505050815260200160048201805461117190613de1565b80601f016020809104026020016040519081016040528092919081815260200182805461119d90613de1565b80156111ea5780601f106111bf576101008083540402835291602001916111ea565b820191906000526020600020905b8154815290600101906020018083116111cd57829003601f168201915b5050505050815260200160058201805461120390613de1565b80601f016020809104026020016040519081016040528092919081815260200182805461122f90613de1565b801561127c5780601f106112515761010080835404028352916020019161127c565b820191906000526020600020905b81548152906001019060200180831161125f57829003601f168201915b5050505050815260200160068201805461129590613de1565b80601f01602080910402602001604051908101604052809291908181526020018280546112c190613de1565b801561130e5780601f106112e35761010080835404028352916020019161130e565b820191906000526020600020905b8154815290600101906020018083116112f157829003601f168201915b5050505050815260200160078201805461132790613de1565b80601f016020809104026020016040519081016040528092919081815260200182805461135390613de1565b80156113a05780601f10611375576101008083540402835291602001916113a0565b820191906000526020600020905b81548152906001019060200180831161138357829003601f168201915b50505050508152505081526020019060010190611005565b505050509050919050565b600060018111156113d7576113d6613811565b5b600160003373ffffffffffffffffffffffffffffffffffffffff1673ffffffffffffffffffffffffffffffffffffffff16815260200190815260200160002060010160009054906101000a900460ff16600181111561143957611438613811565b5b14611479576040517f08c379a0000000000000000000000000000000000000000000000000000000008152600401611470906142d4565b60405180910390fd5b600061148433610a14565b905060096000815480929190611499906140f4565b9190505550600060405180610100016040528060095481526020018381526020018881526020018781526020018681526020018581526020018481526020016040518060400160405280600781526020017f50656e64696e6700000000000000000000000000000000000000000000000000815250815250905060066000838152602001908152602001600020819080600181540180825580915050600190039060005260206000209060080201600090919091909150600082015181600001556020820151816001015560408201518160020190816115799190613fc4565b50606082015181600301908161158f9190613fc4565b5060808201518160040190816115a59190613fc4565b5060a08201518160050190816115bb9190613fc4565b5060c08201518160060190816115d19190613fc4565b5060e08201518160070190816115e79190613fc4565b50505080600460006009548152602001908152602001600020600082015181600001556020820151816001015560408201518160020190816116299190613fc4565b50606082015181600301908161163f9190613fc4565b5060808201518160040190816116559190613fc4565b5060a082015181600501908161166b9190613fc4565b5060c08201518160060190816116819190613fc4565b5060e08201518160070190816116979190613fc4565b50905050816009547f4b1d4822484f42713e133dfaf55c75a174328ee4016fea7d0da90a5616c1130089898989896040516116d6959493929190614340565b60405180910390a350505050505050565b6040518060400160405280600681526020017f56616c696465000000000000000000000000000000000000000000000000000081525081565b61172861313b565b600160008373ffffffffffffffffffffffffffffffffffffffff1673ffffffffffffffffffffffffffffffffffffffff16815260200190815260200160002060405180610120016040529081600082015481526020016001820160009054906101000a900460ff1660018111156117a2576117a1613811565b5b60018111156117b4576117b3613811565b5b81526020016002820180546117c890613de1565b80601f01602080910402602001604051908101604052809291908181526020018280546117f490613de1565b80156118415780601f1061181657610100808354040283529160200191611841565b820191906000526020600020905b81548152906001019060200180831161182457829003601f168201915b5050505050815260200160038201805461185a90613de1565b80601f016020809104026020016040519081016040528092919081815260200182805461188690613de1565b80156118d35780601f106118a8576101008083540402835291602001916118d3565b820191906000526020600020905b8154815290600101906020018083116118b657829003601f168201915b505050505081526020016004820180546118ec90613de1565b80601f016020809104026020016040519081016040528092919081815260200182805461191890613de1565b80156119655780601f1061193a57610100808354040283529160200191611965565b820191906000526020600020905b81548152906001019060200180831161194857829003601f168201915b5050505050815260200160058201805461197e90613de1565b80601f01602080910402602001604051908101604052809291908181526020018280546119aa90613de1565b80156119f75780601f106119cc576101008083540402835291602001916119f7565b820191906000526020600020905b8154815290600101906020018083116119da57829003601f168201915b50505050508152602001600682018054611a1090613de1565b80601f0160208091040260200160405190810160405280929190818152602001828054611a3c90613de1565b8015611a895780601f10611a5e57610100808354040283529160200191611a89565b820191906000526020600020905b815481529060010190602001808311611a6c57829003601f168201915b505050505081526020016007820160009054906101000a900460ff161515151581526020016007820160019054906101000a900473ffffffffffffffffffffffffffffffffffffffff1673ffffffffffffffffffffffffffffffffffffffff1673ffffffffffffffffffffffffffffffffffffffff16815250509050919050565b611b1261313b565b6002600083815260200190815260200160002060405180610120016040529081600082015481526020016001820160009054906101000a900460ff166001811115611b6057611b5f613811565b5b6001811115611b7257611b71613811565b5b8152602001600282018054611b8690613de1565b80601f0160208091040260200160405190810160405280929190818152602001828054611bb290613de1565b8015611bff5780601f10611bd457610100808354040283529160200191611bff565b820191906000526020600020905b815481529060010190602001808311611be257829003601f168201915b50505050508152602001600382018054611c1890613de1565b80601f0160208091040260200160405190810160405280929190818152602001828054611c4490613de1565b8015611c915780601f10611c6657610100808354040283529160200191611c91565b820191906000526020600020905b815481529060010190602001808311611c7457829003601f168201915b50505050508152602001600482018054611caa90613de1565b80601f0160208091040260200160405190810160405280929190818152602001828054611cd690613de1565b8015611d235780601f10611cf857610100808354040283529160200191611d23565b820191906000526020600020905b815481529060010190602001808311611d0657829003601f168201915b50505050508152602001600582018054611d3c90613de1565b80601f0160208091040260200160405190810160405280929190818152602001828054611d6890613de1565b8015611db55780601f10611d8a57610100808354040283529160200191611db5565b820191906000526020600020905b815481529060010190602001808311611d9857829003601f168201915b50505050508152602001600682018054611dce90613de1565b80601f0160208091040260200160405190810160405280929190818152602001828054611dfa90613de1565b8015611e475780601f10611e1c57610100808354040283529160200191611e47565b820191906000526020600020905b815481529060010190602001808311611e2a57829003601f168201915b505050505081526020016007820160009054906101000a900460ff161515151581526020016007820160019054906101000a900473ffffffffffffffffffffffffffffffffffffffff1673ffffffffffffffffffffffffffffffffffffffff1673ffffffffffffffffffffffffffffffffffffffff16815250509050919050565b611ed0612fac565b611eda600061302a565b565b60006001811115611ef057611eef613811565b5b600160003373ffffffffffffffffffffffffffffffffffffffff1673ffffffffffffffffffffffffffffffffffffffff16815260200190815260200160002060010160009054906101000a900460ff166001811115611f5257611f51613811565b5b14611f92576040517f08c379a0000000000000000000000000000000000000000000000000000000008152600401611f89906142d4565b60405180910390fd5b6000611f9d33610a14565b905060086000815480929190611fb2906140f4565b919050555060006040518060c0016040528060085481526020018381526020018681526020018581526020018481526020016040518060400160405280600781526020017f50656e64696e6700000000000000000000000000000000000000000000000000815250815250905060056000838152602001908152602001600020819080600181540180825580915050600190039060005260206000209060060201600090919091909150600082015181600001556020820151816001015560408201518160020190816120859190613fc4565b50606082015181600301908161209b9190613fc4565b5060808201518160040190816120b19190613fc4565b5060a08201518160050190816120c79190613fc4565b50505080600360006008548152602001908152602001600020600082015181600001556020820151816001015560408201518160020190816121099190613fc4565b50606082015181600301908161211f9190613fc4565b5060808201518160040190816121359190613fc4565b5060a082015181600501908161214b9190613fc4565b50905050816008547f47975248a192187947a7f318ae6e12b1604ef4c15fcefc67d9418e2f124c8e308787876040518060400160405280600781526020017f50656e64696e67000000000000000000000000000000000000000000000000008152506040516121bd94939291906143c9565b60405180910390a35050505050565b606060056000838152602001908152602001600020805480602002602001604051908101604052809291908181526020016000905b8282101561248f57838290600052602060002090600602016040518060c0016040529081600082015481526020016001820154815260200160028201805461224890613de1565b80601f016020809104026020016040519081016040528092919081815260200182805461227490613de1565b80156122c15780601f10612296576101008083540402835291602001916122c1565b820191906000526020600020905b8154815290600101906020018083116122a457829003601f168201915b505050505081526020016003820180546122da90613de1565b80601f016020809104026020016040519081016040528092919081815260200182805461230690613de1565b80156123535780601f1061232857610100808354040283529160200191612353565b820191906000526020600020905b81548152906001019060200180831161233657829003601f168201915b5050505050815260200160048201805461236c90613de1565b80601f016020809104026020016040519081016040528092919081815260200182805461239890613de1565b80156123e55780601f106123ba576101008083540402835291602001916123e5565b820191906000526020600020905b8154815290600101906020018083116123c857829003601f168201915b505050505081526020016005820180546123fe90613de1565b80601f016020809104026020016040519081016040528092919081815260200182805461242a90613de1565b80156124775780601f1061244c57610100808354040283529160200191612477565b820191906000526020600020905b81548152906001019060200180831161245a57829003601f168201915b50505050508152505081526020019060010190612201565b505050509050919050565b60008060009054906101000a900473ffffffffffffffffffffffffffffffffffffffff16905090565b6040518060400160405280600881526020017f52656a656374656400000000000000000000000000000000000000000000000081525081565b612504612fac565b60095481111580156125165750600081115b612555576040517f08c379a000000000000000000000000000000000000000000000000000000000815260040161254c90614188565b60405180910390fd5b6040518060400160405280600881526020017f52656a65637465640000000000000000000000000000000000000000000000008152506004600083815260200190815260200160002060070190816125ad9190613fc4565b5060006004600083815260200190815260200160002090506000816001015490506000805b6006600084815260200190815260200160002080549050811015612648578460066000858152602001908152602001600020828154811061261657612615614096565b5b9060005260206000209060080201600001540361263557809150612648565b8080612640906140f4565b9150506125d2565b506040518060400160405280600881526020017f52656a65637465640000000000000000000000000000000000000000000000008152506006600084815260200190815260200160002082815481106126a4576126a3614096565b5b906000526020600020906008020160070190816126c19190613fc4565b50837fde2fd065ee33d326c3a3a85a65bbb1d65cb5c0af1cd6c4ea859c9c87338e1a0e60405160405180910390a250505050565b600080600181111561270a57612709613811565b5b87600181111561271d5761271c613811565b5b148061274c575060018081111561273757612736613811565b5b87600181111561274a57612749613811565b5b145b61278b576040517f08c379a000000000000000000000000000000000000000000000000000000000815260040161278290614476565b60405180910390fd5b6007600081548092919061279e906140f4565b9190505550600060405180610120016040528060075481526020018960018111156127cc576127cb613811565b5b81526020018881526020018781526020018681526020018581526020018481526020016000151581526020013373ffffffffffffffffffffffffffffffffffffffff16815250905080600160003373ffffffffffffffffffffffffffffffffffffffff1673ffffffffffffffffffffffffffffffffffffffff1681526020019081526020016000206000820151816000015560208201518160010160006101000a81548160ff0219169083600181111561288957612888613811565b5b021790555060408201518160020190816128a39190613fc4565b5060608201518160030190816128b99190613fc4565b5060808201518160040190816128cf9190613fc4565b5060a08201518160050190816128e59190613fc4565b5060c08201518160060190816128fb9190613fc4565b5060e08201518160070160006101000a81548160ff0219169083151502179055506101008201518160070160016101000a81548173ffffffffffffffffffffffffffffffffffffffff021916908373ffffffffffffffffffffffffffffffffffffffff160217905550905050806002600060075481526020019081526020016000206000820151816000015560208201518160010160006101000a81548160ff021916908360018111156129b2576129b1613811565b5b021790555060408201518160020190816129cc9190613fc4565b5060608201518160030190816129e29190613fc4565b5060808201518160040190816129f89190613fc4565b5060a0820151816005019081612a0e9190613fc4565b5060c0820151816006019081612a249190613fc4565b5060e08201518160070160006101000a81548160ff0219169083151502179055506101008201518160070160016101000a81548173ffffffffffffffffffffffffffffffffffffffff021916908373ffffffffffffffffffffffffffffffffffffffff1602179055509050506007547fe35820dc5e36f5504ecfae47734c266624fd7660b95f15c4882e440e1741b39d898989604051612ac6939291906144a5565b60405180910390a26007549150509695505050505050565b612ae6612fac565b600073ffffffffffffffffffffffffffffffffffffffff168173ffffffffffffffffffffffffffffffffffffffff1603612b55576040517f08c379a0000000000000000000000000000000000000000000000000000000008152600401612b4c9061455c565b60405180910390fd5b612b5e8161302a565b50565b6060612b6b612fac565b60006008549050600080600190505b828111612c10576040518060400160405280600781526020017f50656e64696e67000000000000000000000000000000000000000000000000008152508051906020012060036000838152602001908152602001600020600501604051612be1919061424b565b604051809103902003612bfd578180612bf9906140f4565b9250505b8080612c08906140f4565b915050612b7a565b5060008167ffffffffffffffff811115612c2d57612c2c6135df565b5b604051908082528060200260200182016040528015612c6657816020015b612c536131b1565b815260200190600190039081612c4b5790505b509050600091506000600190505b838111612fa2576040518060400160405280600781526020017f50656e64696e67000000000000000000000000000000000000000000000000008152508051906020012060036000838152602001908152602001600020600501604051612cdb919061424b565b604051809103902003612f8f57600360008281526020019081526020016000206040518060c00160405290816000820154815260200160018201548152602001600282018054612d2a90613de1565b80601f0160208091040260200160405190810160405280929190818152602001828054612d5690613de1565b8015612da35780601f10612d7857610100808354040283529160200191612da3565b820191906000526020600020905b815481529060010190602001808311612d8657829003601f168201915b50505050508152602001600382018054612dbc90613de1565b80601f0160208091040260200160405190810160405280929190818152602001828054612de890613de1565b8015612e355780601f10612e0a57610100808354040283529160200191612e35565b820191906000526020600020905b815481529060010190602001808311612e1857829003601f168201915b50505050508152602001600482018054612e4e90613de1565b80601f0160208091040260200160405190810160405280929190818152602001828054612e7a90613de1565b8015612ec75780601f10612e9c57610100808354040283529160200191612ec7565b820191906000526020600020905b815481529060010190602001808311612eaa57829003601f168201915b50505050508152602001600582018054612ee090613de1565b80601f0160208091040260200160405190810160405280929190818152602001828054612f0c90613de1565b8015612f595780601f10612f2e57610100808354040283529160200191612f59565b820191906000526020600020905b815481529060010190602001808311612f3c57829003601f168201915b505050505081525050828481518110612f7557612f74614096565b5b60200260200101819052508280612f8b906140f4565b9350505b8080612f9a906140f4565b915050612c74565b5080935050505090565b612fb46130ee565b73ffffffffffffffffffffffffffffffffffffffff16612fd261249a565b73ffffffffffffffffffffffffffffffffffffffff1614613028576040517f08c379a000000000000000000000000000000000000000000000000000000000815260040161301f906145c8565b60405180910390fd5b565b60008060009054906101000a900473ffffffffffffffffffffffffffffffffffffffff169050816000806101000a81548173ffffffffffffffffffffffffffffffffffffffff021916908373ffffffffffffffffffffffffffffffffffffffff1602179055508173ffffffffffffffffffffffffffffffffffffffff168173ffffffffffffffffffffffffffffffffffffffff167f8be0079c531659141344cd1fd0a4f28419497f9722a3daafe3b4186f6b6457e060405160405180910390a35050565b600033905090565b60405180610100016040528060008152602001600081526020016060815260200160608152602001606081526020016060815260200160608152602001606081525090565b604051806101200160405280600081526020016000600181111561316257613161613811565b5b81526020016060815260200160608152602001606081526020016060815260200160608152602001600015158152602001600073ffffffffffffffffffffffffffffffffffffffff1681525090565b6040518060c001604052806000815260200160008152602001606081526020016060815260200160608152602001606081525090565b6000604051905090565b600080fd5b600080fd5b6000819050919050565b61320e816131fb565b811461321957600080fd5b50565b60008135905061322b81613205565b92915050565b600060208284031215613247576132466131f1565b5b60006132558482850161321c565b91505092915050565b600081519050919050565b600082825260208201905092915050565b60005b8381101561329857808201518184015260208101905061327d565b60008484015250505050565b6000601f19601f8301169050919050565b60006132c08261325e565b6132ca8185613269565b93506132da81856020860161327a565b6132e3816132a4565b840191505092915050565b6000602082019050818103600083015261330881846132b5565b905092915050565b600073ffffffffffffffffffffffffffffffffffffffff82169050919050565b600061333b82613310565b9050919050565b61334b81613330565b811461335657600080fd5b50565b60008135905061336881613342565b92915050565b600060208284031215613384576133836131f1565b5b600061339284828501613359565b91505092915050565b6133a4816131fb565b82525050565b60006020820190506133bf600083018461339b565b92915050565b600081519050919050565b600082825260208201905092915050565b6000819050602082019050919050565b6133fa816131fb565b82525050565b600082825260208201905092915050565b600061341c8261325e565b6134268185613400565b935061343681856020860161327a565b61343f816132a4565b840191505092915050565b60006101008301600083015161346360008601826133f1565b50602083015161347660208601826133f1565b506040830151848203604086015261348e8282613411565b915050606083015184820360608601526134a88282613411565b915050608083015184820360808601526134c28282613411565b91505060a083015184820360a08601526134dc8282613411565b91505060c083015184820360c08601526134f68282613411565b91505060e083015184820360e08601526135108282613411565b9150508091505092915050565b6000613529838361344a565b905092915050565b6000602082019050919050565b6000613549826133c5565b61355381856133d0565b935083602082028501613565856133e1565b8060005b858110156135a15784840389528151613582858261351d565b945061358d83613531565b925060208a01995050600181019050613569565b50829750879550505050505092915050565b600060208201905081810360008301526135cd818461353e565b905092915050565b600080fd5b600080fd5b7f4e487b7100000000000000000000000000000000000000000000000000000000600052604160045260246000fd5b613617826132a4565b810181811067ffffffffffffffff82111715613636576136356135df565b5b80604052505050565b60006136496131e7565b9050613655828261360e565b919050565b600067ffffffffffffffff821115613675576136746135df565b5b61367e826132a4565b9050602081019050919050565b82818337600083830152505050565b60006136ad6136a88461365a565b61363f565b9050828152602081018484840111156136c9576136c86135da565b5b6136d484828561368b565b509392505050565b600082601f8301126136f1576136f06135d5565b5b813561370184826020860161369a565b91505092915050565b600080600080600060a08688031215613726576137256131f1565b5b600086013567ffffffffffffffff811115613744576137436131f6565b5b613750888289016136dc565b955050602086013567ffffffffffffffff811115613771576137706131f6565b5b61377d888289016136dc565b945050604086013567ffffffffffffffff81111561379e5761379d6131f6565b5b6137aa888289016136dc565b935050606086013567ffffffffffffffff8111156137cb576137ca6131f6565b5b6137d7888289016136dc565b925050608086013567ffffffffffffffff8111156137f8576137f76131f6565b5b613804888289016136dc565b9150509295509295909350565b7f4e487b7100000000000000000000000000000000000000000000000000000000600052602160045260246000fd5b6002811061385157613850613811565b5b50565b600081905061386282613840565b919050565b600061387282613854565b9050919050565b61388281613867565b82525050565b60008115159050919050565b61389d81613888565b82525050565b6138ac81613330565b82525050565b6000610120830160008301516138cb60008601826133f1565b5060208301516138de6020860182613879565b50604083015184820360408601526138f68282613411565b915050606083015184820360608601526139108282613411565b9150506080830151848203608086015261392a8282613411565b91505060a083015184820360a08601526139448282613411565b91505060c083015184820360c086015261395e8282613411565b91505060e083015161397360e0860182613894565b506101008301516139886101008601826138a3565b508091505092915050565b600060208201905081810360008301526139ad81846138b2565b905092915050565b6000806000606084860312156139ce576139cd6131f1565b5b600084013567ffffffffffffffff8111156139ec576139eb6131f6565b5b6139f8868287016136dc565b935050602084013567ffffffffffffffff811115613a1957613a186131f6565b5b613a25868287016136dc565b925050604084013567ffffffffffffffff811115613a4657613a456131f6565b5b613a52868287016136dc565b9150509250925092565b600081519050919050565b600082825260208201905092915050565b6000819050602082019050919050565b600060c083016000830151613aa060008601826133f1565b506020830151613ab360208601826133f1565b5060408301518482036040860152613acb8282613411565b91505060608301518482036060860152613ae58282613411565b91505060808301518482036080860152613aff8282613411565b91505060a083015184820360a0860152613b198282613411565b9150508091505092915050565b6000613b328383613a88565b905092915050565b6000602082019050919050565b6000613b5282613a5c565b613b5c8185613a67565b935083602082028501613b6e85613a78565b8060005b85811015613baa5784840389528151613b8b8582613b26565b9450613b9683613b3a565b925060208a01995050600181019050613b72565b50829750879550505050505092915050565b60006020820190508181036000830152613bd68184613b47565b905092915050565b613be781613330565b82525050565b6000602082019050613c026000830184613bde565b92915050565b60028110613c1557600080fd5b50565b600081359050613c2781613c08565b92915050565b60008060008060008060c08789031215613c4a57613c496131f1565b5b6000613c5889828a01613c18565b965050602087013567ffffffffffffffff811115613c7957613c786131f6565b5b613c8589828a016136dc565b955050604087013567ffffffffffffffff811115613ca657613ca56131f6565b5b613cb289828a016136dc565b945050606087013567ffffffffffffffff811115613cd357613cd26131f6565b5b613cdf89828a016136dc565b935050608087013567ffffffffffffffff811115613d0057613cff6131f6565b5b613d0c89828a016136dc565b92505060a087013567ffffffffffffffff811115613d2d57613d2c6131f6565b5b613d3989828a016136dc565b9150509295509295509295565b7f44656772656520494420646f6573206e6f742065786973740000000000000000600082015250565b6000613d7c601883613269565b9150613d8782613d46565b602082019050919050565b60006020820190508181036000830152613dab81613d6f565b9050919050565b7f4e487b7100000000000000000000000000000000000000000000000000000000600052602260045260246000fd5b60006002820490506001821680613df957607f821691505b602082108103613e0c57613e0b613db2565b5b50919050565b60008190508160005260206000209050919050565b60006020601f8301049050919050565b60008160020a8302905092915050565b600060088302613e777fffffffffffffffffffffffffffffffffffffffffffffffffffffffffffffffff82613e37565b613e818683613e37565b95508019841693508086168417925050509392505050565b6000819050919050565b6000613ebe613eb9613eb4846131fb565b613e99565b6131fb565b9050919050565b6000819050919050565b613ed883613ea3565b613eec613ee482613ec5565b848454613e47565b825550505050565b600090565b613f01613ef4565b613f0c818484613ecf565b505050565b5b81811015613f3057613f25600082613ef9565b600181019050613f12565b5050565b601f821115613f7557613f4681613e12565b613f4f84613e27565b81016020851015613f5e578190505b613f72613f6a85613e27565b830182613f11565b50505b505050565b60008160020a8304905092915050565b6000613f9b60001984600802613f7a565b1980831691505092915050565b6000613fb48383613f8a565b9150826002028217905092915050565b613fcd8261325e565b67ffffffffffffffff811115613fe657613fe56135df565b5b613ff08254613de1565b613ffb828285613f34565b600060209050601f83116001811461402e576000841561401c578287015190505b6140268582613fa8565b86555061408e565b601f19841661403c86613e12565b60005b828110156140645784890151825560018201915060208501945060208101905061403f565b86831015614081578489015161407d601f891682613f8a565b8355505b6001600288020188555050505b505050505050565b7f4e487b7100000000000000000000000000000000000000000000000000000000600052603260045260246000fd5b7f4e487b7100000000000000000000000000000000000000000000000000000000600052601160045260246000fd5b60006140ff826131fb565b91507fffffffffffffffffffffffffffffffffffffffffffffffffffffffffffffffff8203614131576141306140c5565b5b600182019050919050565b7f457870657269656e636520494420646f6573206e6f7420657869737400000000600082015250565b6000614172601c83613269565b915061417d8261413c565b602082019050919050565b600060208201905081810360008301526141a181614165565b9050919050565b600081905092915050565b60008190508160005260206000209050919050565b600081546141d581613de1565b6141df81866141a8565b945060018216600081146141fa576001811461420f57614242565b60ff1983168652811515820286019350614242565b614218856141b3565b60005b8381101561423a5781548189015260018201915060208101905061421b565b838801955050505b50505092915050565b600061425782846141c8565b915081905092915050565b7f4f6e6c79204a6f625365656b6572732063616e2061636365737320746869732060008201527f66756e6374696f6e616c69747900000000000000000000000000000000000000602082015250565b60006142be602d83613269565b91506142c982614262565b604082019050919050565b600060208201905081810360008301526142ed816142b1565b9050919050565b7f50656e64696e6700000000000000000000000000000000000000000000000000600082015250565b600061432a600783613269565b9150614335826142f4565b602082019050919050565b600060c082019050818103600083015261435a81886132b5565b9050818103602083015261436e81876132b5565b9050818103604083015261438281866132b5565b9050818103606083015261439681856132b5565b905081810360808301526143aa81846132b5565b905081810360a08301526143bd8161431d565b90509695505050505050565b600060808201905081810360008301526143e381876132b5565b905081810360208301526143f781866132b5565b9050818103604083015261440b81856132b5565b9050818103606083015261441f81846132b5565b905095945050505050565b7f496e76616c696420757365722074797065000000000000000000000000000000600082015250565b6000614460601183613269565b915061446b8261442a565b602082019050919050565b6000602082019050818103600083015261448f81614453565b9050919050565b61449f81613867565b82525050565b60006060820190506144ba6000830186614496565b81810360208301526144cc81856132b5565b905081810360408301526144e081846132b5565b9050949350505050565b7f4f776e61626c653a206e6577206f776e657220697320746865207a65726f206160008201527f6464726573730000000000000000000000000000000000000000000000000000602082015250565b6000614546602683613269565b9150614551826144ea565b604082019050919050565b6000602082019050818103600083015261457581614539565b9050919050565b7f4f776e61626c653a2063616c6c6572206973206e6f7420746865206f776e6572600082015250565b60006145b2602083613269565b91506145bd8261457c565b602082019050919050565b600060208201905081810360008301526145e1816145a5565b905091905056fea264697066735822122080b33e980e7eaaae4357a2a7f52af8f4d4dea58aa3277025497cef725e1be48064736f6c63430008130033",
  "immutableReferences": {},
  "source": "// SPDX-License-Identifier: MIT\npragma solidity 0.8.19;\n\nimport \"../node_modules/@openzeppelin/contracts/access/Ownable.sol\";\n\ncontract UserManagement is Ownable {\n    enum UserType {\n        JobSeeker,\n        Employer\n    }\n\n    struct User {\n        uint256 id;\n        UserType userType;\n        string name;\n        string email;\n        string companyName; // Uniquement pour les entreprises\n        string kyc; // KYC pour les entreprises\n        string candidateInfo; // Infos spcifiques pour les candidats\n        bool isVerified;\n        address walletAddress;\n    }\n\n    struct Degree {\n        uint256 id;\n        uint256 userId;\n        string institution;\n        string title;\n        string year;\n        string status;\n    }\n\n    struct Experience {\n        uint256 id;\n        uint256 userId;\n        string companyName;\n        string position;\n        string beginDate;\n        string endDate;\n        string description;\n        string status;\n    }\n\n    string public constant PENDING_STATUS = \"Pending\";\n    string public constant VALID_STATUS = \"Valide\";\n    string public constant REJECTED_STATUS = \"Rejected\";\n    mapping(address => User) private usersByAddress;\n    mapping(uint256 => User) private usersById;\n    mapping(uint256 => Degree) private degrees;\n    mapping(uint256 => Experience) private experiences;\n    mapping(uint256 => Degree[]) private userDegrees;\n    mapping(uint256 => Experience[]) private userExperiences;\n    uint256 private userIdCounter;\n    uint256 private degreeIdCounter;\n    uint256 private experienceIdCounter;\n\n    event DegreeCreated(\n        uint256 indexed id,\n        uint256 indexed userId,\n        string institution,\n        string title,\n        string year,\n        string status\n    );\n    event ExperienceCreated(\n        uint256 indexed id,\n        uint256 indexed userId,\n        string companyName,\n        string position,\n        string beginDate,\n        string endDate,\n        string description,\n        string status\n    );\n    event DegreeRejected(uint256 indexed id);\n    event ExperienceRejected(uint256 indexed id);\n\n    event UserCreated(\n        uint256 indexed id,\n        UserType userType,\n        string name,\n        string email\n    );\n\n    event DegreeVerified(uint256 indexed id);\n    event ExperienceVerified(uint256 indexed id);\n\n    modifier onlyJobSeeker() {\n        require(\n            usersByAddress[msg.sender].userType == UserType.JobSeeker,\n            \"Only JobSeekers can access this functionality\"\n        );\n        _;\n    }\n\n    function createUser(\n        UserType _userType,\n        string memory _name,\n        string memory _email,\n        string memory _companyName,\n        string memory _kyc,\n        string memory _candidateInfo\n    ) public returns (uint256) {\n        require(\n            _userType == UserType.JobSeeker || _userType == UserType.Employer,\n            \"Invalid user type\"\n        );\n\n        userIdCounter++;\n        User memory user = User(\n            userIdCounter,\n            _userType,\n            _name,\n            _email,\n            _companyName,\n            _kyc,\n            _candidateInfo,\n            false,\n            msg.sender\n        );\n        usersByAddress[msg.sender] = user;\n        usersById[userIdCounter] = user;\n        emit UserCreated(userIdCounter, _userType, _name, _email);\n\n        return userIdCounter;\n    }\n\n    function getUserByAddress(\n        address _address\n    ) public view returns (User memory) {\n        return usersByAddress[_address];\n    }\n\n    function getUserIdByAddress(\n        address _address\n    ) public view returns (uint256) {\n        return usersByAddress[_address].id;\n    }\n\n    function getUserById(uint256 _id) public view returns (User memory) {\n        return usersById[_id];\n    }\n\n    function createDegree(\n        string memory _institution,\n        string memory _title,\n        string memory _year\n    ) public onlyJobSeeker {\n        uint256 userId = getUserIdByAddress(msg.sender);\n        degreeIdCounter++;\n        Degree memory degree = Degree(\n            degreeIdCounter,\n            userId,\n            _institution,\n            _title,\n            _year,\n            \"Pending\"\n        );\n        userDegrees[userId].push(degree);\n        degrees[degreeIdCounter] = degree;\n        emit DegreeCreated(\n            degreeIdCounter,\n            userId,\n            _institution,\n            _title,\n            _year,\n            PENDING_STATUS\n        );\n    }\n\n    function createExperience(\n        string memory _companyName,\n        string memory _position,\n        string memory _beginDate,\n        string memory _endDate,\n        string memory _description\n    ) public onlyJobSeeker {\n        uint256 userId = getUserIdByAddress(msg.sender);\n        experienceIdCounter++;\n        Experience memory experience = Experience(\n            experienceIdCounter,\n            userId,\n            _companyName,\n            _position,\n            _beginDate,\n            _endDate,\n            _description,\n            \"Pending\"\n        );\n        userExperiences[userId].push(experience);\n        experiences[experienceIdCounter] = experience;\n        emit ExperienceCreated(\n            experienceIdCounter,\n            userId,\n            _companyName,\n            _position,\n            _beginDate,\n            _endDate,\n            _description,\n            \"Pending\"\n        );\n    }\n\n    function verifyDegree(uint256 _degreeId) public onlyOwner {\n        // Check if the given _degreeId is within the valid range of existing Degree IDs\n        require(\n            _degreeId <= degreeIdCounter && _degreeId > 0,\n            \"Degree ID does not exist\"\n        );\n\n        // Update the status of the Degree with _degreeId to \"Valide\"\n        degrees[_degreeId].status = VALID_STATUS;\n\n        // Retrieve the Degree from the mapping and create a storage pointer to it\n        Degree storage degree = degrees[_degreeId];\n\n        // Find the corresponding Degree in the userDegrees mapping\n        uint256 userId = degree.userId;\n        uint256 degreeIndex = 0;\n        for (uint256 i = 0; i < userDegrees[userId].length; i++) {\n            if (userDegrees[userId][i].id == _degreeId) {\n                degreeIndex = i;\n                break;\n            }\n        }\n\n        // Update the status of the Degree in the userDegrees mapping as well\n        userDegrees[userId][degreeIndex].status = VALID_STATUS;\n\n        // Emit an event indicating that the Degree has been verified\n        emit DegreeVerified(_degreeId);\n    }\n\n    function verifyExperience(uint256 _experienceId) public onlyOwner {\n        // Check if the given _experienceId is within the valid range of existing Experience IDs\n        require(\n            _experienceId <= experienceIdCounter && _experienceId > 0,\n            \"Experience ID does not exist\"\n        );\n\n        // Update the status of the Experience with _experienceId to \"Valide\"\n        experiences[_experienceId].status = VALID_STATUS;\n\n        // Retrieve the Experience from the mapping and create a storage pointer to it\n        Experience storage experience = experiences[_experienceId];\n\n        // Find the corresponding Experience in the userExperiences mapping\n        uint256 userId = experience.userId;\n        uint256 experienceIndex = 0;\n        for (uint256 i = 0; i < userExperiences[userId].length; i++) {\n            if (userExperiences[userId][i].id == _experienceId) {\n                experienceIndex = i;\n                break;\n            }\n        }\n\n        // Update the status of the Experience in the userExperiences mapping as well\n        userExperiences[userId][experienceIndex].status = VALID_STATUS;\n\n        // Emit an event indicating that the Experience has been verified\n        emit ExperienceVerified(_experienceId);\n    }\n\n    function getUserDegrees(\n        uint256 _userId\n    ) public view returns (Degree[] memory) {\n        return userDegrees[_userId];\n    }\n\n    function getUserExperiences(\n        uint256 _userId\n    ) public view returns (Experience[] memory) {\n        return userExperiences[_userId];\n    }\n\n    function getAllPendingExperiences()\n        public\n        view\n        onlyOwner\n        returns (Experience[] memory)\n    {\n        uint256 totalExperiences = experienceIdCounter;\n        uint256 count = 0;\n        for (uint256 i = 1; i <= totalExperiences; i++) {\n            if (\n                keccak256(bytes(experiences[i].status)) ==\n                keccak256(bytes(PENDING_STATUS))\n            ) {\n                count++;\n            }\n        }\n        Experience[] memory result = new Experience[](count);\n        count = 0;\n        for (uint256 i = 1; i <= totalExperiences; i++) {\n            if (\n                keccak256(bytes(experiences[i].status)) ==\n                keccak256(bytes(PENDING_STATUS))\n            ) {\n                result[count] = experiences[i];\n                count++;\n            }\n        }\n        return result;\n    }\n\n    function getAllPendingDegrees()\n        public\n        view\n        onlyOwner\n        returns (Degree[] memory)\n    {\n        uint256 totalDegrees = degreeIdCounter;\n        uint256 count = 0;\n        for (uint256 i = 1; i <= totalDegrees; i++) {\n            if (\n                keccak256(bytes(degrees[i].status)) ==\n                keccak256(bytes(PENDING_STATUS))\n            ) {\n                count++;\n            }\n        }\n        Degree[] memory result = new Degree[](count);\n        count = 0;\n        for (uint256 i = 1; i <= totalDegrees; i++) {\n            if (\n                keccak256(bytes(degrees[i].status)) ==\n                keccak256(bytes(PENDING_STATUS))\n            ) {\n                result[count] = degrees[i];\n                count++;\n            }\n        }\n        return result;\n    }\n\n    function rejectDegree(uint256 _degreeId) public onlyOwner {\n        // Check if the given _degreeId is within the valid range of existing Degree IDs\n        require(\n            _degreeId <= degreeIdCounter && _degreeId > 0,\n            \"Degree ID does not exist\"\n        );\n\n        // Update the status of the Degree with _degreeId to \"Rejected\"\n        degrees[_degreeId].status = REJECTED_STATUS;\n\n        // Retrieve the Degree from the mapping and create a storage pointer to it\n        Degree storage degree = degrees[_degreeId];\n\n        // Find the corresponding Degree in the userDegrees mapping\n        uint256 userId = degree.userId;\n        uint256 degreeIndex = 0;\n        for (uint256 i = 0; i < userDegrees[userId].length; i++) {\n            if (userDegrees[userId][i].id == _degreeId) {\n                degreeIndex = i;\n                break;\n            }\n        }\n\n        // Update the status of the Degree in the userDegrees mapping as well\n        userDegrees[userId][degreeIndex].status = REJECTED_STATUS;\n\n        // Emit an event indicating that the Degree has been rejected\n        emit DegreeRejected(_degreeId);\n    }\n\n    function rejectExperience(uint256 _experienceId) public onlyOwner {\n        // Check if the given _experienceId is within the valid range of existing Experience IDs\n        require(\n            _experienceId <= experienceIdCounter && _experienceId > 0,\n            \"Experience ID does not exist\"\n        );\n\n        // Update the status of the Experience with _experienceId to \"Rejected\"\n        experiences[_experienceId].status = REJECTED_STATUS;\n\n        // Retrieve the Experience from the mapping and create a storage pointer to it\n        Experience storage experience = experiences[_experienceId];\n\n        // Find the corresponding Experience in the userExperiences mapping\n        uint256 userId = experience.userId;\n        uint256 experienceIndex = 0;\n        for (uint256 i = 0; i < userExperiences[userId].length; i++) {\n            if (userExperiences[userId][i].id == _experienceId) {\n                experienceIndex = i;\n                break;\n            }\n        }\n\n        // Update the status of the Experience in the userExperiences mapping as well\n        userExperiences[userId][experienceIndex].status = REJECTED_STATUS;\n\n        // Emit an event indicating that the Experience has been rejected\n        emit ExperienceRejected(_experienceId);\n    }\n}\n",
  "sourcePath": "/home/arnaud/Alyra/jobInChain/truffle/contracts/UserManagement.sol",
  "compiler": {
    "name": "solc",
    "version": "0.8.19+commit.7dd6d404.Emscripten.clang"
  },
  "schemaVersion": "3.4.11",
  "updatedAt": "2023-04-09T15:58:24.856Z",
  "networkType": "ethereum",
  "devdoc": {
    "kind": "dev",
    "methods": {
      "owner()": {
        "details": "Returns the address of the current owner."
      },
      "renounceOwnership()": {
        "details": "Leaves the contract without owner. It will not be possible to call `onlyOwner` functions anymore. Can only be called by the current owner. NOTE: Renouncing ownership will leave the contract without an owner, thereby removing any functionality that is only available to the owner."
      },
      "transferOwnership(address)": {
        "details": "Transfers ownership of the contract to a new account (`newOwner`). Can only be called by the current owner."
      }
    },
    "version": 1
  },
  "userdoc": {
    "kind": "user",
    "methods": {},
    "version": 1
  }
}